:100000000C9472000C949A000C949A000C949A0030
:100010000C949A000C949A000C949A000C949A00F8
:100020000C949A000C949A000C949A000C949A00E8
:100030000C949A000C949A000C949A000C949A00D8
:100040000C9483140C949A000C944F120C94291263
:100050000C949A000C949A000C949A000C949A00B8
:100060000C942A080C949A00000000002400270039
:100070002A0000000000250028002B0000000008D6
:10008000000201000003040700000000000000005F
:1000900000000000230026002900040404040404D6
:1000A0000404020202020202030303030303010227
:1000B00004081020408001020408102001020408F6
:1000C0001020005EBCE2613FDD83C29C7E20A3FD68
:1000D0001F41009D23BE46DB65F88C11AF32CA5725
:1000E000E9743F1C11241FBECFEFD8E0DEBFCDBFA7
:1000F00026E0ACE7B2E001C01D92A531B207E1F7FE
:1001000012E0A0E0B1E0E2E9F4E402C005900D9253
:10011000AC37B107D9F710E0C2E7D0E004C02197AF
:10012000FE010E94221FC137D107C9F70E94311575
:100130000C9447220C940000FC0180819181892B52
:1001400021F460E070E0CB01089560E177E080E0A9
:1001500090E00895CF93DF93DC01EB01EC81FD810A
:100160008A819B810896E817F90718F480E090E0EF
:1001700021C03897FD83EC833097C1F31296CD915F
:10018000DC911397209751F0CF018C1B9D0B23E03E
:10019000959587952A95E1F78D8303C01196FC9379
:1001A000EE931396FC93EE931297158214821782A6
:1001B0001682CF01DF91CF910895EF92FF920F93B6
:1001C0001F93CF93DF93EC018B017A018C818F77A2
:1001D00049F460E2CE0104960E94820919821882D5
:1001E0001B821A828C8185FF08C0B80188819981A1
:1001F0000E945809009789F403C080E090E00DC088
:10020000B701CE010E94AA00FC01892BB1F38481C1
:100210008F77848317830683CF01DF91CF911F915E
:100220000F91FF90EF900895FC018285811111C01C
:10023000A281B38184819581A817B90711F4118631
:1002400006C0CD010196938382838C91818781E0E2
:100250008287818508951F93CF93DF93EC01CE01B0
:100260000E9414018B302CF489300CF58823C1F0E6
:1002700032C08032E1F08F3219F08D3061F517C055
:100280001A86CE010E9414018A3219F08F32C9F009
:100290001FC01A8610E0CE010E941401811103C014
:1002A00081E090E01AC08F3221F4112311F01A86F8
:1002B000D6CF11E08A3209F010E01A86ECCF8A30EE
:1002C00071F21A86CE010E9414018111F8CFE8CF95
:1002D00082E090E002C080E090E0DF91CF911F913A
:1002E0000895FC01248125FF05C0808191810E9431
:1002F0005809089580E090E00895CF93009769F140
:10030000FC0184818F77883028F4853030F4833085
:10031000D8F423C0883059F020C0C1E08081918199
:10032000A281B381892B8A2B8B2BC1F416C0C1E02B
:1003300020E030E0A90160817181828193810E9477
:100340002C1D81110BC009C06081718189E891E089
:100350000E943722C1E0892B09F0C0E08C2FCF9199
:100360000895962F882331F061E0892F0E94A20E14
:1003700081E0089560E0892F0E94A20E80E0089538
:10038000FC0184819581009799F022813381468117
:1003900057812417350718F0158214820895A90192
:1003A0004F5F5F4F53834283FC01E20FF31F608373
:1003B00008952F923F924F925F927F928F929F92D9
:1003C000AF92BF92CF92DF92EF92FF920F931F9363
:1003D000CF93DF93CDB7DEB7C654D1090FB6F894EB
:1003E000DEBF0FBECDBF8C017B010E942B01279683
:1003F0009FAF8EAF2797CE018B5B9F4F0E949C00D3
:10040000672B09F087C080FD85C0C8010E941401D8
:100410008B3549F560E4C70104960E948209D70133
:1004200011961C921E9213961C921E921297F8011E
:100430008085882359F1C8010E9414018B3509F089
:10044000CAC1D8011A961C92C8010E942B019A8336
:100450008983CE0101960E949C00672B09F0EEC1B2
:1004600080FDECC15EC08B3771F560E2C701049678
:100470000E948209D70111961C921E9213961C921B
:100480001E921297F8018085811102C085E054C345
:10049000C8010E9414018B3709F09DC1D8011A963A
:1004A0001C92C8010E942B0125969FAF8EAF259705
:1004B000CE018D5B9F4F0E949C00672B09F0A7C166
:1004C00080FDA5C199C0C8010E941401873209F4BA
:1004D000A5C1823209F4A2C1C8010E941401C82E2C
:1004E0009E012F5F3F4F5901D12C8C2D0E94640C2F
:1004F000882309F43FC1FFE3DF1609F43BC1F8018B
:100500001286D394D501CD925D01C8010E941401D9
:10051000C82EEBCF26968FAD269727969FAD2797AF
:100520000CC3C8010E9414018D35B1F1D8016D9141
:100530007C91C7010E94AA00BC01892B09F451C01B
:10054000F801908591509087C8010E94D9019A8343
:100550008983D80118968C9118978F5F18968C9381
:10056000CE0101960E949C00672B09F067C180FDB7
:1005700065C1C8010E942B019A838983CE0101962F
:100580000E949C00672B09F059C180FD57C1C8012A
:100590000E9414018D3539F5F8011286CCC2C801CC
:1005A0000E9414018C3209F016C1F8011286C801AC
:1005B0000E942B0125969FAF8EAF2597CE018D5BB4
:1005C0009F4F0E949C00672B09F021C180FD1FC135
:1005D000D8016D917C91C7010E94AA006C01892B02
:1005E00089F483E0A9C2C8010E9414018C3209F089
:1005F000F2C0F80112869ACFC8010E9414018D370B
:1006000039F7CACFC8010E941401873211F0823233
:10061000A9F4BE016F5B7F4FC8010E947E0C259636
:100620009FAF8EAF2597CE018D5B9F4F0E949C00A0
:10063000672B09F0ECC080FF5BC0E9C0D8011696BB
:10064000ED91FC9117972281338184819581938369
:100650008283FA83E9831C821B823E832D83821B63
:10066000930B98878F83C8010E941401B82E8823AA
:10067000E1F18B2D0E94640C882389F1F801128628
:100680006B2DCE0101960E94C001C8010E94140189
:10069000B82E0E94640C8111F1CF60E0CE0101966A
:1006A0000E94C0018D819E81892B71F0E981FA81C0
:1006B0008B819C812F813885821B930B2281338112
:1006C000820F931F938382838D819E8123969FAF98
:1006D0008EAF2397892B31F483E090E0A0CF82E0A6
:1006E00090E09DCF80E090E09ACF81E090E097CFBE
:1006F00023962EAD3FAD2397F601848180688483D5
:1007000037832683C8010E942B0125969FAF8EAFA9
:100710002597CE018D5B9F4F0E949C00672B09F0AF
:1007200076C080FD74C0C8010E9414018A3309F0AC
:1007300052C0D8011A961C921A9718968C91189745
:10074000815018968C93B601C8010E94D901259654
:100750009FAF8EAF2597F80180858F5F8087CE0190
:100760008D5B9F4F0E949C00672B09F050C080FF5B
:1007700034C04DC0E1E0F0E0EC0FFD1FED0DF11DC8
:1007800010828981843709F469C0863609F479C0FA
:100790008E3609F487C08B3209F48BC08D3209F094
:1007A0008BC08A81772473948E3609F4B4C16E01AC
:1007B000F2E0CF0ED11C8E3409F4ADC1982F9F7D8D
:1007C000993409F43DC190ED980F9A3008F47AC03D
:1007D0008E3209F477C082E0AFC1C8010E942B01BC
:1007E00025969FAF8EAF2597CE018D5B9F4F0E94C0
:1007F0009C00672B61F480FD0AC0C8010E941401AF
:100800008D3709F0CCCED8011A961C9294C124964B
:100810008FAD249725969FAD25978FC1BE016F5B45
:100820007F4FC8010E947E0C9A838983CE01019676
:100830000E949C00672B11F480FF03C089819A817C
:100840007CC123960EAD1FAD239764E0C7010496CB
:100850000E948209D7010D931C936DC165E0C70109
:1008600004960E94820981E090E0A0E0B0E0F701E8
:1008700080839183A283B38390E0F4E0DF125DC1B3
:1008800016C065E0C70104960E948209D7011D9237
:100890001D921D921C92139781E090E0B5E0DB124F
:1008A0004CC105C081E090E0E4E0DE1246C180E08A
:1008B00044C18A81712C78CF712C9E012F5F3F4FEC
:1008C000690179CF812C912C5401F601819110EDB1
:1008D000180F1A3028F53AE9831639E99306A3066A
:1008E00039E1B306F8F4AAE0B0E0A50194010E9452
:1008F000501E4B015C01812F90E0A0E0B0E0AC0104
:10090000BD014095509560957095481559056A054B
:100910007B0540F0880E991EAA1EBB1E6F01D5CF25
:10092000882339F000E06AE0262E312C412C512C2E
:100930000EC0C7010496772009F4E3C067E00E9467
:100940008209F70180829182A282B382F4C081146D
:10095000910480E8A806B10450F0C501B401A201D9
:1009600091010E94C51E49015A010F5FF0CFF601A7
:10097000D6018D916D0190ED980F9A3010F40F5FB4
:10098000F6CF8E3209F56F01BFEFCB1ADB0AF60105
:100990002FEFC21AD20A108110531A30A8F43CEC7F
:1009A000831693063CE0A306B10488F7AAE0B0E002
:1009B000A50194010E94501E4B015C01810E911C07
:1009C000A11CB11C0150E3CF20812F7D802F000F8F
:1009D000990B253409F04AC021812D3219F4329641
:1009E00051E006C02B3211F0319601C0329650E032
:1009F00000E010E06AE0419120ED240F2A3080F5FC
:100A0000609F9001619F300D1124042F440F110B42
:100A100000531109020F131F9C01200F311F2732B1
:100A200031054CF3552361F0772031F0812C912C66
:100A3000A12C50E8B52E75C0812C912C540171C0A9
:100A4000711007C0812C912C40E8A42E4FE7B42EE2
:100A500068C0812C912C30E8A32EBB24BA9461C0CD
:100A6000552331F011950195110902C000E010E005
:100A7000080F191FC501B4010E94311D4B015C0113
:100A800010161106D4F4D12C00FF10C084E0D89EBB
:100A9000F0011124E95BFE4F2081318142815381B5
:100AA000C501B4010E94921D4B015C01159507958B
:100AB000D3940115110541F71DC011950195110938
:100AC000D12C01151105B1F000FF10C094E0D99EA2
:100AD000F0011124E15DFE4F20813181428153817B
:100AE000C501B4010E94921D4B015C01159507954B
:100AF000D394E7CF7720A9F0B7FAB094B7F8B094C1
:100B000010C066E00E948209D7018D929D92AD923D
:100B1000BC92139710C0812C912C80ECA82E8FE7EB
:100B2000B82E68E0C70104960E948209F70180820E
:100B30009182A282B38280E090E0CA5BDF4F0FB661
:100B4000F894DEBF0FBECDBFDF91CF911F910F9103
:100B5000FF90EF90DF90CF90BF90AF909F908F90DD
:100B60007F905F904F903F902F9008950F931F9329
:100B7000CF93DF93CDB7DEB761970FB6F894DEBFA2
:100B80000FBECDBF81E0809380021D861C861F862C
:100B90001E86198A188A60E070E0CE010C960E94C9
:100BA0007C0E0E94C41097FD1BC089831A8208899D
:100BB00019890F5F1F4FB801CE010C960E940212D7
:100BC000882379F32C853D8588899989BE016F5FDB
:100BD0007F4F820F931F0E944022198B088BE1CF19
:100BE00080911C0490911D0490931F0480931E0417
:100BF00080912204909123049093210480932004F7
:100C000060E088E294E00E948209288939898C8515
:100C10009D85009711F481E692E04CE154E05A83FF
:100C200049839C838B83820F931F9E838D83588778
:100C30004F838AE089871B8664E274E0CE010196C7
:100C40000E94D90160E070E0CE010C960E947C0EFB
:100C50008C859D850E94DA2061960FB6F894DEBFE0
:100C60000FBECDBFDF91CF911F910F910895CF920D
:100C7000DF92EF92FF92CF93DF93009769F06A01C2
:100C80007B01EC0168E004960E948209C882D98247
:100C9000EA82FB8281E001C080E0DF91CF91FF908A
:100CA000EF90DF90CF90089585ED8093BC00809108
:100CB000BC0084FDFCCF1092210308954091AE0248
:100CC000262F30E0240F311D21323105DCF4209134
:100CD00021032430C9F4FC0180E090E0861758F429
:100CE0003091AE022191DC01A257BD4FA30FB11D7F
:100CF0002C930196F3CF8091AE02680F6093AE0201
:100D000080E0089581E0089582E0089508950895AF
:100D10000895E091DA028091D902E81730F4F0E00A
:100D2000E552FD4F808190E008958FEF9FEF089589
:100D30009091DA028091D902981750F4E92FF0E0EF
:100D4000E552FD4F208130E09F5F9093DA0202C0B0
:100D50002FEF3FEFC90108958091D90290E02091D3
:100D6000DA02821B91090895CF92DF92EF92FF92EF
:100D70000F931F93CF93DF937C01CB018A012091C6
:100D80002203222389F0EB016B01C40ED51ECC1582
:100D9000DD0569F06991D701ED91FC910190F08139
:100DA000E02DC7010995F3CF642F0E945E06C801AC
:100DB000DF91CF911F910F91FF90EF90DF90CF9037
:100DC0000895CF93DF931F92CDB7DEB7698320914B
:100DD00022032223D1F020914403203240F021E06D
:100DE00030E0FC013383228380E090E015C08091E5
:100DF0002303E82FF0E0EC5DFC4F998190838F5F37
:100E0000809323038093440305C061E0CE010196E3
:100E10000E945E0681E090E00F90DF91CF910895EF
:100E2000089580E090E00895CF93DF93EC018881EE
:100E30009981461B570BDC01ED91FC910280F381F7
:100E4000E02D09952A813B81820F931F9B838A8322
:100E5000DF91CF910895EF92FF921F93CF93DF938D
:100E6000CDB7DEB766970FB6F894DEBF0FBECDBF25
:100E70009C01CB01FE0177964E2F1F2F5AE0E52EE5
:100E8000F12CB7010E94B11E805D8293CB010097C7
:100E9000C1F7512FBF01C9010E94140766960FB612
:100EA000F894DEBF0FBECDBFDF91CF911F91FF90B1
:100EB000EF900895CF93DF93EC0188819981DC0155
:100EC000ED91FC910190F081E02D09952A813B8103
:100ED000820F931F9B838A83DF91CF9108958F9216
:100EE0009F92AF92BF92CF92DF92EF92FF920F93B9
:100EF0001F93CF93DF93CDB7DEB766970FB6F89405
:100F0000DEBF0FBECDBF7C018E01095E1F4F6801A1
:100F10008AE0882E912CA12CB12CCB01BA01A5011D
:100F200094010E94C51E942F852F605DF801629385
:100F30008F01A901692F782F4115510561057105B0
:100F400061F7A601BF01C7010E94140766960FB69C
:100F5000F894DEBF0FBECDBFDF91CF911F910F91EF
:100F6000FF90EF90DF90CF90BF90AF909F908F90C9
:100F70000895FC0190810180F281E02D892F8095F8
:100F800060FF12C0F8942281822382838181892BA1
:100F90008183A3E2B0E01197F1F78281982B9283CD
:100FA000789487ED90E011C0F894228182238283A7
:100FB0008181892B8183AFEFB0E01197F1F78281B6
:100FC000982B928378948FE090E00197F1F7089541
:100FD000DC012C911196ED91FC911297F89481818E
:100FE000922F90958923818378948DE743E050E098
:100FF000815021F1DA011197F1F730813223C1F3E9
:10100000F8948281892382838181822B81837894E1
:10101000ABE7B7E01197F1F7F894818198239183BA
:1010200083E191E00197F1F78081282381E009F0C5
:1010300080E07894E3E6F6E03197F1F708950895BB
:101040008EBD00000DB407FEFDCF8EB508958CBD9A
:101050009DBD08951F920F920FB60F9211242F93EA
:101060003F934F935F936F937F938F939F93AF9330
:10107000BF93EF93FF938091B900887F803609F486
:101080009CC068F5883209F45BC090F4803109F4A3
:1010900054C038F4882309F4F6C0883009F44DC0F0
:1010A000F6C0883109F44CC0803209F45DC0EFC04D
:1010B000803409F468C048F4803309F455C088339B
:1010C00009F0E5C080931F03D8C0803509F44FC0F4
:1010D000883509F45DC0883409F0D9C0D6C0883994
:1010E00009F4C7C0A8F4883709F467C038F4883613
:1010F00009F463C0803709F460C0C9C0883809F4B6
:10110000B8C0803909F45FC0803809F0C0C05BC046
:10111000803B09F486C038F4803A09F466C0883A06
:1011200009F47FC0B4C0803C09F4A7C0883C09F42E
:10113000A4C0883B09F48AC0AAC08091FC0210C0F8
:1011400090911E0380911D03981770F5E0911E0386
:1011500081E08E0F80931E03F0E0E350FD4F80810D
:101160008093BB0085EC86C080931F038EC0E09106
:101170001E0381E08E0F80931E038091BB00F0E080
:10118000E350FD4F808390911E0380911D036EC03C
:10119000E0911E0381E08E0F80931E038091BB00BF
:1011A000F0E0E350FD4F80838091200381116DC0FA
:1011B00081E08093FB0284EA61C083E08093210395
:1011C0001092D002CFCF8091D002803208F051C06F
:1011D000E091D00281E08E0F8093D0028091BB001D
:1011E000F0E0E055FD4F8083BDCF85EC8093BC00DF
:1011F000109221038091D002803230F4E091D0022D
:10120000F0E0E055FD4F10826091D00270E0E09177
:101210007C02F0917D0280EB92E009951092D00261
:1012200036C084E0809321031092AF021092AE0288
:10123000E0917E02F0917F0209958091AE028111CA
:1012400005C081E08093AE0210928E02E091AF0261
:1012500081E08E0F8093AF02F0E0E257FD4F808176
:101260008093BB009091AF028091AE02981708F472
:1012700079CF85E88093BC000AC085EC8093BC00E0
:101280001092210304C010921F030E945406FF9184
:10129000EF91BF91AF919F918F917F916F915F91EE
:1012A0004F913F912F910F900FBE0F901F90189567
:1012B0000F931F93CF93DF93EC018B012097E1F005
:1012C0006E817F810115110519F06115710521F4F9
:1012D0006017710731F410C0C8010E943722892BB2
:1012E00059F08D81882331F098E08902C00DD11D1D
:1012F0001124E4CFC0E0D0E0CE01DF91CF911F9167
:101300000F910895FC0190819078692B6083089576
:10131000CF93DF93EC0188819981FB01019000203C
:10132000E9F73197AF01461B570BDC01ED91FC91BA
:101330000280F381E02D09952A813B81820F931F62
:101340009B838A83DF91CF910895FF920F931F9320
:10135000CF93DF936115710549F46AEC71E0DF9179
:10136000CF911F910F91FF900C9488098B01EC0194
:1013700062E2CE010E945A07F80161918F01662353
:1013800051F0E3E5F2E0F080FF2099F381816817E6
:1013900059F03296F8CF62E2CE01DF91CF911F91E2
:1013A0000F91FF900C945A076CE5CE010E945A07EA
:1013B0006F2DDFCF2F923F924F925F926F927F926D
:1013C0008F929F92AF92BF92CF92DF92EF92FF9255
:1013D0000F931F93CF93DF93CDB7DEB766970FB60A
:1013E000F894DEBF0FBECDBF7C018B01DC011496EB
:1013F0008C918F77853009F4D3C068F4813008F47C
:10140000DEC0833008F4ACC0F70160817181C8018F
:101410000E94A50940C2883009F190F4863009F491
:10142000B6C0873009F0CBC0D701CD90DD90ED90EC
:10143000FC906DE2C8010E945A07B701A601ACC03A
:10144000803209F45EC0803409F0B9C06BE5C80190
:101450000E945A07D701ED90FC904EC0F7014080E2
:10146000518062807380A3019201C301B2010E9486
:101470002C1D882319F062E672E0A3C020E030E062
:10148000A901C301B2010E942C1D87FF08C06DE2B3
:10149000C8010E945A0777FA709477F8709420E098
:1014A00030E0A901C301B2010E942C1D882309F478
:1014B0008CC0A3019201C301B2010E94291FA301A4
:1014C00092010E942C1D811180C06FE672E079C0EC
:1014D000B801C7010E94DA09F7018581882379F0F4
:1014E000F8E08F02E00CF11C1124E114F10439F052
:1014F0006CE2C8010E945A07E114F10449F76DE556
:101500002BC06BE7C8010E945A07D701ED90FC90F1
:10151000E114F10401F1F70166817781C8010E94AD
:10152000A5096AE3C8010E945A07B801C7010E94D1
:10153000DA09D70115968C91882369F0B8E08B02FF
:10154000E00CF11C1124E114F10429F06CE2C80153
:101550000E945A07DDCF6DE7C8010E945A079BC160
:10156000DB018D919C91F7014281538160817181F2
:10157000DC01ED91FC910280F381E02D0995F801E9
:1015800022813381820F931F9383828384C1F70169
:101590004081518162817381C8010E946F077BC1C4
:1015A000F70180819181A281B381892B8A2B8B2BBA
:1015B00019F069E871E005C069E672E002C06AEC02
:1015C00071E0C8010E94880966C120E836E948E157
:1015D0005BE4C301B2010E943D2087FF29C160E2A4
:1015E000E62EF12C75E0B72E212C312C20E030E0D6
:1015F000A901C301B2010E943D20181694F52CEAFE
:1016000035EC47E257E3C301B2010E942C1D1816C6
:1016100044F19FEFB91629F1AB2DB4E0AB026001A4
:101620001124F601E95EFE4FA301920160817181F0
:10163000828193810E943D2018167CF4F601E95BBB
:10164000FE4F2081318142815381C301B2010E944A
:10165000921D2B013C012E183F08F594E794BA9493
:10166000D8CFC301B2010E940E204B015C016B0177
:101670007C01E6E0EE8B80E492E4AFE0B0E08A8BA0
:101680009B8BAC8BBD8B9E89998BA92FA150AE8B68
:10169000BAE0CB16D104E104F104C8F06A897B8971
:1016A0008C899D892AE030E040E050E00E94C51E10
:1016B0002A8B3B8B4C8B5D8BC701B6012AE030E057
:1016C00040E050E00E94C51E69017A01DCCFC501EF
:1016D000B4010E94311D9B01AC01C301B2010E9403
:1016E000281F6B017C016A897B898C899D890E94F6
:1016F000311D9B01AC01C701B6010E94921D2B0157
:101700003C010E940E206B017C010E94311D9B0157
:10171000AC01C301B2010E94281F9B01AC010E94D1
:10172000291F0E940E20C60ED71EE81EF91E8A89A8
:101730009B89AC89BD89C816D906EA06FB06E0F08C
:101740009FEF891A990AA90AB90A2114310489F06C
:10175000AAE08A169104A104B10458F0BFEF2B1A35
:101760003B0AC12CD12C7601812C912C54018394FD
:1017700003C0C12CD12C76013AE0432E512C612CB0
:10178000712CC701B601A30192010E94C51E672BEF
:10179000682B692B41F4E9891E162CF469017A0142
:1017A000E150E98BEECFB501A401C8010E946F079B
:1017B000F989FF2329F15F2E5E0181E1A80EB11C9A
:1017C00035015A949FEF591679F0C701B6012AE006
:1017D00030E040E050E00E94C51E605DD5016E9390
:1017E0005D0169017A01EDCFB301B9896B1B710904
:1017F0008EE2FB018293BF01A301C8010E9414077E
:1018000037FE0AC066E672E0C8010E9488096627B2
:1018100077276219730908C021143104E1F165E6E4
:10182000C8010E945A07B101C8010E942B0733C0AA
:101830008FE5A82E81E0B82E9FE2C92E91E0D92E27
:1018400020E2E22EF12C212C312CA3019201D501B2
:101850009E918E917E916E915D010E942C1D1816B5
:101860006CF0F6012489358946895789C301B20194
:101870000E94921D2B013C012E0C3F1CF594E79415
:10188000F4E0CF1AD10887E4A81681E0B806E9F69B
:10189000BB24BA94ABCE66960FB6F894DEBF0FBEEB
:1018A000CDBFDF91CF911F910F91FF90EF90DF900F
:1018B000CF90BF90AF909F908F907F906F905F90F0
:1018C0004F903F902F900895982F80ED890F8A3088
:1018D00020F081EA890F8C3110F481E008958FEBBC
:1018E000890F8A31D0F39B32C1F381E09D3221F020
:1018F0009E3219F080E0089508950895DF92EF92E6
:10190000FF920F931F93CF93DF93CDB7DEB7289746
:101910000FB6F894DEBF0FBECDBF8C017B01DC019A
:101920001696ED91FC9117972281338184819581E0
:1019300093838283FA83E9831C821B823E832D83F7
:10194000821B930B98878F83C8010E941401D82EA5
:10195000F8011286C8010E941401D8011A961C923F
:10196000D81649F1811103C081E090E047C08C3561
:10197000E1F4C8010E9414018823B1F3853719F0FE
:10198000E7E5F2E006C084E090E038C0891729F06E
:10199000329690819111FACF06C08181811103C0E6
:1019A00082E090E02BC0F8011286682FCE010196EC
:1019B0000E94C001CFCF60E0CE0101960E94C0011D
:1019C0008D819E81892B71F08B819C81E981FA81C7
:1019D0002F813885821B930B22813381820F931FC5
:1019E000938382838D819E81D7018D939C93892BD4
:1019F00019F483E090E002C080E090E028960FB6F2
:101A0000F894DEBF0FBECDBFDF91CF911F910F9134
:101A1000FF90EF90DF900895282F309144033132EA
:101A200008F04AC0809121038111FCCF90910106FA
:101A300042E040932103209320032FEF20931F03C4
:101A400010921E0330931D03E4E2F3E0ADEFB2E029
:101A500020E0321721F041914D932F5FFACF109281
:101A6000FC022091FC02990F922B9093FC02909122
:101A7000FB02913061F41092FB029091FC02909372
:101A8000BB009091BC0093FDF8CF95EC01C095EEA2
:101A90009093BC00909121039230E1F390911F0349
:101AA0009F3F79F080911F03803241F080911F03A6
:101AB000803331F084E005C081E003C082E001C0E2
:101AC00083E010922303109244031092220308959E
:101AD0003FB7F8948091D5029091D602A091D70299
:101AE000B091D80226B5A89B05C02F3F19F00196EA
:101AF000A11DB11D3FBFBA2FA92F982F8827820F94
:101B0000911DA11DB11DBC01CD0142E0660F771FE3
:101B1000881F991F4A95D1F708958091210381115B
:101B2000FCCF413208F040E281E0809321038093B2
:101B300020039FEF90931F0310921E03940F909326
:101B40001D038093FC028091FC02660F682B60935A
:101B5000FC028091FB02813061F41092FB028091C3
:101B6000FC028093BB008091BC0083FDF8CF85EC24
:101B700001C085EE8093BC00809121038130E1F3A8
:101B800080911E03841710F440911E03EDEFF2E0E4
:101B9000ABEDB2E080E0841721F091919D938F5FCF
:101BA000FACF1092DA028093D902089542E050E011
:101BB00068E772E085E493E00C94F810CF93DF932C
:101BC000009779F0FC0101900020E9F73197AF010F
:101BD000481B590BBC0185E493E00E94F810EC010E
:101BE00002C0C0E0D0E00E94D60D8C0F9D1FDF9197
:101BF000CF910895BF92CF92DF92EF92FF920F9311
:101C00001F93CF93DF93EC016B018D85811105C08C
:101C1000CE010E94E807811105C01B861D861C8627
:101C200080E060C040E060EFCE010E94991201E0C8
:101C3000E12CB12C11E0CE010E94EC12F82ECE0165
:101C40000E94EC1291E0F91203C08130B1F434C06B
:101C50002E2D30E0F8121BC08B85181738F4FE01CA
:101C6000E20FF31F8381802341F402C0811729F022
:101C7000F12C193058F41C8709C0FE01EE0DF11D3E
:101C80008381802B8383FF24F39409C0B12EFE014E
:101C9000E20FF31F9381802F8095892383836F2D1B
:101CA000CE010E94B9071F5F000F11F4E39401E019
:101CB00087E08E1508F0BFCF113408F4AECFBB8695
:101CC000B11002C081E08D878B81882309F4A5CFF4
:101CD000DE011396F6012B968D918193CA17DB07CF
:101CE000D9F781E0DF91CF911F910F91FF90EF9095
:101CF000DF90CF90BF9008950F931F93CF93DF9302
:101D0000EC018B010E9402122881398181110DC0E2
:101D10002115310519F0C9010E94DA2019821882B3
:101D20001D821C821B821A8207C01D830C8361E600
:101D300072E0C9010E944022CE01DF91CF911F9134
:101D40000F91089590E0FC01E458FF4F2491FC01AD
:101D5000E255FF4F3491FC01E656FF4FE491EE232C
:101D600009F43CC0222339F1233091F038F42130BA
:101D7000A9F0223001F584B58F7D12C0273091F093
:101D80002830A1F02430B9F4809180008F7D03C009
:101D9000809180008F77809380000DC084B58F770D
:101DA00084BD09C08091B0008F7703C08091B000DE
:101DB0008F7D8093B000F0E0EE0FFF1FEE58FF4FD5
:101DC000A591B4919FB7F894611104C08C9130959E
:101DD000382302C0EC913E2B3C939FBF08950F9394
:101DE0001F93CF93DF93EC01062F142F8091C6052C
:101DF0008823B9F0813009F06EC08091C9059091B7
:101E0000CA050E94270860E08091C8050E94A20EC2
:101E1000802F80680E942008CE01810F911D8C01C7
:101E200047C08091FA05813009F055C09091C705EF
:101E3000809322039093010610922303109244038F
:101E40008091FB059091FC05DC01ED91FC910190E6
:101E5000F081E02D099581E00E940C0D412F6091E9
:101E6000C7058091FB059091FC050E948D0DCE0168
:101E7000810F911D8C018091FB059091FC05DC0187
:101E8000ED91FC910084F185E02D0995892B19F1E4
:101E9000C017D10701F18091FB059091FC05DC0191
:101EA000ED91FC910284F385E02D09958993E3CFB0
:101EB000C017D10729F080E00E9420088993F8CF4D
:101EC00061E08091C8050E94A20EDF91CF911F9121
:101ED0000F910C941F08DF91CF911F910F910895DE
:101EE000CF93DF931F92CDB7DEB7682F1982809111
:101EF000C605882349F0813009F045C041E0CE0194
:101F000001960E94EF0E3FC08091FA058130D9F50D
:101F10009091C705809322039093010610922303AA
:101F2000109244038091FB059091FC05DC01ED913A
:101F3000FC910190F081E02D099581E00E940C0D4B
:101F400041E06091C7058091FB059091FC050E94DE
:101F50008D0D8091FB059091FC05DC01ED91FC91CC
:101F60000084F185E02D0995892B69F08091FB05AE
:101F70009091FC05DC01ED91FC910284F385E02D4C
:101F800009958983E6CF89810F90DF91CF910895DC
:101F9000CF93DF93D82FC62F8091C6058823F1F009
:101FA000813009F046C08091C9059091CA050E9410
:101FB000270860E08091C8050E94A20E8D2F8F77C0
:101FC0000E9420088C2F0E94200861E08091C805A3
:101FD0000E94A20EDF91CF910C941F088091FA0508
:101FE000813039F59091C7058093220390930106C3
:101FF00010922303109244038091FB059091FC05FD
:10200000DC01ED91FC910190F081E02D6D2F09959F
:102010008091FB059091FC05DC01ED91FC91019014
:10202000F081E02D6C2F099581E0DF91CF910C9428
:102030000C0DDF91CF910895CF93C82F843008F015
:10204000C0E084EF0E94700F8C7F682F6C2B84EFB0
:10205000CF910C94C80FCF93DF9390E0FC01E25531
:10206000FF4F2491FC01E656FF4F8491882361F1D4
:1020700090E0880F991FFC01E859FF4FC591D4915A
:10208000FC01EE58FF4FA591B491611109C09FB7B3
:10209000F8948881209582238883EC912E230BC0AD
:1020A000623061F49FB7F8948881322F3095832392
:1020B0008883EC912E2B2C939FBF06C08FB7F8948A
:1020C000E8812E2B28838FBFDF91CF9108958E302A
:1020D00008F08E508770806480937C0080917A0035
:1020E000806480937A0080917A0086FDFCCF809195
:1020F00078002091790090E0922B08958F929F9222
:10210000AF92BF92CF92DF92EF92FF926B017C0170
:102110000E94680D4B015C01C114D104E104F1047B
:10212000F1F00E94680DDC01CB0188199909AA0918
:10213000BB09883E9340A105B10570F321E0C21AA6
:10214000D108E108F10888EE880E83E0981EA11CF2
:10215000B11CC114D104E104F10419F7DDCFFF90E3
:10216000EF90DF90CF90BF90AF909F908F900895A9
:102170002FB7F8946091D1027091D2028091D3026E
:102180009091D4022FBF08950F931F930E94B8100F
:1021900060934D0370934E0380934F0390935003CD
:1021A00085E493E00E94311197FF1FC00E94B81090
:1021B00000914D0310914E0320914F033091500335
:1021C000DC01CB01801B910BA20BB30B00914903E7
:1021D00010914A0320914B0330914C0380179107D3
:1021E000A207B307E8F28FEF9FEF1F910F910895B9
:1021F000CF92DF92EF92FF920F931F93CF93DF93D3
:102200006C017A018B01C0E0D0E0CE15DF0581F0D2
:10221000D8016D918D01D601ED91FC910190F08175
:10222000E02DC6010995892B11F02196EECF7E0194
:10223000C701DF91CF911F910F91FF90EF90DF9039
:10224000CF900895FC01538D448D252F30E0842FCD
:1022500090E0821B930B541710F0CF9608950197CE
:102260000895FC01918D828D981761F0828DDF01B8
:10227000A80FB11D5D968C91928D9F5F9F73928F79
:1022800090E008958FEF9FEF0895FC01918D828D6E
:10229000981731F0828DE80FF11D858D90E008953B
:1022A0008FEF9FEF0895FC01918D228D892F90E093
:1022B000805C9F4F821B91098F739927089585E455
:1022C00093E00E94531121E0892B09F420E0822F32
:1022D0000895FC01848DDF01A80FB11DA35ABF4FE3
:1022E0002C91848D90E001968F739927848FA68915
:1022F000B7892C93A089B1898C91837080648C9369
:10230000938D848D981306C00288F389E02D808117
:102310008F7D80830895EF92FF920F931F93CF9349
:10232000DF93EC0181E0888F9B8D8C8D981305C025
:10233000E889F989808185FD26C0F62E0B8D10E095
:102340000F5F1F4F0F731127E02E8C8DE8120CC00A
:102350000FB607FCFACFE889F989808185FFF5CFB0
:10236000CE010E946911F1CF8B8DFE01E80FF11DA6
:10237000E35AFF4FF0829FB7F8940B8FEA89FB89ED
:10238000808180620AC09FB7F894EE89FF896083DC
:10239000E889F98980818370806480839FBF81E0B0
:1023A00090E0DF91CF911F910F91FF90EF900895F2
:1023B000CF93DF93EC01888D8823C9F0EA89FB89EC
:1023C000808185FD05C0A889B9898C9186FD0FC0E3
:1023D0000FB607FCF5CF808185FFF2CFA889B989B8
:1023E0008C9185FFEDCFCE010E946911E7CFDF917F
:1023F000CF9108950E945F1181110C94B605089544
:102400000E9429220F931F93CF93DF93EC018881C1
:102410009981009729F02A813B812617370788F494
:102420008B016F5F7F4F0E946321009761F099835A
:1024300088831B830A832C813D81232B11F4FC01AB
:10244000108281E001C080E0DF91CF911F910F9158
:1024500008951F920F920FB60F9211242F933F935E
:102460004F935F936F937F938F939F93AF93BF939C
:10247000EF93FF9385E493E00E946911FF91EF9140
:10248000BF91AF919F918F917F916F915F914F918C
:102490003F912F910F900FBE0F901F9018951F9294
:1024A0000F920FB60F9211242F938F939F93EF9358
:1024B000FF93E0915503F09156038081E0915B0317
:1024C000F0915C0382FD12C0908180915E038F5F6A
:1024D0008F7320915F03821751F0E0915E03F0E06B
:1024E000EB5BFC4F958F80935E0301C08081FF9171
:1024F000EF919F918F912F910F900FBE0F901F9092
:102500001895DC0180E0615098F02D91982F92276A
:10251000E92FEF70F0E0EE53FF4F249192959F70FA
:10252000E92FF0E0EE52FF4FE491822F8E27EBCFA0
:102530000895DF92EF92FF920F931F93CF93DF9353
:10254000EC01D62EE42E08E010E0FF24F39461E0C5
:102550008D2D8F2109F460E0CE010E94B907FF0C98
:1025600001501109A1F7E11010C0F894E981FA8136
:1025700091818881809589238183E981FA81928183
:1025800088818095892382837894DF91CF911F91F0
:102590000F91FF90EF90DF900895EF92FF920F93CD
:1025A0001F93CF93DF938C017B0140E065E50E9490
:1025B0009912E70188E0E80EF11C699140E0C8013A
:1025C0000E949912CE15DF05C1F7DF91CF911F91BF
:1025D0000F91FF90EF900895FC0190810180F281AE
:1025E000E02DF8948181892B81832281892F809528
:1025F00028232283A7E0B0E01197F1F721818223FD
:102600008183A3E2B0E01197F1F780817894EFEC39
:10261000F0E03197F1F7982381E009F480E0089524
:10262000CF92DF92EF92FF92CF93DF93EC018985F7
:102630009A850E94E80740E06CEC89859A850E94A3
:102640009912488164E489859A850E9499128C8147
:10265000882309F447C08D818823D9F088818111AE
:1026600018C00E94B8106B017C0189859A850E9470
:10267000EC128130B9F10E94B810DC01CB018C1949
:102680009D09AE09BF098E3E9240A105B10568F3D0
:1026900029C0EB81E950E33040F4F0E0EE0FFF1F7A
:1026A000ED57FE4F8081918102C08EEE92E06C0169
:1026B000E12CF12C8981882321F060E08A810E943D
:1026C000A20EC701B6010E947E108981882351F0B5
:1026D00061E08A81DF91CF91FF90EF90DF90CF9002
:1026E0000C94A20EDF91CF91FF90EF90DF90CF90EE
:1026F00008954F925F926F927F928F929F92AF92C6
:10270000BF92CF92DF92EF92FF920F931F93CF93DE
:10271000DF938C017B01EA01FC01818592850E9497
:10272000E807882309F443C0B701F8018185928541
:102730000E94CD1240E06EEBF801818592850E94E7
:1027400099127E015E01F9E0AF0EB11C6E01F80135
:102750006184728488E0882E912C512C4424439407
:10276000C3010E94EC1281115428440CF1E08F1A2D
:102770009108B1F7F60151926F01AE16BF0639F715
:10278000F801818592850E94E807813081F4F70184
:1027900081917F01811104C0EA15FB05C1F707C0D3
:1027A00068E0CE010E94811291E02885281390E014
:1027B000892FDF91CF911F910F91FF90EF90DF90C4
:1027C000CF90BF90AF909F908F907F906F905F90D1
:1027D0004F900895EF92FF920F931F93CF93DF9343
:1027E000CDB7DEB761970FB6F894DEBF0FBECDBF91
:1027F0007C01062FDC011996ED91FC911A97138646
:1028000015861486DF011B9633961E92AE17BF07FE
:10281000E1F710E0BE01665F7F4FF7018185928589
:102820000E94FA0D882369F0011308C067E0CE0109
:102830000A960E9481129989891741F01F5F01173A
:1028400048F760E070E08EEF92EC50C0AE014F5F51
:102850005F4FBE01665F7F4FC7010E9479138823D7
:1028600009F441C02A8130E0C901982F8827990FC7
:10287000990F990F6981F8E06F9FB00111249C01B5
:10288000262B372B8A858031D9F468856623C1F0E1
:1028900070E08F81AB01481B5109CA019695982FB2
:1028A0008827979587950E94B11E60527109207FF5
:1028B00053E0220F331F5A95E1F7620F731F01C0D7
:1028C000B901613854EE75070CF4BBCF072E000C2C
:1028D000880B990B0E94331D20E030E040E05CE360
:1028E0000E94921D03C060E874EEEBCF61960FB6B4
:1028F000F894DEBF0FBECDBFDF91CF911F910F9136
:10290000FF90EF9008951F920F920FB60F9211242F
:102910002F933F938F939F93AF93BF938091D10257
:102920009091D202A091D302B091D40230911006BE
:1029300023E0230F2D3720F40196A11DB11D05C002
:1029400026E8230F0296A11DB11D20931006809347
:10295000D1029093D202A093D302B093D40280917B
:10296000D5029091D602A091D702B091D8020196DB
:10297000A11DB11D8093D5029093D602A093D702DA
:10298000B093D802BF91AF919F918F913F912F91BA
:102990000F900FBE0F901F901895CF92DF92EF927D
:1029A000FF920F931F93E82FF92F05C001501109D3
:1029B0002109310961F1908196239417B9F305C07B
:1029C000015011092109310911F1908196239413C5
:1029D000F7CFC12CD12CE12CF12C0AC08FEFC81AF3
:1029E000D80AE80AF80A0C151D052E053F0579F0EE
:1029F00080818623841791F36C2D7D2D8E2D9F2D44
:102A00001F910F91FF90EF90DF90CF90089560E0BD
:102A100070E080E090E01F910F91FF90EF90DF90C9
:102A2000CF900895FC010D969183808393838283D8
:102A3000009721F09F012B523F4F02C020E030E071
:102A400035832483892B21F0CF018B529F4F02C005
:102A500080E090E09783868360E0CF010C960C9431
:102A60008209CF93DF93CDB7DEB76D970FB6F89499
:102A7000DEBF0FBECDBF789484B5826084BD84B5BF
:102A8000816084BD85B5826085BD85B5816085BD69
:102A900080916E00816080936E0010928100809121
:102AA00081008260809381008091810081608093A9
:102AB0008100809180008160809380008091B100CE
:102AC00084608093B1008091B00081608093B000F9
:102AD00080917A00846080937A0080917A0082608D
:102AE00080937A0080917A00816080937A0080914F
:102AF0007A00806880937A001092C100E0915503BB
:102B0000F091560382E08083E0915103F0915203EB
:102B10001082E0915303F091540380E1808310927E
:102B20005D03E0915903F0915A0386E08083E091C0
:102B30005703F0915803808180618083E0915703AF
:102B4000F0915803808188608083E0915703F09171
:102B50005803808180688083E0915703F091580387
:102B600080818F7D80831092DA021092D9021092B8
:102B70002303109244031092210381E080932003E9
:102B80001092FB0261E082E10E94A20E61E083E10B
:102B90000E94A20E8091B9008E7F8093B90080912F
:102BA000B9008D7F8093B90088E48093B80085E4F4
:102BB0008093BC0086E896E090937F0280937E022B
:102BC00087E896E090937D0280937C02E0910E046A
:102BD000F0910F04138615861486DF011B96339639
:102BE0001E92AE17BF07E1F710920C0410920D046D
:102BF00011E0BE01665F7F4F80910E0490910F043B
:102C00000E94FA0D8823F1F067E0CE010A960E9437
:102C1000811299898913EDCF80910C048F5F809385
:102C20000C048A85883209F438C230F4803109F402
:102C300034C28232F1F631C28B3309F42EC28234AF
:102C4000C1F62BC261E084E00E942B1061E085E0B8
:102C50000E942B1061E088E00E942B1061E086E06A
:102C60000E942B1061E087E00E942B1060E083E05F
:102C70000E942B1060E082E00E942B1060E08AE04E
:102C80000E942B1061E08BE00E942B1060E08CE032
:102C90000E942B1060E08BE00E94A20E82EE93E077
:102CA0009093FC058093FB0581E08093FA051092D8
:102CB000C60562E070E080E090E00E947E108091A6
:102CC000C605813009F03DC01FB7F894809181029C
:102CD000811127C0E4EAF0E08491E8EBF0E0949100
:102CE000E82FF0E0EE0FFF1FE859FF4FA591B491D8
:102CF000EC91E92321F461E08AE00E94A20E61E0F8
:102D00008AE00E942B108CB580618CBD8CB58064EC
:102D10008CBD61E08DE00E942B1061E08BE00E9491
:102D20002B10809181028F5F809381021FBF61E031
:102D30008091C8050E942B1061E08091C8050E9417
:102D4000A20E80ED0E94700F883519F0803609F0D0
:102D500004C289E80E94700F182F88E80E94700F43
:102D6000212F30E0322F2227280F311D3093D60536
:102D70002093D5058BE80E94700F182F8AE80E94D7
:102D8000700F212F30E0322F2227280F311D309372
:102D9000D8052093D7058DE80E94700F182F8CE876
:102DA0000E94700F212F30E0322F2227280F311D73
:102DB0003093DA052093D9058FE80E94700F182F01
:102DC0008EE80E94700F212F30E0322F2227280F2B
:102DD000311D3093DC052093DB0581E90E94700FE3
:102DE000182F80E90E94700F212F30E0322F222708
:102DF000280F311D3093DE052093DD0583E90E9405
:102E0000700F182F82E90E94700F212F30E0322FAF
:102E10002227280F311D3093E0052093DF0585E937
:102E20000E94700F182F84E90E94700F212F30E04C
:102E3000322F2227280F311D3093E2052093E10520
:102E400087E90E94700F182F86E90E94700F212FCA
:102E500030E0322F2227280F311D3093E4052093D4
:102E6000E30589E90E94700F182F88E90E94700F0E
:102E7000212F30E0322F2227280F311D3093E60515
:102E80002093E5058BE90E94700F182F8AE90E94B4
:102E9000700F212F30E0322F2227280F311D309361
:102EA000E8052093E7058DE90E94700F182F8CE943
:102EB0000E94700F212F30E0322F2227280F311D62
:102EC0003093EA052093E9058FE90E94700F182FCF
:102ED0008EE90E94700F212F30E0322F2227280F19
:102EE000311D3093EC052093EB0581EA0E94700FB1
:102EF0008093ED0582EE0E94700F182F81EE0E94E4
:102F0000700F212F30E0322F2227280F311D3093F0
:102F1000EF052093EE0583EE0E94700F8093F0057D
:102F200084EE0E94700F182F85EE0E94700F8F7034
:102F300090E020E1129F800D911D11249093F205E5
:102F40008093F10586EE0E94700F182F85EE0E9487
:102F5000700F82958F7090E0E0E11E9F800D911DB3
:102F600011249093F4058093F30587EE0E94700F6F
:102F70008093F5051091CC05183008F010E085EF2E
:102F80000E94700FF0E21F9F900111248F71682F33
:102F9000622B85EF0E94C80F1091CD05183008F004
:102FA00010E085EF0E94700F94E0199F90011124AA
:102FB000837E682F622B85EF0E94C80FE091CF05BA
:102FC000E13128F4F0E0EA5FFE4F108101C011E02A
:102FD00084EF0E94700F082F80E00E941C1084EF85
:102FE0000E94700FE4E01E9F90011124837E682FE1
:102FF000622B84EF0E94C80F802F83700E941C10E8
:10300000E091D005E13128F4F0E0EA5FFE4F108155
:1030100001C011E084EF0E94700F082F80E00E9431
:103020001C1082EF0E94700F887F682F612B82EF47
:103030000E94C80F802F83700E941C10E091CE0563
:10304000E13128F4F0E0EA5FFE4F108101C011E0A9
:1030500084EF0E94700F082F80E00E941C1084EF04
:103060000E94700FF0E21F9F900111248F71682F52
:10307000622B84EF0E94C80F802F83700E941C1067
:1030800083E00E941C1080ED0E94700F883509F4C7
:1030900061C0803609F061C05DC080910D048F5F12
:1030A00080930D0480910504811126C080910E0447
:1030B00090910F040E94E807BE01665F7F4F8091E8
:1030C0000E0490910F040E94CD1240E064EB8091B9
:1030D0000E0490910F040E94991280910E04909119
:1030E0000F040E94EC12082F80910E0490910F049F
:1030F0000E94E807002359F18A858031F9F0AE017A
:103100004F5F5F4FBE01665F7F4F85E094E00E9496
:103110007913882379F08D818F3351F020F48F312A
:1031200049F489E00CC08F3539F08F3739F002C08F
:103130008AE005C080E003C08BE001C08CE0909184
:103140000804981708F055CD8093080452CD1093C9
:103150000504D2CF8AEF91E002C082E192E00E94A2
:10316000DE0D95E4292E93E0392E0E94B8102091AF
:103170008C0230918D027B01E21AF30A61E08BE050
:103180000E94A20E83E290E00197F1F760E08BE0ED
:103190000E94A20EEAEBF0E06491E6EAF0E084918E
:1031A000E82FF0E0EE0FFF1FE057FF4F859194915D
:1031B00000E412E42FE030E0462F0E94CD146115A8
:1031C00071058105910549F0DC01CB010196A11D36
:1031D000B11DBC01CD019F7003C060E070E0CB0168
:1031E0002BE330E040E050E00E94E71E3093830282
:1031F00020938202F0EDEF16F7E0FF060CF4FCC21C
:1032000042E06DEFCE0101960E94EF0E4090F60570
:103210005090F7056090F8057090F9052CE2521A6D
:1032200021E0620A7108C980DA80DC24CD24DC2424
:10323000E12CF12C4EE0CC0CDD1CEE1CFF1C4A9561
:10324000D1F78091F1059091F205092E000CAA0B9F
:10325000BB0B54E1880F991FAA1FBB1F5A95D1F7CA
:10326000C81AD90AEA0AFB0AA091F305B091F4053D
:10327000A30192010E94061FC61AD70AE80AF90A9A
:1032800080E4D80EE11CF11C6FE0F594E794D7942C
:10329000C7946A95D1F7A091F005B0E00E94501E46
:1032A0004B015C017BE0B594A794979487947A9541
:1032B000D1F790E8990EA11CB11CA091F5050A2E3A
:1032C000000CBB0B0E94061FEAE095958795779549
:1032D0006795EA95D1F7A50194010E94A11EDC0132
:1032E000CB01FAE0B595A79597958795FA95D1F713
:1032F0009C01AD01405E5F4FA091EE05B091EF05DE
:103300000E94061FDC01CB01905EAF4FBF4FBC0196
:10331000CD01AEE09595879577956795AA95D1F7FC
:10332000A70196010E94A11E6B017C01BFE095954B
:10333000879577956795BA95D1F79B01AC010E9467
:10334000A11E9B01AC0117E0559547953795279530
:103350001A95D1F7A091ED05B0E00E94501EDC0156
:10336000CB0104E0B595A795979587950A95D1F778
:1033700026013701481A590A6A0A7B0A77FE03C0F8
:10338000412C512C320143E06AEFCE0101960E949C
:10339000EF0E2981822F90E0A0E0B0E0AC01BD01EA
:1033A0003CE0440F551F661F771F3A95D1F78A817D
:1033B00090E0A0E0B0E0E4E0880F991FAA1FBB1FD7
:1033C000EA95D1F7482B592B6A2B7B2B8B81829561
:1033D0008F70482B8091D5059091D605A0E0B0E084
:1033E0006A017B01F4E0F594E794D794C794FA95C9
:1033F000D1F7C81AD90AEA0AFB0A13E0759567954E
:10340000579547951A95D1F7880F991FAA1FBB1F8B
:103410009A01AB01281B390B4A0B5B0BA091D70516
:10342000B091D8050E94061F4B015C018BE0B5945A
:10343000A794979487948A95D1F7A7019601C7011D
:10344000B6010E94A11E9B01AC019CE055954795D9
:10345000379527959A95D1F7A091D905B091DA05BE
:103460000E94061FDC01CB012EE0B595A79597952C
:1034700087952A95D1F7A5019401280F391F4A1F76
:103480005B1F2093F6053093F7054093F8055093A2
:10349000F905A5E0B0E00E94501EDC01CB01805888
:1034A0009F4FAF4FBF4F692F7A2F8B2F992787FDE3
:1034B0009A950E94331D20E030E048EC52E40E94CF
:1034C000951F2091D1053091D2054091D30550919F
:1034D000D4050E94291F6A8F7B8F8C8F9D8F85E07A
:1034E00094E00E9410138EEE93E00E9410138EE081
:1034F0000E946710BC01990F880B990B0E94331D25
:1035000020E030E048EC52EC0E94921D20E030ECCC
:103510004FE754E40E94951F20E030E048EC52E46D
:103520000E94291F4B015C016093880270938902FD
:1035300080938A0290938B028FE00E946710BC01F7
:10354000990F880B990B0E94331D20E030E048EC66
:1035500052EC0E94921D20E030EC4FE754E40E94B0
:10356000951F20E030E048EC52E40E94291F6B01D7
:103570007C0160938402709385028093860290930D
:10358000870260E085E094E00E94EA136A8B7B8BFF
:103590008C8B9D8B61E08EEE93E00E94EA136E8B24
:1035A0007F8B888F998F41EF54E06EE871E089EF4F
:1035B00094E00E94DD008C01D301C201E1E04E16CF
:1035C00051046104E9E17E0624F080E090E0A0E08F
:1035D000B9E1BC01CD012CE095958795779567956C
:1035E0002A95D1F70E94331D20E030E040E85AE3ED
:1035F0000E94921D20E030E048EC52E40E94921DAF
:103600000E940720072E000C880B990B0E94331D87
:1036100020E030E048EC52E40E94951FAB01BC0171
:10362000C8010E94370641EF54E062E971E089EF7A
:1036300094E00E94DD004A8D5B8D6C8D7D8D0E9433
:10364000370641EF54E067E971E089EF94E00E94AA
:10365000DD008C0120E030E048EC52E46A897B898F
:103660008C899D890E94921D0E940720072E000CC4
:10367000880B990B0E94331D20E030E048EC52E4A7
:103680000E94951FAB01BC01C8010E94370641EFA3
:1036900054E063EA71E089EF94E00E94DD008C0160
:1036A00020E030E048EC52E46E897F89888D998D66
:1036B0000E94921D0E940720072E000C880B990B78
:1036C0000E94331D20E030E048EC52E40E94951F38
:1036D000AB01BC01C8010E94370641EF54E06EEA1D
:1036E00071E089EF94E00E94DD008C0120E030E081
:1036F00048EC52E4C501B4010E94921D0E940720CB
:10370000072E000C880B990B0E94331D20E030E03F
:1037100048EC52E40E94951FAB01BC01C8010E9415
:10372000370641EF54E069EB71E089EF94E00E94C5
:10373000DD008C0120E030E048EC52E4C701B60126
:103740000E94921D0E940720072E000C880B990BE7
:103750000E94331D20E030E048EC52E40E94951FA7
:10376000AB01BC01C8010E943706E0908202F090D4
:10377000830241EF54E063EC71E089EF94E00E9432
:10378000DD008C010097E1F0049647010F2C000C3E
:10379000AA08BB08F7FC04C066E00E9482090BC0BF
:1037A00067E00E948209B094A09490948094811C58
:1037B000911CA11CB11CF80180829182A282B3826B
:1037C0003A8229821C821B8289EF94E0009731F0B3
:1037D000BE016F5F7F4F0E94DA0906C06AEC71E09C
:1037E000CE0101960E9488090E94D60D0E94B81051
:1037F00070938D0260938C02809180028823E1F1A6
:103800006FEC71E084E294E00E9471010E947D01FE
:1038100064E070E00E94B10166ED71E084E294E042
:103820000E9471010E947D0165E070E00E94B1017B
:103830006DED71E084E294E00E9471010E947D01CF
:1038400068E070E00E94B10163EE71E084E294E010
:103850000E9471010E947D0166E070E00E94B1014A
:103860006EEE71E084E294E00E9471010E947D019D
:1038700067E070E00E94B1010E94FA1176CC1092CC
:1038800048031092470388EE93E0A0E0B0E08093F5
:10389000490390934A03A0934B03B0934C0323E650
:1038A00031E0309346032093450325EC30E030931C
:1038B00052032093510324EC30E0309354032093BF
:1038C000530320EC30E0309356032093550321EC52
:1038D00030E0309358032093570322EC30E03093CC
:1038E0005A032093590326EC30E030935C03209375
:1038F0005B0310925E0310925F03109260031092BC
:1039000061031092E5031092E4038093E603909321
:10391000E703A093E803B093E90385E791E0909370
:10392000E3038093E20382E58093C90581E08093FD
:10393000CA058093FA0540E856EE65EC77E44093BB
:10394000FD055093FE056093FF05709300061092ED
:10395000C60597E79093C70522EE33E03093FC0548
:103960002093FB059AE09093C80593E09093CB05D4
:103970001092CC051092CD058093CE058093CF0593
:103980008093D0051092D1051092D2051092D305E4
:103990001092D40581EF94E00E9412158CE194E01E
:1039A0000E94121560E089E00E942B10E7EBF0E026
:1039B000E491E0930206E3EAF0E0E491F0E0EE0F38
:1039C000FF1FE057FF4F85919491909304068093D9
:1039D000030610920D0610920F0610920E06EDE0EF
:1039E000F6E085E096E012928E179F07E1F71092BD
:1039F0001B0410921A041092060422E036E0309361
:103A00000F0420930E0410920C0410920D041092D7
:103A1000050499E09093080481E080930904809361
:103A20000A0480930B041092040410920304109271
:103A3000EF033093F8032093F7031092F5031092ED
:103A4000F6031092EE039093F1038093F2038093B8
:103A5000F3038093F40308950E946E1D08F481E03F
:103A60000895E89409C097FB3EF490958095709571
:103A700061957F4F8F4F9F4F9923A9F0F92F96E9BA
:103A8000BB279395F695879577956795B795F1112F
:103A9000F8CFFAF4BB0F11F460FF1BC06F5F7F4FCC
:103AA0008F4F9F4F16C0882311F096E911C07723DE
:103AB00021F09EE8872F762F05C0662371F096E8E7
:103AC000862F70E060E02AF09A95660F771F881FB6
:103AD000DAF7880F9695879597F90895990F00085A
:103AE000550FAA0BE0E8FEEF16161706E807F907D0
:103AF000C0F012161306E407F50798F0621B730B6B
:103B0000840B950B39F40A2661F0232B242B252BEB
:103B100021F408950A2609F4A140A6958FEF811D8E
:103B2000811D08950E94A51D0C94161E0E94081E5A
:103B300038F00E940F1E20F0952311F00C94FF1D09
:103B40000C94051E11240C944A1E0E94271E70F32B
:103B5000959FC1F3950F50E0551F629FF001729F32
:103B6000BB27F00DB11D639FAA27F00DB11DAA1F41
:103B7000649F6627B00DA11D661F829F2227B00D8E
:103B8000A11D621F739FB00DA11D621F839FA00D19
:103B9000611D221F749F3327A00D611D231F849F69
:103BA000600D211D822F762F6A2F11249F575040C0
:103BB0009AF0F1F088234AF0EE0FFF1FBB1F661F3B
:103BC000771F881F91505040A9F79E3F510580F004
:103BD0000C94FF1D0C944A1E5F3FE4F3983ED4F30F
:103BE000869577956795B795F795E7959F5FC1F7A8
:103BF000FE2B880F911D9695879597F9089597F953
:103C00009F6780E870E060E008959FEF80EC089582
:103C100000240A94161617061806090608950024AB
:103C20000A9412161306140605060895092E039425
:103C3000000C11F4882352F0BB0F40F4BF2B11F499
:103C400060FF04C06F5F7F4F8F4F9F4F089557FDF8
:103C50009058440F551F59F05F3F71F04795880FFA
:103C600097FB991F61F09F3F79F087950895121691
:103C700013061406551FF2CF4695F1DF08C016163D
:103C800017061806991FF1CF8695710561050894EE
:103C90000895E894BB2766277727CB0197F9089505
:103CA0000E94921EA59F900DB49F900DA49F800D21
:103CB000911D112408952F923F924F925F926F921F
:103CC0007F928F929F92AF92BF92CF92DF92EF92AC
:103CD000FF920F931F93CF93DF93CDB7DEB7CA1B2D
:103CE000DB0B0FB6F894DEBF0FBECDBF09942A8858
:103CF000398848885F846E847D848C849B84AA8400
:103D0000B984C884DF80EE80FD800C811B81AA818C
:103D1000B981CE0FD11D0FB6F894DEBF0FBECDBF57
:103D2000ED010895A29FB001B39FC001A39F700D44
:103D3000811D1124911DB29F700D811D1124911DB3
:103D40000895DB018F939F930E94501EBF91AF9106
:103D5000A29F800D911DA39F900DB29F900D1124E5
:103D6000089597FB072E16F4009407D077FD09D02D
:103D70000E940E1F07FC05D03EF4909581959F4F41
:103D80000895709561957F4F0895A1E21A2EAA1BA0
:103D9000BB1BFD010DC0AA1FBB1FEE1FFF1FA217FB
:103DA000B307E407F50720F0A21BB30BE40BF50BF8
:103DB000661F771F881F991F1A9469F76095709581
:103DC000809590959B01AC01BD01CF010895052E12
:103DD00097FB1EF400940E94FE1E57FD07D00E9420
:103DE000C51E07FC03D04EF40C94FE1E5095409562
:103DF000309521953F4F4F4F5F4F08959095809597
:103E0000709561957F4F8F4F9F4F0895B7FF0C942A
:103E1000501E0E94501E821B930B0895AA1BBB1BB1
:103E200051E107C0AA1FBB1FA617B70710F0A61BBA
:103E3000B70B881F991F5A95A9F780959095BC01DB
:103E4000CD010895EE0FFF1F0590F491E02D099428
:103E50005058BB27AA270E94401F0C94161E0E9490
:103E6000081E38F00E940F1E20F039F49F3F19F40D
:103E700026F40C94051E0EF4E095E7FB0C94FF1D50
:103E8000E92F0E94271E58F3BA17620773078407A9
:103E9000950720F079F4A6F50C94491E0EF4E095F0
:103EA0000B2EBA2FA02D0B01B90190010C01CA01F4
:103EB000A0011124FF27591B99F0593F50F4503E9F
:103EC00068F11A16F040A22F232F342F4427585F91
:103ED000F3CF469537952795A795F0405395C9F7A9
:103EE0007EF41F16BA0B620B730B840BBAF0915061
:103EF000A1F0FF0FBB1F661F771F881FC2F70EC000
:103F0000BA0F621F731F841F48F4879577956795D2
:103F1000B795F7959E3F08F0B0CF9395880F08F0BE
:103F20009927EE0F9795879508950E94A91F0C94E5
:103F3000161E0E940F1E58F00E94081E40F029F421
:103F40005F3F29F00C94FF1D51110C944A1E0C94F4
:103F5000051E0E94271E68F39923B1F3552391F3A0
:103F6000951B550BBB27AA2762177307840738F0E8
:103F70009F5F5F4F220F331F441FAA1FA9F335D045
:103F80000E2E3AF0E0E832D091505040E695001CF9
:103F9000CAF72BD0FE2F29D0660F771F881FBB1FB3
:103FA000261737074807AB07B0E809F0BB0B802D91
:103FB000BF01FF2793585F4F3AF09E3F510578F0BD
:103FC0000C94FF1D0C944A1E5F3FE4F3983ED4F31B
:103FD000869577956795B795F7959F5FC9F7880F91
:103FE000911D9695879597F90895E1E0660F771FE3
:103FF000881FBB1F621773078407BA0720F0621B74
:10400000730B840BBA0BEE1F88F7E09508950E949E
:104010000E206894B1110C944A1E08950E942F1E20
:1040200088F09F5798F0B92F9927B751B0F0E1F079
:10403000660F771F881F991F1AF0BA95C9F714C029
:10404000B13091F00E94491EB1E008950C94491ED0
:10405000672F782F8827B85F39F0B93FCCF3869562
:1040600077956795B395D9F73EF4909580957095BF
:1040700061957F4F8F4F9F4F08950E946E1D08F4EA
:104080008FEF08950F931F93CF93DF9382309105A5
:1040900010F482E090E0E0911306F091140620E025
:1040A00030E0A0E0B0E0309719F140815181028109
:1040B000138148175907C8F08417950769F41097BA
:1040C00031F012960C93129713961C9327C000930D
:1040D00013061093140622C02115310519F042175A
:1040E000530718F49A01BD01EF01DF01F801DBCF9E
:1040F00021153105F9F0281B390B2430310580F4E6
:104100008A819B816115710521F0FB019383828374
:1041100004C09093140680931306FE01329644C0A7
:10412000FE01E20FF31F81939193225031093983ED
:1041300028833AC02091110630911206232B41F4B6
:104140002091020130910301309312062093110651
:1041500020910001309101012115310541F42DB765
:104160003EB74091040150910501241B350BE091AD
:104170001106F0911206E217F307A0F42E1B3F0B75
:104180002817390778F0AC014E5F5F4F24173507C9
:1041900048F04E0F5F1F5093120640931106819313
:1041A000919302C0E0E0F0E0CF01DF91CF911F9149
:1041B0000F910895CF93DF93009709F481C0FC011C
:1041C000329713821282A0911306B09114061097B1
:1041D00081F420813181820F931F2091110630914B
:1041E00012062817390751F5F0931206E0931106CD
:1041F00067C0ED0120E030E0CE17DF0740F44A81D0
:104200005B819E0141155105F1F0EA01F5CFD383A1
:10421000C28340815181840F951FC817D90759F473
:1042200088819981840F951F0296918380838A816A
:104230009B81938382832115310529F4F093140621
:10424000E09313063DC0E901FB83EA83499159914C
:10425000C40FD51FEC17FD0761F480819181840F95
:10426000951F0296E90199838883828193819B83BC
:104270008A83E0E0F0E012968D919C91139700976D
:1042800019F0FD01DC01F7CF8D919C9111979D01F3
:104290002E5F3F4F820F931F20911106309112061F
:1042A0002817390769F4309729F4109214061092F0
:1042B000130602C013821282B0931206A093110655
:1042C000DF91CF910895A0E0B0E0E9E6F1E20C942F
:1042D0005F1EEC01009721F4CB010E944220B4C084
:1042E000FC01E60FF71F9C0122503109E217F3078A
:1042F00008F4A8C0D9010D911C9111970617170752
:10430000B0F00530110508F49BC0C801049786176A
:10431000970708F495C002501109061B170B01936B
:1043200011936D937C93CF010E94DA2089C05B01C9
:10433000A01AB10A4C01800E911EA0911306B091F3
:104340001406612C712CE12CF12C109709F446C055
:104350008D919C911197A815B905B1F56C0142E0BA
:10436000C40ED11CCA14DB0478F14C018A189B08D6
:10437000640142E0C40ED11C1296BC9012971396B1
:10438000AC91B5E0CB16D10440F0B282A383918208
:104390008082D9016D937C9309C00E5F1F4F800FFF
:1043A000911FF90191838083EB2DFA2FE114F10421
:1043B00031F0D7011396FC93EE93129741C0F0931E
:1043C0001406E09313063CC06816790608F43C0115
:1043D0007D0112960D90BC91A02DB7CF8091110652
:1043E0009091120688169906E1F466167706C8F4CD
:1043F0008091000190910101009741F48DB79EB723
:104400004091040150910501841B950BE817F907B1
:10441000C8F4F0931206E0931106F90171836083EA
:104420000FC0CB010E9442207C01009759F0A801E7
:10443000BE010E942E22CE010E94DA20C70104C0D4
:10444000CE0102C080E090E0CDB7DEB7EEE00C9484
:104450007B1E81E090E0F8940C944722FB01DC0184
:1044600002C001900D9241505040D8F70895FB01D1
:10447000DC018D91019080190110D9F3990B0895F9
:10448000FB01DC0101900D920020E1F70895F89402
:02449000FFCF5C
:1044920000001506200000010201030101010401D0
:1044A200010101010101050000803FCDCCCC3D6F2F
:1044B20012833A95BFD6337D1D9026B3CE010CCD23
:1044C200CCCC3D0AD7233C17B7D13877CC2B3295C9
:1044D20095E6241FB14F0A000020410000C84200A7
:1044E200401C4620BCBE4CCA1B0E5AAEC59D740071
:1044F2000000008B11F8102211D81153113111450F
:104502001100000000E106B40611078806AC069807
:104512000689065E00BC00770174727565004875F5
:104522006D0054656D700054656D706C6F6D6272D4
:10453200697A0054656D70706C616E7461004875C3
:104542006D6C6F6D6272697A0048756D706C616E28
:10455200746100556C74726173006E756C6C0076D8
:10456200616C76616C0076616C7661700076616C6C
:1045720076680076616C76685F6167756100766166
:104582006C76685F68756D75730053656E736F72D4
:104592002064652048756D20792054656D70204F28
:1045A2004B004E6F207365207075646F20657374C5
:1045B20061626C6563657220636F6D756E696361BC
:1045C2006369C3B36E20636F6E20656C2073656E82
:1045D200736F722064652048756D20792054656D73
:1045E200702E0022225C5C6208660C6E0A720D74E8
:1045F20009004E614E00652D0066616C73650049CD
:0C4602006E66696E697479000D0A000094
:00000001FF
