:100000000C9472000C949A000C949A000C949A0030
:100010000C949A000C949A000C949A000C949A00F8
:100020000C949A000C949A000C949A000C949A00E8
:100030000C949A000C949A000C949A000C949A00D8
:100040000C9465150C949A000C94EA120C94C4124A
:100050000C949A000C949A000C949A000C949A00B8
:100060000C94130F0C949A00000000002400270049
:100070002A0000000000250028002B0000000008D6
:10008000000201000003040700000000000000005F
:1000900000000000230026002900040404040404D6
:1000A0000404020202020202030303030303010227
:1000B00004081020408001020408102001020408F6
:1000C0001020005EBCE2613FDD83C29C7E20A3FD68
:1000D0001F41009D23BE46DB65F88C11AF32CA5725
:1000E000E9748E1D11241FBECFEFD8E0DEBFCDBF57
:1000F00026E0A0E3B3E001C01D92AE3CB207E1F7F9
:1001000013E0A0E0B1E0E2EFF6E402C005900D924A
:10011000A033B107D9F710E0C2E7D0E004C02197BF
:10012000FE010E945220C137D107C9F70E94CE15A7
:100130000C9477230C940000982F80ED890F8A305F
:1001400020F081EA890F8C3110F481E008958FEB63
:10015000890F8A31D0F39B32C1F381E09D3221F0C7
:100160009E3219F080E0089508950895FC0182857B
:10017000811111C0A281B38184819581A817B9072B
:1001800011F4118606C0CD010196938382838C9170
:10019000818781E08287818508951F93CF93DF93C4
:1001A000EC01CE010E94B6008B302CF489300CF5A6
:1001B0008823C1F032C08032E1F08F3219F08D30E7
:1001C00061F517C01A86CE010E94B6008A3219F076
:1001D0008F32C9F01FC01A8610E0CE010E94B6000F
:1001E000811103C081E090E01AC08F3221F4112305
:1001F00011F01A86D6CF11E08A3209F010E01A8683
:10020000ECCF8A3071F21A86CE010E94B6008111BD
:10021000F8CFE8CF82E090E002C080E090E0DF918C
:10022000CF911F910895FC0180819181892B21F448
:1002300060E070E0CB0108956AE77EE080E090E046
:100240000895FC0184819581009799F02281338182
:10025000468157812417350718F0158214820895B6
:10026000A9014F5F5F4F53834283FC01E20FF31FED
:1002700060830895DF92EF92FF920F931F93CF93C5
:10028000DF93CDB7DEB728970FB6F894DEBF0FBE69
:10029000CDBF8C017B01DC011696ED91FC91179787
:1002A000228133818481958193838283FA83E983D8
:1002B0001C821B823E832D83821B930B98878F8326
:1002C000C8010E94B600D82EF8011286C8010E940B
:1002D000B600D8011A961C92D81649F1811103C0B4
:1002E00081E090E047C08C35E1F4C8010E94B6007F
:1002F0008823B1F3853719F0EDE8F1E006C084E01A
:1003000090E038C0891729F0329690819111FACF88
:1003100006C08181811103C082E090E02BC0F8010A
:100320001286682FCE0101960E942101CFCF60E096
:10033000CE0101960E9421018D819E81892B71F051
:100340008B819C81E981FA812F813885821B930BF7
:1003500022813381820F931F938382838D819E81BB
:10036000D7018D939C93892B19F483E090E002C010
:1003700080E090E028960FB6F894DEBF0FBECDBFA8
:10038000DF91CF911F910F91FF90EF90DF90089533
:10039000CF93DF93DC01EB01EC81FD818A819B81AE
:1003A0000896E817F90718F480E090E021C0389724
:1003B000FD83EC833097C1F31296CD91DC911397B6
:1003C000209751F0CF018C1B9D0B23E095958795CD
:1003D0002A95E1F78D8303C01196FC93EE93139653
:1003E000FC93EE9312971582148217821682CF0126
:1003F000DF91CF9108950F931F93CF93DF93CDB7E4
:10040000DEB728970FB6F894DEBF0FBECDBF1A82B5
:1004100019821C821B821E821D8240E050E067E927
:1004200071E0CE0101960E9499120E94040B97FD83
:100430001BC08F8318860D811E810F5F1F4FB8016F
:10044000CE0101960E947212882379F329813A81A4
:100450008D819E81BE01695F7F4F820F931F0E9435
:1004600070231E830D83E1CF6AE0CE0101960E94C6
:10047000B90A40E050E067E971E0CE0101960E94C0
:10048000991289819A810E940A2228960FB6F894BF
:10049000DEBF0FBECDBFDF91CF911F910F910895A9
:1004A0002F923F924F925F926F927F928F929F9284
:1004B000AF92BF92CF92DF92EF92FF920F931F9372
:1004C000CF93DF93CDB7DEB766970FB6F894DEBF54
:1004D0000FBECDBF7C018B01DC0114968C918F7710
:1004E000853009F4D3C068F4813008F4DEC083306D
:1004F00008F4ACC0F70160817181C8010E9433111A
:1005000040C2883009F190F4863009F4B6C08730D3
:1005100009F0CBC0D701CD90DD90ED90FC906DE25D
:10052000C8010E94B710B701A601ACC0803209F41F
:100530005EC0803409F0B9C06BE5C8010E94B710F5
:10054000D701ED90FC904EC0F70140805180628051
:100550007380A3019201C301B2010E947B1E882314
:1005600019F068E971E0A3C020E030E0A901C301FF
:10057000B2010E947B1E87FF08C06DE2C8010E9485
:10058000B71077FA709477F8709420E030E0A90102
:10059000C301B2010E947B1E882309F48CC0A30111
:1005A0009201C301B2010E945920A30192010E944D
:1005B0007B1E811180C064EA71E079C0B801C70177
:1005C0000E945002F7018581882379F0F8E08F02BC
:1005D000E00CF11C1124E114F10439F06CE2C801C3
:1005E0000E94B710E114F10449F76DE52BC06BE7E9
:1005F000C8010E94B710D701ED90FC90E114F104FE
:1006000001F1F70166817781C8010E9433116AE325
:10061000C8010E94B710B801C7010E945002D7015B
:1006200015968C91882369F0B8E08B02E00CF11CE0
:100630001124E114F10429F06CE2C8010E94B71002
:10064000DDCF6DE7C8010E94B7109BC1DB018D9122
:100650009C91F7014281538160817181DC01ED91B0
:10066000FC910280F381E02D0995F801228133810C
:10067000820F931F9383828384C1F701408151814C
:1006800062817381C8010E94CC107BC1F701808117
:100690009181A281B381892B8A2B8B2B19F06FE674
:1006A00072E005C06EE572E002C06FE971E0C8015A
:1006B0000E94161166C120E836E948E15BE4C301F7
:1006C000B2010E946D2187FF29C160E2E62EF12C64
:1006D00075E0B72E212C312C20E030E0A901C301B8
:1006E000B2010E946D21181694F52CEA35EC47E210
:1006F00057E3C301B2010E947B1E181644F19FEF1D
:10070000B91629F1AB2DB4E0AB0260011124F6015A
:10071000EA5FFE4FA3019201608171818281938122
:100720000E946D2118167CF4F601EA5CFE4F2081D0
:10073000318142815381C301B2010E94E11E2B012C
:100740003C012E183F08F594E794BA94D8CFC30122
:10075000B2010E943E214B015C016B017C01E6E08D
:10076000EE8B80E492E4AFE0B0E08A8B9B8BAC8BA5
:10077000BD8B9E89998BA92FA150AE8BBAE0CB1669
:10078000D104E104F104C8F06A897B898C899D89D0
:100790002AE030E040E050E00E9414202A8B3B8B9E
:1007A0004C8B5D8BC701B6012AE030E040E050E0A1
:1007B0000E94142069017A01DCCFC501B4010E94B6
:1007C000801E9B01AC01C301B2010E9458206B0145
:1007D0007C016A897B898C899D890E94801E9B018E
:1007E000AC01C701B6010E94E11E2B013C010E9431
:1007F0003E216B017C010E94801E9B01AC01C30164
:10080000B2010E9458209B01AC010E9459200E9415
:100810003E21C60ED71EE81EF91E8A899B89AC8927
:10082000BD89C816D906EA06FB06E0F09FEF891AD3
:10083000990AA90AB90A2114310489F0AAE08A1692
:100840009104A104B10458F0BFEF2B1A3B0AC12C4C
:10085000D12C7601812C912C5401839403C0C12C9E
:10086000D12C76013AE0432E512C612C712CC7011A
:10087000B601A30192010E941420672B682B692BFB
:1008800041F4E9891E162CF469017A01E150E98BE3
:10089000EECFB501A401C8010E94CC10F989FF2355
:1008A00029F15F2E5E0181E1A80EB11C35015A9439
:1008B0009FEF591679F0C701B6012AE030E040E019
:1008C00050E00E941420605DD5016E935D016901C6
:1008D0007A01EDCFB301B9896B1B71098EE2FB017F
:1008E0008293BF01A301C8010E94711037FE0AC0A4
:1008F0006CE971E0C8010E9416116627772762191A
:10090000730908C021143104E1F165E6C8010E94B1
:10091000B710B101C8010E94881033C08EE4A82E20
:1009200081E0B82E9EE1C92E91E0D92E20E2E22E80
:10093000F12C212C312CA3019201D5019E918E9195
:100940007E916E915D010E947B1E18166CF0F6017F
:100950002489358946895789C301B2010E94E11E65
:100960002B013C012E0C3F1CF594E794F4E0CF1AC8
:10097000D10886E3A81681E0B806E9F6BB24BA944C
:10098000ABCE66960FB6F894DEBF0FBECDBFDF913B
:10099000CF911F910F91FF90EF90DF90CF90BF907C
:1009A000AF909F908F907F906F905F904F903F900F
:1009B0002F900895EF92FF920F931F93CF93DF93A1
:1009C000EC018B017A018C818F7749F460E2CE01D2
:1009D00004960E946B10198218821B821A828C81E5
:1009E00085FF08C0B801888199810E944110009755
:1009F00089F403C080E090E00DC0B701CE010E94F1
:100A0000C801FC01892BB1F384818F77848317831C
:100A10000683CF01DF91CF911F910F91FF90EF904F
:100A20000895FC01248125FF05C0808191810E94E9
:100A30004110089580E090E008952F923F924F92E8
:100A40005F927F928F929F92AF92BF92CF92DF92EE
:100A5000EF92FF920F931F93CF93DF93CDB7DEB743
:100A6000C654D1090FB6F894DEBF0FBECDBF8C01BE
:100A70007B010E94CD0027969FAF8EAF2797CE01B6
:100A80008B5B9F4F0E941301672B09F087C080FD8D
:100A900085C0C8010E94B6008B3549F560E4C701E6
:100AA00004960E946B10D70111961C921E92139609
:100AB0001C921E921297F8018085882359F1C80173
:100AC0000E94B6008B3509F0CAC1D8011A961C9253
:100AD000C8010E94CD009A838983CE0101960E94AD
:100AE0001301672B09F0EEC180FDECC15EC08B37AE
:100AF00071F560E2C70104960E946B10D701119650
:100B00001C921E9213961C921E921297F8018085D9
:100B1000811102C085E054C3C8010E94B6008B3722
:100B200009F09DC1D8011A961C92C8010E94CD00FF
:100B300025969FAF8EAF2597CE018D5B9F4F0E946C
:100B40001301672B09F0A7C180FDA5C199C0C80199
:100B50000E94B600873209F4A5C1823209F4A2C10D
:100B6000C8010E94B600C82E9E012F5F3F4F590159
:100B7000D12C8C2D0E949C00882309F43FC1FFE3F7
:100B8000DF1609F43BC1F8011286D394D501CD924A
:100B90005D01C8010E94B600C82EEBCF26968FAD2E
:100BA000269727969FAD27970CC3C8010E94B600D1
:100BB0008D35B1F1D8016D917C91C7010E94C801BA
:100BC000BC01892B09F451C0F801908591509087A0
:100BD000C8010E941D059A838983D80118968C91BB
:100BE00018978F5F18968C93CE0101960E9413017F
:100BF000672B09F067C180FD65C1C8010E94CD0067
:100C00009A838983CE0101960E941301672B09F014
:100C100059C180FD57C1C8010E94B6008D3539F514
:100C2000F8011286CCC2C8010E94B6008C3209F0CD
:100C300016C1F8011286C8010E94CD0025969FAF0B
:100C40008EAF2597CE018D5B9F4F0E941301672BBE
:100C500009F021C180FD1FC1D8016D917C91C701B0
:100C60000E94C8016C01892B89F483E0A9C2C801E4
:100C70000E94B6008C3209F0F2C0F80112869ACFB9
:100C8000C8010E94B6008D3739F7CACFC8010E944B
:100C9000B600873211F08232A9F4BE016F5B7F4F3C
:100CA000C8010E943A0125969FAF8EAF2597CE01CD
:100CB0008D5B9F4F0E941301672B09F0ECC080FFF2
:100CC0005BC0E9C0D8011696ED91FC91179722817F
:100CD00033818481958193838283FA83E9831C82A3
:100CE0001B823E832D83821B930B98878F83C801C1
:100CF0000E94B600B82E8823E1F18B2D0E949C0043
:100D0000882389F1F80112866B2DCE0101960E948D
:100D10002101C8010E94B600B82E0E949C008111DA
:100D2000F1CF60E0CE0101960E9421018D819E816C
:100D3000892B71F0E981FA818B819C812F81388523
:100D4000821B930B22813381820F931F93838283B3
:100D50008D819E8123969FAF8EAF2397892B31F48F
:100D600083E090E0A0CF82E090E09DCF80E090E033
:100D70009ACF81E090E097CF23962EAD3FAD239799
:100D8000F60184818068848337832683C8010E94AA
:100D9000CD0025969FAF8EAF2597CE018D5B9F4FDF
:100DA0000E941301672B09F076C080FD74C0C80152
:100DB0000E94B6008A3309F052C0D8011A961C92DC
:100DC0001A9718968C911897815018968C93B601A3
:100DD000C8010E941D0525969FAF8EAF2597F8018B
:100DE00080858F5F8087CE018D5B9F4F0E941301AE
:100DF000672B09F050C080FF34C04DC0E1E0F0E047
:100E0000EC0FFD1FED0DF11D10828981843709F46F
:100E100069C0863609F479C08E3609F487C08B32F2
:100E200009F48BC08D3209F08BC08A8177247394CA
:100E30008E3609F4B4C16E01F2E0CF0ED11C8E34AF
:100E400009F4ADC1982F9F7D993409F43DC190ED0F
:100E5000980F9A3008F47AC08E3209F477C082E095
:100E6000AFC1C8010E94CD0025969FAF8EAF2597D8
:100E7000CE018D5B9F4F0E941301672B61F480FDB3
:100E80000AC0C8010E94B6008D3709F0CCCED80147
:100E90001A961C9294C124968FAD249725969FADE7
:100EA00025978FC1BE016F5B7F4FC8010E943A0139
:100EB0009A838983CE0101960E941301672B11F456
:100EC00080FF03C089819A817CC123960EAD1FAD3E
:100ED000239764E0C70104960E946B10D7010D931D
:100EE0001C936DC165E0C70104960E946B1081E000
:100EF00090E0A0E0B0E0F70180839183A283B38308
:100F000090E0F4E0DF125DC116C065E0C701049611
:100F10000E946B10D7011D921D921D921C92139777
:100F200081E090E0B5E0DB124CC105C081E090E0CB
:100F3000E4E0DE1246C180E044C18A81712C78CFA2
:100F4000712C9E012F5F3F4F690179CF812C912C2D
:100F50005401F601819110ED180F1A3028F53AE985
:100F6000831639E99306A30639E1B306F8F4AAE03B
:100F7000B0E0A50194010E949F1F4B015C01812FED
:100F800090E0A0E0B0E0AC01BD01409550956095C7
:100F90007095481559056A057B0540F0880E991E25
:100FA000AA1EBB1E6F01D5CF882339F000E06AE08E
:100FB000262E312C412C512C0EC0C70104967720CF
:100FC00009F4E3C067E00E946B10F7018082918210
:100FD000A282B382F4C08114910480E8A806B1040F
:100FE00050F0C501B401A20191010E9414204901F1
:100FF0005A010F5FF0CFF601D6018D916D0190ED92
:10100000980F9A3010F40F5FF6CF8E3209F56F010A
:10101000BFEFCB1ADB0AF6012FEFC21AD20A1081FA
:1010200010531A30A8F43CEC831693063CE0A30658
:10103000B10488F7AAE0B0E0A50194010E949F1FC7
:101040004B015C01810E911CA11CB11C0150E3CF2E
:1010500020812F7D802F000F990B253409F04AC085
:1010600021812D3219F4329651E006C02B3211F055
:10107000319601C0329650E000E010E06AE0419104
:1010800020ED240F2A3080F5609F9001619F300D84
:101090001124042F440F110B00531109020F131FC9
:1010A0009C01200F311F273231054CF3552361F08D
:1010B000772031F0812C912CA12C50E8B52E75C0F1
:1010C000812C912C540171C0711007C0812C912C7E
:1010D00040E8A42E4FE7B42E68C0812C912C30E854
:1010E000A32EBB24BA9461C0552331F0119501950C
:1010F000110902C000E010E0080F191FC501B4017A
:101100000E94801E4B015C0110161106D4F4D12CF4
:1011100000FF10C084E0D89EF0011124EA5CFE4F6D
:101120002081318142815381C501B4010E94E11EB9
:101130004B015C0115950795D3940115110541F7F5
:101140001DC0119501951109D12C01151105B1F0A2
:1011500000FF10C094E0D99EF0011124E25EFE4F22
:101160002081318142815381C501B4010E94E11E79
:101170004B015C0115950795D394E7CF7720A9F033
:10118000B7FAB094B7F8B09410C066E00E946B1044
:10119000D7018D929D92AD92BC92139710C0812C75
:1011A000912C80ECA82E8FE7B82E68E0C70104963A
:1011B0000E946B10F70180829182A282B38280E04C
:1011C00090E0CA5BDF4F0FB6F894DEBF0FBECDBF15
:1011D000DF91CF911F910F91FF90EF90DF90CF9013
:1011E000BF90AF909F908F907F905F904F903F9077
:1011F0002F900895CF93FC0194819F77983028F425
:10120000953030F49330D8F423C0983059F020C092
:10121000C1E080819181A281B381892B8A2B8B2BA4
:10122000C1F416C0C1E020E030E0A9016081718105
:10123000828193810E947B1E81110BC009C0608155
:1012400071818FE692E00E946723C1E0892B09F04B
:10125000C0E08C2FCF910895CF92DF92EF92FF9252
:10126000CF93DF93009769F06A017B01EC0168E09E
:1012700004960E946B10C882D982EA82FB8281E0C8
:1012800001C080E0DF91CF91FF90EF90DF90CF9091
:101290000895282F3091B203313208F04AC080916E
:1012A0008F038111FCCF90916F0642E040938F0332
:1012B00020938E032FEF20938D0310928C03309395
:1012C0008B03E2E9F3E0ABE6B3E020E0321721F074
:1012D00041914D932F5FFACF10926A0320916A03D8
:1012E000990F922B90936A0390916903913061F466
:1012F0001092690390916A039093BB009091BC0097
:1013000093FDF8CF95EC01C095EE9093BC009091C1
:101310008F039230E1F390918D039F3F79F080919C
:101320008D03803241F080918D03803331F084E071
:1013300005C081E003C082E001C083E01092910308
:101340001092B203109290030895833081F028F434
:10135000813099F08230A1F008958730A9F088306B
:10136000B9F08430D1F4809180008F7D03C08091EA
:1013700080008F7780938000089584B58F7702C0B6
:1013800084B58F7D84BD08958091B0008F7703C0B0
:101390008091B0008F7D8093B000089580918F037D
:1013A0008111FCCF413208F040E281E080938F034D
:1013B00080938E039FEF90938D0310928C03940F74
:1013C00090938B0380936A0380916A03660F682B66
:1013D00060936A0380916903813061F4109269031C
:1013E00080916A038093BB008091BC0083FDF8CF9D
:1013F00085EC01C085EE8093BC0080918F03813025
:10140000E1F380918C03841710F440918C03EBE698
:10141000F3E0A9E4B3E080E0841721F091919D937B
:101420008F5FFACF10924803809347030895009787
:1014300069F0FC0101900020E9F73197AF01481BEA
:10144000590BBC0183EB93E00C94681180E090E0B1
:101450000895CF93DF930E94170AEC0182E292E095
:101460000E94170A8C0F9D1FDF91CF910895BF92A4
:10147000CF92DF92EF92FF920F931F93CF93DF9360
:10148000EC016B018D85811105C0CE010E94D10E4A
:10149000811105C01B861D861C8680E060C040E06F
:1014A00060EFCE010E94341301E0E12CB12C11E079
:1014B000CE010E947E0EF82ECE010E947E0E91E09B
:1014C000F91203C08130B1F434C02E2D30E0F8128F
:1014D0001BC08B85181738F4FE01E20FF31F8381C0
:1014E000802341F402C0811729F0F12C193058F4FF
:1014F0001C8709C0FE01EE0DF11D8381802B8383C3
:10150000FF24F39409C0B12EFE01E20FF31F938173
:10151000802F8095892383836F2DCE010E94A20E98
:101520001F5F000F11F4E39401E087E08E1508F0CF
:10153000BFCF113408F4AECFBB86B11002C081E03A
:101540008D878B81882309F4A5CFDE011396F601E0
:101550002B968D918193CA17DB07D9F781E0DF9134
:10156000CF911F910F91FF90EF90DF90CF90BF90A0
:1015700008950F931F93CF93DF93CDB7DEB72B97CB
:101580000FB6F894DEBF0FBECDBF8C0180918A04E8
:1015900090918B0490938D0480938C04809190049F
:1015A0009091910490938F0480938E0460E086E97B
:1015B00094E00E946B10F801248135818081918133
:1015C000009711F487E991E04AE854E05A8349838F
:1015D0009C838B83820F931F9E838D8358874F83B9
:1015E0008AE089871B8662E974E0CE0101960E9439
:1015F0001D052B960FB6F894DEBF0FBECDBFDF9151
:10160000CF911F910F9108950F931F930E94591529
:101610006093BB037093BC038093BD039093BE03A0
:1016200083EB93E00E94A11197FF1FC00E94591500
:101630000091BB031091BC032091BD033091BE0308
:10164000DC01CB01801B910BA20BB30B0091B70304
:101650001091B8032091B9033091BA038017910714
:10166000A207B307E8F28FEF9FEF1F910F91089544
:10167000CF93DF9300D000D0CDB7DEB723EB33E0BC
:101680003A8329831C821B82089631F0BE016F5F6A
:101690007F4F0E94500206C06FE971E0CE010196B3
:1016A0000E9416118B819C810F900F900F900F90CC
:1016B000DF91CF9108958F929F92AF92BF92CF9278
:1016C000DF92EF92FF920F931F93CF93DF93CDB7EB
:1016D000DEB7A1970FB6F894DEBF0FBECDBF6C0189
:1016E000990FEE08FF08F7FE2BC06DE283EB93E045
:1016F0000E94FB118C0122273327A9012C193D09D7
:101700004E095F0919A2CE0181967C019AE0892ECB
:10171000912CA12CB12CCA01B901A50194010E9400
:101720001420605DF70162937F01211531054105A9
:10173000510589F7CF010E94170A080F191F1EC013
:10174000A701960119A28E010F5D1F4F8AE0C82ED6
:10175000D12CE12CF12CCA01B901A70196010E94FC
:101760001420605DF80162938F0121153105410558
:10177000510589F7CF010E94170A8C0182E292E09D
:101780000E94170A800F911FA1960FB6F894DEBF32
:101790000FBECDBFDF91CF911F910F91FF90EF90C2
:1017A000DF90CF90BF90AF909F908F900895CF9390
:1017B000DF93282F30E0F901E458FF4F8491F901BD
:1017C000E255FF4FD491F901E656FF4FC491CC2367
:1017D00091F081110E94A509EC2FF0E0EE0FFF1FA0
:1017E000E057FF4FA591B491EC91ED2381E090E09B
:1017F00021F480E002C080E090E0DF91CF91089575
:101800001F93CF93DF93282F30E0F901E458FF4F67
:101810008491F901E255FF4FD491F901E656FF4F4B
:10182000C491CC23C1F0162F81110E94A509EC2F81
:10183000F0E0EE0FFF1FEE58FF4FA591B4919FB758
:10184000F894111104C08C91D095D82302C0EC916A
:10185000DE2BDC939FBFDF91CF911F9108950F93F3
:101860001F93CF93DF93EC01062F142F8091340642
:101870008823B9F0813009F06EC0809137069091CD
:1018800038060E94100F60E0809136060E94000C1E
:10189000802F80680E94090FCE01810F911D8C015D
:1018A00047C080916806813009F055C09091350697
:1018B0008093900390936F06109291031092B2035D
:1018C0008091690690916A06DC01ED91FC9101908E
:1018D000F081E02D099581E00E944909412F609136
:1018E00035068091690690916A060E94CE09CE0164
:1018F000810F911D8C018091690690916A06DC012F
:10190000ED91FC910084F185E02D0995892B19F169
:10191000C017D10701F18091690690916A06DC0138
:10192000ED91FC910284F385E02D09958993E3CF35
:10193000C017D10729F080E00E94090F8993F8CFE2
:1019400061E0809136060E94000CDF91CF911F91DB
:101950000F910C94080FDF91CF911F910F91089573
:10196000CF93DF931F92CDB7DEB7682F1982809196
:101970003406882349F0813009F045C041E0CE01AA
:1019800001960E942F0C3FC0809168068130D9F5E6
:10199000909135068093900390936F061092910377
:1019A0001092B2038091690690916A06DC01ED9174
:1019B000FC910190F081E02D099581E00E94490998
:1019C00041E0609135068091690690916A060E9417
:1019D000CE098091690690916A06DC01ED91FC9137
:1019E0000084F185E02D0995892B69F080916906C5
:1019F00090916A06DC01ED91FC910284F385E02D63
:101A000009958983E6CF89810F90DF91CF91089561
:101A1000CF93DF93D82FC62F809134068823F1F01F
:101A2000813009F046C080913706909138060E94B7
:101A3000100F60E0809136060E94000C8D2F8F778A
:101A40000E94090F8C2F0E94090F61E080913606D9
:101A50000E94000CDF91CF910C94080F80916806D2
:101A6000813039F5909135068093900390936F06FD
:101A7000109291031092B2038091690690916A06C8
:101A8000DC01ED91FC910190F081E02D6D2F099525
:101A90008091690690916A06DC01ED91FC910190BC
:101AA000F081E02D6C2F099581E0DF91CF910C94AE
:101AB0004909DF91CF910895CF93C82F843008F062
:101AC000C0E084EF0E94B00C8C7F682F6C2B84EFF9
:101AD000CF910C94080DCF93DF9390E0FC01E25579
:101AE000FF4F2491FC01E656FF4F8491882361F15A
:101AF00090E0880F991FFC01E859FF4FC591D491E0
:101B0000FC01EE58FF4FA591B491611109C09FB738
:101B1000F8948881209582238883EC912E230BC032
:101B2000623061F49FB7F8948881322F3095832317
:101B30008883EC912E2B2C939FBF06C08FB7F8940F
:101B4000E8812E2B28838FBFDF91CF9108958E30AF
:101B500008F08E508770806480937C0080917A00BA
:101B6000806480937A0080917A0086FDFCCF80911A
:101B700078002091790090E0922B089585ED809374
:101B8000BC008091BC0084FDFCCF10928F030895AF
:101B900040919E06262F30E0240F311D2132310561
:101BA000DCF420918F032430C9F4FC0180E090E044
:101BB000861758F430919E062191DC01A258B94F46
:101BC000A30FB11D2C930196F3CF80919E06680F51
:101BD00060939E0680E0089581E0089582E0089574
:101BE000089508950895E091480380914703E81708
:101BF00030F4F0E0E75BFC4F808190E008958FEFD8
:101C00009FEF08959091480380914703981750F4EF
:101C1000E92FF0E0E75BFC4F208130E09F5F90937D
:101C2000480302C02FEF3FEFC90108958091470399
:101C300090E020914803821B91090895CF92DF9292
:101C4000EF92FF920F931F93CF93DF937C01CB0111
:101C50008A0120919003222389F0EB016B01C40ECD
:101C6000D51ECC15DD0569F06991D701ED91FC9188
:101C70000190F081E02DC7010995F3CF642F0E94F8
:101C8000C80DC801DF91CF911F910F91FF90EF9088
:101C9000DF90CF900895CF93DF931F92CDB7DEB73B
:101CA0006983209190032223D1F02091B203203246
:101CB00040F021E030E0FC013383228380E090E0BB
:101CC00015C080919103E82FF0E0EE56FC4F99810A
:101CD00090838F5F809391038093B20305C061E08E
:101CE000CE0101960E94C80D81E090E00F90DF9137
:101CF000CF910895089580E090E00895FC019081CF
:101D00000180F281E02DF8948181892B81832281E9
:101D1000892F809528232283A7E0B0E01197F1F75F
:101D2000218182238183A3E2B0E01197F1F78081C2
:101D30007894EFECF0E03197F1F7982381E009F423
:101D400080E00895FC0190810180F281E02D892FCF
:101D5000809560FF12C0F894228182238283818162
:101D6000892B8183A3E2B0E01197F1F78281982B50
:101D70009283789487ED90E011C0F89422818223B9
:101D800082838181892B8183AFEFB0E01197F1F7D6
:101D90008281982B928378948FE090E00197F1F7FD
:101DA0000895DC012C911196ED91FC911297F89415
:101DB0008181922F90958923818378948DE743E0E8
:101DC00050E0815021F1DA011197F1F7308132238F
:101DD000C1F3F8948281892382838181822B81835C
:101DE0007894ABE7B7E01197F1F7F89481819823E5
:101DF000918383E191E00197F1F78081282381E0CD
:101E000009F080E07894E3E6F6E03197F1F7089581
:101E100008958EBD00000DB407FEFDCF8EB5089568
:101E20008CBD9DBD08951F920F920FB60F92112485
:101E30002F933F934F935F936F937F938F939F93D2
:101E4000AF93BF93EF93FF938091B900887F803663
:101E500009F49CC068F5883209F45BC090F48031C5
:101E600009F454C038F4882309F4F6C0883009F422
:101E70004DC0F6C0883109F44CC0803209F45DC011
:101E8000EFC0803409F468C048F4803309F455C0C9
:101E9000883309F0E5C080938D03D8C0803509F4FC
:101EA0004FC0883509F45DC0883409F0D9C0D6C068
:101EB000883909F4C7C0A8F4883709F467C038F432
:101EC000883609F463C0803709F460C0C9C0883817
:101ED00009F4B8C0803909F45FC0803809F0C0C087
:101EE0005BC0803B09F486C038F4803A09F466C0D0
:101EF000883A09F47FC0B4C0803C09F4A7C0883C8C
:101F000009F4A4C0883B09F48AC0AAC080916A037E
:101F100010C090918C0380918B03981770F5E0911D
:101F20008C0381E08E0F80938C03F0E0E559FC4F29
:101F300080818093BB0085EC86C080938D038EC02A
:101F4000E0918C0381E08E0F80938C038091BB0025
:101F5000F0E0E559FC4F808390918C0380918B03D6
:101F60006EC0E0918C0381E08E0F80938C03809192
:101F7000BB00F0E0E559FC4F808380918E03811116
:101F80006DC081E08093690384EA61C083E080933F
:101F90008F031092C006CFCF8091C006803208F028
:101FA00051C0E091C00681E08E0F8093C006809101
:101FB000BB00F0E0E056F94F8083BDCF85EC809305
:101FC000BC0010928F038091C006803230F4E09103
:101FD000C006F0E0E056F94F10826091C00670E054
:101FE000E0913003F091310380EA96E00995109278
:101FF000C00636C084E080938F0310929F06109233
:102000009E06E0913203F0913303099580919E067C
:10201000811105C081E080939E0610927E06E091BA
:102020009F0681E08E0F80939F06F0E0E258F94F03
:1020300080818093BB0090919F0680919E069817A7
:1020400008F479CF85E88093BC000AC085EC8093C2
:10205000BC0010928F0304C010928D030E94BE0D2D
:10206000FF91EF91BF91AF919F918F917F916F9170
:102070005F914F913F912F910F900FBE0F901F9046
:1020800018950F931F93CF93DF93EC018B0120974B
:10209000E1F06E817F810115110519F0611571055F
:1020A00021F46017710731F410C0C8010E94672342
:1020B000892B59F08D81882331F098E08902C00D79
:1020C000D11D1124E4CFC0E0D0E0CE01DF91CF914B
:1020D0001F910F910895FC0190819078692B608386
:1020E0000895CF93DF93EC0188819981461B570BAC
:1020F000DC01ED91FC910280F381E02D09952A81AC
:102100003B81820F931F9B838A83DF91CF91089538
:10211000EF92FF921F93CF93DF93CDB7DEB7669711
:102120000FB6F894DEBF0FBECDBF9C01CB01FE0100
:1021300077964E2F1F2F5AE0E52EF12CB7010E9403
:102140000020805D8293CB010097C1F7512FBF0122
:10215000C9010E94711066960FB6F894DEBF0FBEDB
:10216000CDBFDF91CF911F91FF90EF900895CF9356
:10217000DF93EC0188819981DC01ED91FC91019064
:10218000F081E02D09952A813B81820F931F9B836B
:102190008A83DF91CF9108958F929F92AF92BF92E1
:1021A000CF92DF92EF92FF920F931F93CF93DF9323
:1021B000CDB7DEB766970FB6F894DEBF0FBECDBFC2
:1021C0007C018E01095E1F4F68018AE0882E912CE8
:1021D000A12CB12CCB01BA01A50194010E941420BD
:1021E000942F852F605DF80162938F01A901692FFB
:1021F000782F411551056105710561F7A601BF01F1
:10220000C7010E94711066960FB6F894DEBF0FBE2C
:10221000CDBFDF91CF911F910F91FF90EF90DF9095
:10222000CF90BF90AF909F908F900895CF93DF9302
:10223000EC0188819981FB0101900020E9F7319739
:10224000AF01461B570BDC01ED91FC910280F3813D
:10225000E02D09952A813B81820F931F9B838A83FE
:10226000DF91CF910895FF920F931F93CF93DF9348
:102270006115710549F46FE971E0DF91CF911F910C
:102280000F91FF900C9416118B01EC0162E2CE01CC
:102290000E94B710F80161918F01662351F0E9E8BF
:1022A000F1E0F080FF2099F38181681759F03296B0
:1022B000F8CF62E2CE01DF91CF911F910F91FF9095
:1022C0000C94B7106CE5CE010E94B7106F2DDFCFD4
:1022D000CF92DF92EF92FF920F931F93CF93DF93F2
:1022E0006C017A018B01C0E0D0E0CE15DF0581F0F2
:1022F000D8016D918D01D601ED91FC910190F08195
:10230000E02DC6010995892B11F02196EECF7E01B3
:10231000C701DF91CF911F910F91FF90EF90DF9058
:10232000CF900895FC01538D448D252F30E0842FEC
:1023300090E0821B930B541710F0CF9608950197ED
:102340000895FC01918D828D981761F0828DDF01D7
:10235000A80FB11D5D968C91928D9F5F9F73928F98
:1023600090E008958FEF9FEF0895FC01918D828D8D
:10237000981731F0828DE80FF11D858D90E008955A
:102380008FEF9FEF0895FC01918D228D892F90E0B2
:10239000805C9F4F821B91098F739927089583EB6F
:1023A00093E00E94C31121E0892B09F420E0822FE1
:1023B0000895FC01848DDF01A80FB11DA35ABF4F02
:1023C0002C91848D90E001968F739927848FA68934
:1023D000B7892C93A089B1898C91837080648C9388
:1023E000938D848D981306C00288F389E02D808137
:1023F0008F7D80830895EF92FF920F931F93CF9369
:10240000DF93EC0181E0888F9B8D8C8D981305C044
:10241000E889F989808185FD26C0F62E0B8D10E0B4
:102420000F5F1F4F0F731127E02E8C8DE8120CC029
:102430000FB607FCFACFE889F989808185FFF5CFCF
:10244000CE010E94D911F1CF8B8DFE01E80FF11D55
:10245000E35AFF4FF0829FB7F8940B8FEA89FB890C
:10246000808180620AC09FB7F894EE89FF896083FB
:10247000E889F98980818370806480839FBF81E0CF
:1024800090E0DF91CF911F910F91FF90EF90089511
:10249000CF93DF93EC01888D8823C9F0EA89FB890B
:1024A000808185FD05C0A889B9898C9186FD0FC002
:1024B0000FB607FCF5CF808185FFF2CFA889B989D7
:1024C0008C9185FFEDCFCE010E94D911E7CFDF912E
:1024D000CF9108950E94CF1181110C94FB010895B2
:1024E0000E9459230F931F93CF93DF93EC018881B0
:1024F0009981009729F02A813B812617370788F4B4
:102500008B016F5F7F4F0E949322009761F0998348
:1025100088831B830A832C813D81232B11F4FC01CA
:10252000108281E001C080E0DF91CF911F910F9177
:102530000895EF92FF920F931F93CF93DF93EC01D7
:102540007B018A01BA010E947212288139818111AE
:102550000DC02115310519F0C9010E940A22198206
:1025600018821D821C821B821A8206C01D830C8366
:10257000B701C9010E947023CE01DF91CF911F9155
:102580000F91FF90EF9008951F920F920FB60F9248
:1025900011242F933F934F935F936F937F938F9368
:1025A0009F93AF93BF93EF93FF9383EB93E00E94CE
:1025B000D911FF91EF91BF91AF919F918F917F9131
:1025C0006F915F914F913F912F910F900FBE0F90A0
:1025D0001F9018951F920F920FB60F9211242F93F0
:1025E0008F939F93EF93FF93E091C303F091C40304
:1025F0008081E091C903F091CA0382FD12C09081ED
:102600008091CC038F5F8F732091CD03821751F09F
:10261000E091CC03F0E0ED54FC4F958F8093CC0318
:1026200001C08081FF91EF919F918F912F910F9029
:102630000FBE0F901F901895DC0180E0615098F05C
:102640002D91982F9227E92FEF70F0E0EE53FF4F76
:10265000249192959F70E92FF0E0EE52FF4FE491A4
:10266000822F8E27EBCF0895DF92EF92FF920F9388
:102670001F93CF93DF93EC01D62EE42E08E010E0F9
:10268000FF24F39461E08D2D8F2109F460E0CE01E9
:102690000E94A20EFF0C01501109A1F7E11010C019
:1026A000F894E981FA8191818881809589238183D9
:1026B000E981FA8192818881809589238283789447
:1026C000DF91CF911F910F91FF90EF90DF900895D0
:1026D000CF92DF92EF92FF92CF93DF93EC01898547
:1026E0009A850E94D10E40E06CEC89859A850E9403
:1026F0003413488164E489859A850E9434138C815F
:10270000882309F447C08D818823D9F088818111FD
:1027100018C00E9459156B017C0189859A850E9419
:102720007E0E8130B9F10E945915DC01CB018C1964
:102730009D09AE09BF098E3E9240A105B10568F31F
:1027400029C0EB81E950E33040F4F0E0EE0FFF1FC9
:10275000ED57FE4F8081918102C08EEE92E06C01B8
:10276000E12CF12C8981882321F060E08A810E948C
:10277000000CC701B6010E941F158981882351F002
:1027800061E08A81DF91CF91FF90EF90DF90CF9051
:102790000C94000CDF91CF91FF90EF90DF90CF90E1
:1027A0000895EF92FF920F931F93CF93DF938C01C5
:1027B0007B0140E065E50E943413E70188E0E80E04
:1027C000F11C699140E0C8010E943413CE15DF0569
:1027D000C1F7DF91CF911F910F91FF90EF90089576
:1027E0004F925F926F927F928F929F92AF92BF9221
:1027F000CF92DF92EF92FF920F931F93CF93DF93CD
:102800008C017B01EA01FC01818592850E94D10E39
:10281000882309F443C0B701F801818592850E949D
:10282000D11340E06EEBF801818592850E9434134C
:102830007E015E01F9E0AF0EB11C6E01F80161840A
:10284000728488E0882E912C512C44244394C30137
:102850000E947E0E81115428440CF1E08F1A9108D9
:10286000B1F7F60151926F01AE16BF0639F7F801C4
:10287000818592850E94D10E813081F4F70181918A
:102880007F01811104C0EA15FB05C1F707C068E0AC
:10289000CE010E941C1391E02885281390E0892F17
:1028A000DF91CF911F910F91FF90EF90DF90CF902C
:1028B000BF90AF909F908F907F906F905F904F9060
:1028C0000895EF92FF920F931F93CF93DF93CDB7AD
:1028D000DEB761970FB6F894DEBF0FBECDBF7C01A7
:1028E000062FDC011996ED91FC911A971386158637
:1028F0001486DF011B9633961E92AE17BF07E1F7D1
:1029000010E0BE01665F7F4FF701818592850E94CE
:10291000370A882369F0011308C067E0CE010A96E0
:102920000E941C139989891741F01F5F011748F70E
:1029300060E070E08EEF92EC50C0AE014F5F5F4FF1
:10294000BE01665F7F4FC7010E94F013882309F420
:1029500041C02A8130E0C901982F8827990F990F2B
:10296000990F6981F8E06F9FB00111249C01262B1B
:10297000372B8A858031D9F468856623C1F070E0F1
:102980008F81AB01481B5109CA019695982F882762
:10299000979587950E94002060527109207F53E02F
:1029A000220F331F5A95E1F7620F731F01C0B9015F
:1029B000613854EE75070CF4BBCF072E000C880B62
:1029C000990B0E94821E20E030E040E05CE30E9410
:1029D000E11E03C060E874EEEBCF61960FB6F89489
:1029E000DEBF0FBECDBFDF91CF911F910F91FF9042
:1029F000EF9008953FB7F8948091C6069091C7066E
:102A0000A091C806B091C90626B5A89B05C02F3F66
:102A100019F00196A11DB11D3FBFBA2FA92F982F04
:102A20008827820F911DA11DB11DBC01CD0142E07F
:102A3000660F771F881F991F4A95D1F708958F92C7
:102A40009F92AF92BF92CF92DF92EF92FF926B0173
:102A50007C010E94FA144B015C01C114D104E10411
:102A6000F104F1F00E94FA14DC01CB0188199909F4
:102A7000AA09BB09883E9340A105B10570F321E086
:102A8000C21AD108E108F10888EE880E83E0981E8A
:102A9000A11CB11CC114D104E104F10419F7DDCF6C
:102AA000FF90EF90DF90CF90BF90AF909F908F906E
:102AB00008952FB7F8946091C2067091C306809173
:102AC000C4069091C5062FBF08951F920F920FB6AE
:102AD0000F9211242F933F938F939F93AF93BF93A4
:102AE0008091C2069091C306A091C406B091C5061C
:102AF0003091C10623E0230F2D3720F40196A11D4C
:102B0000B11D05C026E8230F0296A11DB11D20931B
:102B1000C1068093C2069093C306A093C406B093E7
:102B2000C5068091C6069091C706A091C806B091CF
:102B3000C9060196A11DB11D8093C6069093C706D4
:102B4000A093C806B093C906BF91AF919F918F9192
:102B50003F912F910F900FBE0F901F901895FC0181
:102B60000D969183808393838283009721F09F0148
:102B70002B523F4F02C020E030E035832483892B65
:102B800021F0CF018B529F4F02C080E090E09783ED
:102B9000868360E0CF010C960C946B10CF93DF938B
:102BA000CDB7DEB76D970FB6F894DEBF0FBECDBFC1
:102BB000789484B5826084BD84B5816084BD85B518
:102BC000826085BD85B5816085BD80916E00816024
:102BD00080936E00109281008091810082608093CA
:102BE00081008091810081608093810080918000CC
:102BF0008160809380008091B10084608093B100F7
:102C00008091B00081608093B00080917A008460F0
:102C100080937A0080917A00826080937A0080911C
:102C20007A00816080937A0080917A008068809336
:102C30007A001092C100E091C303F091C40382E0D6
:102C40008083E091BF03F091C0031082E091C10343
:102C5000F091C2038FEC80831092CB03E091C70305
:102C6000F091C80386E08083E091C503F091C6032C
:102C7000808180618083E091C503F091C6038081EB
:102C800088608083E091C503F091C60380818068ED
:102C90008083E091C503F091C60380818F7D80839E
:102CA0001092480310924703109291031092B203BE
:102CB00010928F0381E080938E031092690361E08C
:102CC00082E10E94000C61E083E10E94000C80918F
:102CD000B9008E7F8093B9008091B9008D7F809379
:102CE000B90088E48093B80085E48093BC0080EF4D
:102CF0009DE0909333038093320381EF9DE09093A6
:102D0000310380933003E0917C04F0917D041386BD
:102D100015861486DF011B9633961E92EA17FB0771
:102D2000E1F710927A0410927B0411E0BE01665F15
:102D30007F4F80917C0490917D040E94370A882304
:102D4000F1F067E0CE010A960E941C13998989135D
:102D5000EDCF80917A048F5F80937A048A858832E0
:102D600009F42CC230F4803109F428C28232F1F621
:102D700025C28B3309F422C28234C1F61FC261E03E
:102D800086E00E946B0D61E087E00E946B0D61E0C0
:102D900085E00E946B0D61E084E00E946B0D61E0B4
:102DA00088E00E946B0D60E083E00E946B0D60E0A4
:102DB00082E00E946B0D60E08AE00E946B0D80E56E
:102DC00094E090936A068093690681E08093680698
:102DD0001092340662E070E080E090E00E941F15DF
:102DE00080913406813009F03DC01FB7F89480917E
:102DF0003403811127C0E4EAF0E08491E8EBF0E0CD
:102E00009491E82FF0E0EE0FFF1FE859FF4FA591D6
:102E1000B491EC91E92321F461E08AE00E94000C76
:102E200061E08AE00E946B0D8CB580618CBD8CB531
:102E300080648CBD61E08DE00E946B0D61E08BE0F1
:102E40000E946B0D809134038F5F809334031FBF0A
:102E500061E0809136060E946B0D61E0809136063C
:102E60000E94000C80ED0E94B00C883519F080366D
:102E700009F004C289E80E94B00C182F88E80E946B
:102E8000B00C212F30E0322F2227280F311D309334
:102E90004406209343068BE80E94B00C182F8AE862
:102EA0000E94B00C212F30E0322F2227280F311D35
:102EB00030934606209345068DE80E94B00C182FEB
:102EC0008CE80E94B00C212F30E0322F2227280FEF
:102ED000311D30934806209347068FE80E94B00CBE
:102EE000182F8EE80E94B00C212F30E0322F2227BD
:102EF000280F311D30934A062093490681E90E942C
:102F0000B00C182F80E90E94B00C212F30E0322F36
:102F10002227280F311D30934C0620934B0683E95E
:102F20000E94B00C182F82E90E94B00C212F30E0D3
:102F3000322F2227280F311D30934E0620934D0645
:102F400085E90E94B00C182F84E90E94B00C212F53
:102F500030E0322F2227280F311D30935006209366
:102F60004F0687E90E94B00C182F86E90E94B00C2A
:102F7000212F30E0322F2227280F311D30935206A7
:102F80002093510689E90E94B00C182F88E90E940D
:102F9000B00C212F30E0322F2227280F311D309323
:102FA0005406209353068BE90E94B00C182F8AE92F
:102FB0000E94B00C212F30E0322F2227280F311D24
:102FC00030935606209355068DE90E94B00C182FB9
:102FD0008CE90E94B00C212F30E0322F2227280FDD
:102FE000311D30935806209357068FE90E94B00C8C
:102FF000182F8EE90E94B00C212F30E0322F2227AB
:10300000280F311D30935A062093590681EA0E94F9
:10301000B00C80935B0682EE0E94B00C182F81EEFC
:103020000E94B00C212F30E0322F2227280F311DB3
:1030300030935D0620935C0683EE0E94B00C809373
:103040005E0684EE0E94B00C182F85EE0E94B00C34
:103050008F7090E020E1129F800D911D11249093BC
:10306000600680935F0686EE0E94B00C182F85EEF6
:103070000E94B00C82958F7090E0E0E11E9F800D61
:10308000911D1124909362068093610687EE0E9441
:10309000B00C8093630610913A06183008F010E0E7
:1030A00085EF0E94B00CF0E21F9F900111248F71F8
:1030B000682F622B85EF0E94080D10913B06183097
:1030C00008F010E085EF0E94B00C94E0199F900189
:1030D0001124837E682F622B85EF0E94080DE091FA
:1030E0003D06E13128F4F0E0E25BFE4F108101C0C3
:1030F00011E084EF0E94B00C082F80E00E945C0D6C
:1031000084EF0E94B00CE4E01E9F90011124837EA6
:10311000682F622B84EF0E94080D802F83700E941D
:103120005C0DE0913E06E13128F4F0E0E25BFE4FF9
:10313000108101C011E084EF0E94B00C082F80E0E4
:103140000E945C0D82EF0E94B00C887F682F612B7B
:1031500082EF0E94080D802F83700E945C0DE09129
:103160003C06E13128F4F0E0E25BFE4F108101C043
:1031700011E084EF0E94B00C082F80E00E945C0DEB
:1031800084EF0E94B00CF0E21F9F900111248F7118
:10319000682F622B84EF0E94080D802F83700E949D
:1031A0005C0D83E00E945C0D80ED0E94B00C8835C0
:1031B00009F461C0803609F061C05DC080917B0474
:1031C0008F5F80937B0480917304811126C080916E
:1031D0007C0490917D040E94D10EBE01665F7F4FFA
:1031E00080917C0490917D040E94D11340E064EBB7
:1031F00080917C0490917D040E94341380917C0422
:1032000090917D040E947E0E082F80917C04909105
:103210007D040E94D10E002359F18A858031F9F096
:10322000AE014F5F5F4FBE01665F7F4F83E794E063
:103230000E94F013882379F08D818F3351F020F4B0
:103240008F3149F489E00CC08F3539F08F3739F070
:1032500002C08AE005C080E003C08BE001C08CE0C2
:1032600090917604981708F061CD809376045ECD36
:1032700010937304D2CF87ED92E002C08FEE92E0FC
:103280000E94290A0E945915209145033091460356
:10329000621B730B603D77400CF447C342E06DEF57
:1032A000CE0101960E942F0C409064065090650656
:1032B00060906606709067068CE2581A81E0680A92
:1032C0007108C980DA80DC24CD24DC24E12CF12CC7
:1032D0004EE0CC0CDD1CEE1CFF1C4A95D1F7809112
:1032E0005F0690916006092E000CAA0BBB0B54E1FF
:1032F000880F991FAA1FBB1F5A95D1F7C81AD90A60
:10330000EA0AFB0AA0916106B0916206A30192014C
:103310000E943620C61AD70AE80AF90A90E4D90EA4
:10332000E11CF11C6FE0F594E794D794C7946A957B
:10333000D1F7A0915E06B0E00E949F1F4B015C0197
:103340007BE0B594A794979487947A95D1F7E0E8B9
:103350009E0EA11CB11CA09163060A2E000CBB0B93
:103360000E943620EAE09595879577956795EA95CE
:10337000D1F7A50194010E94F01FDC01CB01FAE016
:10338000B595A79597958795FA95D1F79C01AD01CD
:10339000405E5F4FA0915C06B0915D060E943620B2
:1033A000DC01CB01905EAF4FBF4FBC01CD01AEE061
:1033B0009595879577956795AA95D1F7A701960179
:1033C0000E94F01F6B017C01BFE095958795779572
:1033D0006795BA95D1F79B01AC010E94F01F9B0144
:1033E000AC0117E055954795379527951A95D1F774
:1033F000A0915B06B0E00E949F1FDC01CB0104E0BE
:10340000B595A795979587950A95D1F72601370128
:10341000481A590A6A0A7B0A77FE03C0412C512CCC
:10342000320143E06AEFCE0101960E942F0C298100
:10343000822F90E0A0E0B0E0AC01BD013CE0440F81
:10344000551F661F771F3A95D1F78A8190E0A0E05B
:10345000B0E0E4E0880F991FAA1FBB1FEA95D1F7DF
:10346000482B592B6A2B7B2B8B8182958F70482B95
:103470008091430690914406A0E0B0E06A017B0190
:10348000F4E0F594E794D794C794FA95D1F7C81A65
:10349000D90AEA0AFB0A13E075956795579547958F
:1034A0001A95D1F7880F991FAA1FBB1F9A01AB016C
:1034B000281B390B4A0B5B0BA0914506B0914606C1
:1034C0000E9436204B015C018BE0B594A794979441
:1034D00087948A95D1F7A7019601C701B6010E948A
:1034E000F01F9B01AC019CE05595479537952795BA
:1034F0009A95D1F7A0914706B09148060E943620D0
:10350000DC01CB012EE0B595A795979587952A9577
:10351000D1F7A5019401280F391F4A1F5B1F209383
:103520006406309365064093660650936706A5E0EF
:10353000B0E00E949F1FDC01CB0180589F4FAF4F2E
:10354000BF4F692F7A2F8B2F992787FD9A950E945D
:10355000821E20E030E048EC52E40E94C520209119
:103560003F063091400640914106509142060E942C
:1035700059206A8F7B8F8C8F9D8F83E794E00E9408
:1035800068138CE594E00E9468138EE00E94A70DFA
:10359000BC01990F880B990B0E94821E20E030E03D
:1035A00048EC52EC0E94E11E20E030EC4FE754E47E
:1035B0000E94C52020E030E048EC52E40E945920EF
:1035C0004B015C016093390370933A0380933B0392
:1035D00090933C038FE00E94A70DBC01990F880BCC
:1035E000990B0E94821E20E030E048EC52EC0E94D1
:1035F000E11E20E030EC4FE754E40E94C52020E0BB
:1036000030E048EC52E40E9459206B017C01609349
:10361000350370933603809337039093380360E04B
:1036200083E794E00E9461146A8B7B8B8C8B9D8B6B
:1036300061E08CE594E00E9461146E8B7F8B888F33
:10364000998F83E00E94D70B22242394892B09F4BD
:10365000212C2092400382E00E94D70B3324339424
:10366000892B09F4312C30923F038AE00E94D70B5A
:1036700021E0892B09F420E020933D034FE555E03C
:103680006DEA71E087E695E00E94DA048C01D301CF
:10369000C201F1E04F1651046104F9E17F0624F004
:1036A00080E090E0A0E0B9E1BC01CD012CE095956F
:1036B0008795779567952A95D1F70E94821E20E01D
:1036C00030E040E85AE30E94E11E20E030E048ECA0
:1036D00052E40E94E11E0E943721072E000C880B45
:1036E000990B0E94821E20E030E048EC52E40E94D8
:1036F000C520AB01BC01C8010E942C094FE555E073
:1037000061EB71E087E695E00E94DA044A8D5B8DFB
:103710006C8D7D8D0E942C094FE555E066EB71E0C4
:1037200087E695E00E94DA048C0120E030E048EC66
:1037300052E46A897B898C899D890E94E11E0E94DE
:103740003721072E000C880B990B0E94821E20E067
:1037500030E048EC52E40E94C520AB01BC01C80136
:103760000E942C094FE555E062EC71E087E695E098
:103770000E94DA048C0120E030E048EC52E46E89CB
:103780007F89888D998D0E94E11E0E943721072E26
:10379000000C880B990B0E94821E20E030E048EC60
:1037A00052E40E94C520AB01BC01C8010E942C0953
:1037B0004FE555E06DEC71E087E695E00E94DA0494
:1037C0008C0120E030E048EC52E4C501B4010E94D5
:1037D000E11E0E943721072E000C880B990B0E94D6
:1037E000821E20E030E048EC52E40E94C520AB018C
:1037F000BC01C8010E942C094FE555E068ED71E05D
:1038000087E695E00E94DA048C0120E030E048EC85
:1038100052E4C701B6010E94E11E0E943721072E23
:10382000000C880B990B0E94821E20E030E048ECCF
:1038300052E40E94C520AB01BC01C8010E942C09C2
:103840004FE555E062EE71E087E695E00E94DA040C
:103850008C01009769F065E004960E946B10822D40
:1038600090E0A0E0B0E0F80180839183A283B3836D
:103870004FE555E06DEE71E087E695E00E94DA04D1
:103880008C01009769F065E004960E946B10832D0F
:1038900090E0A0E0B0E0F80180839183A283B3833D
:1038A0001A8219821C821B821E821D8249E250E00C
:1038B00068EF71E0CE0101960E9499126AE0CE0194
:1038C00001960E94B90A8AE894E00E94380B82E2CD
:1038D00092E00E94170A8FE595E00E94380B82E281
:1038E00092E00E94170A80914203909143030E9444
:1038F0005B0B85E292E00E94170A80913E0390E004
:103900000E945B0B8DE292E00E94170A80913D03BA
:1039100090E00E945B0B0E945915709346036093E0
:10392000450389819A810E940A226CE372E082E950
:1039300094E00E941105009731F00E94FA08882354
:1039400011F061E001C060E086E00E94000C61E4DB
:1039500072E082E994E00E941105009731F00E9424
:10396000FA08882311F061E001C060E088E00E945D
:10397000000C67E472E082E994E00E941105009770
:1039800041F00E94FA08882321F091E090934403CB
:1039900003C01092440380E09091440320914103BE
:1039A000992309F472C0882309F46FC0409142033F
:1039B00050914303433051050CF067C02111ABC057
:1039C00080914003811114C080913F03811110C088
:1039D000452B71F461E084E00E94000C8DE492E0DC
:1039E0000E94290A81E090E0909343038093420370
:1039F000809140038823E1F080913F03811118C03A
:103A00008091420390914303019791F460E084E038
:103A10000E94000C61E085E00E94000C84E692E0C8
:103A20000E94290AE2E0F0E0F0934303E0934203AE
:103A300080914003882309F46EC080913F0388235E
:103A400009F469C08091420390914303029709F001
:103A500062C060E084E00E94000C60E085E00E94AB
:103A6000000C61E087E00E94000C11E010933E031F
:103A700083E090E0909343038093420384E792E0D5
:103A80000E94290A1093410346C02223A1F12091EC
:103A9000420330914303233031056CF188E892E012
:103AA0000E94290A90913D0380914003911111C019
:103AB000811131C080913F0381112DC08CEB92E0C8
:103AC0000E94290A1092410310924303109242036C
:103AD0001CC0811120C080913F0381111CC061E096
:103AE00087E00E94000C81E080933E0389EC92E025
:103AF0000E94290A10C091110EC060E084E00E946B
:103B0000000C60E085E00E94000C60E087E00E940D
:103B1000000C10923E030E946A12B4CB1092B603BE
:103B20001092B50388EE93E0A0E0B0E08093B70375
:103B30009093B803A093B903B093BA0323E631E09E
:103B40003093B4032093B30325EC30E03093C003EB
:103B50002093BF0324EC30E03093C2032093C103D1
:103B600020EC30E03093C4032093C30321EC30E019
:103B70003093C6032093C50322EC30E03093C80392
:103B80002093C70326EC30E03093CA032093C90387
:103B90001092CC031092CD031092CE031092CF035B
:103BA000109253041092520480935404909355043D
:103BB000A0935604B093570485E791E09093510485
:103BC0008093500482E58093370681E08093380625
:103BD0008093680640E856EE65EC77E440936B0608
:103BE00050936C0660936D0670936E0610923406C7
:103BF00097E79093350620E534E030936A062093EA
:103C000069069AE09093360693E0909339061092F5
:103C10003A0610923B0680933C0680933D068093C3
:103C20003E0610923F0610924006109241061092F6
:103C300042068FE595E00E94AF158AE894E00E9465
:103C4000AF1560E089E00E946B0DE7EBF0E0E491D6
:103C5000E0937006E3EAF0E0E491F0E0EE0FFF1F7E
:103C6000E057FF4F8591949190937206809371066F
:103C700010927B0610927D0610927C06EBE7F6E030
:103C800083E796E012928E179F07E1F7109289045E
:103C9000109288041092740420E736E030937D047B
:103CA00020937C0410927A0410927B041092730487
:103CB00099E09093760481E0809377048093780470
:103CC00080937904109272041092710410925D0432
:103CD0003093660420936504109263041092640488
:103CE00010925C0490935F0480936004809361045D
:103CF0008093620408950E94BD1E08F481E0089537
:103D0000E89409C097FB3EF4909580957095619575
:103D10007F4F8F4F9F4F9923A9F0F92F96E9BB272B
:103D20009395F695879577956795B795F111F8CFA7
:103D3000FAF4BB0F11F460FF1BC06F5F7F4F8F4F12
:103D40009F4F16C0882311F096E911C0772321F008
:103D50009EE8872F762F05C0662371F096E8862FA0
:103D600070E060E02AF09A95660F771F881FDAF7F7
:103D7000880F9695879597F90895990F0008550F24
:103D8000AA0BE0E8FEEF16161706E807F907C0F0E1
:103D900012161306E407F50798F0621B730B840BE9
:103DA000950B39F40A2661F0232B242B252B21F4C3
:103DB00008950A2609F4A140A6958FEF811D811D63
:103DC00008950E94F41E0C94651F0E94571F38F03E
:103DD0000E945E1F20F0952311F00C944E1F0C944E
:103DE000541F11240C94991F0E94761F70F3959F05
:103DF000C1F3950F50E0551F629FF001729FBB27E2
:103E0000F00DB11D639FAA27F00DB11DAA1F649F7D
:103E10006627B00DA11D661F829F2227B00DA11D30
:103E2000621F739FB00DA11D621F839FA00D611DB6
:103E3000221F749F3327A00D611D231F849F600DD7
:103E4000211D822F762F6A2F11249F5750409AF000
:103E5000F1F088234AF0EE0FFF1FBB1F661F771F8C
:103E6000881F91505040A9F79E3F510580F00C9457
:103E70004E1F0C94991F5F3FE4F3983ED4F3869550
:103E800077956795B795F795E7959F5FC1F7FE2BF7
:103E9000880F911D9695879597F9089597F99F67D3
:103EA00080E870E060E008959FEF80EC08950024C2
:103EB0000A941616170618060906089500240A948F
:103EC00012161306140605060895092E0394000C15
:103ED00011F4882352F0BB0F40F4BF2B11F460FFA4
:103EE00004C06F5F7F4F8F4F9F4F089557FD9058CD
:103EF000440F551F59F05F3F71F04795880F97FBAE
:103F0000991F61F09F3F79F0879508951216130667
:103F10001406551FF2CF4695F1DF08C01616170696
:103F20001806991FF1CF86957105610508940895CB
:103F3000E894BB2766277727CB0197F908950E945D
:103F4000E11FA59F900DB49F900DA49F800D911D22
:103F5000112408952F923F924F925F926F927F9219
:103F60008F929F92AF92BF92CF92DF92EF92FF9289
:103F70000F931F93CF93DF93CDB7DEB7CA1BDB0B35
:103F80000FB6F894DEBF0FBECDBF09942A883988DA
:103F900048885F846E847D848C849B84AA84B984E1
:103FA000C884DF80EE80FD800C811B81AA81B981ED
:103FB000CE0FD11D0FB6F894DEBF0FBECDBFED0101
:103FC0000895A29FB001B39FC001A39F700D811DF2
:103FD0001124911DB29F700D811D1124911D089512
:103FE000DB018F939F930E949F1FBF91AF91A29F70
:103FF000800D911DA39F900DB29F900D11240895E7
:1040000097FB072E16F4009407D077FD09D00E9485
:104010003E2007FC05D03EF4909581959F4F089572
:10402000709561957F4F0895A1E21A2EAA1BBB1BC4
:10403000FD010DC0AA1FBB1FEE1FFF1FA217B30774
:10404000E407F50720F0A21BB30BE40BF50B661F8A
:10405000771F881F991F1A9469F76095709580954E
:1040600090959B01AC01BD01CF010895B7FF0C9461
:104070009F1F0E949F1F821B930B0895AA1BBB1BAF
:1040800051E107C0AA1FBB1FA617B70710F0A61B58
:10409000B70B881F991F5A95A9F780959095BC0179
:1040A000CD010895EE0FFF1F0590F491E02D0994C6
:1040B0005058BB27AA270E9470200C94651F0E94AD
:1040C000571F38F00E945E1F20F039F49F3F19F40B
:1040D00026F40C94541F0EF4E095E7FB0C944E1F4D
:1040E000E92F0E94761F58F3BA17620773078407F7
:1040F000950720F079F4A6F50C94981F0EF4E0953E
:104100000B2EBA2FA02D0B01B90190010C01CA0191
:10411000A0011124FF27591B99F0593F50F4503E3C
:1041200068F11A16F040A22F232F342F4427585F2E
:10413000F3CF469537952795A795F0405395C9F746
:104140007EF41F16BA0B620B730B840BBAF09150FE
:10415000A1F0FF0FBB1F661F771F881FC2F70EC09D
:10416000BA0F621F731F841F48F487957795679570
:10417000B795F7959E3F08F0B0CF9395880F08F05C
:104180009927EE0F9795879508950E94D9200C9452
:10419000651F0E945E1F58F00E94571F40F029F4CF
:1041A0005F3F29F00C944E1F51110C94991F0C94F1
:1041B000541F0E94761F68F39923B1F3552391F39E
:1041C000951B550BBB27AA2762177307840738F086
:1041D0009F5F5F4F220F331F441FAA1FA9F335D0E3
:1041E0000E2E3AF0E0E832D091505040E695001C97
:1041F000CAF72BD0FE2F29D0660F771F881FBB1F51
:10420000261737074807AB07B0E809F0BB0B802D2E
:10421000BF01FF2793585F4F3AF09E3F510578F05A
:104220000C944E1F0C94991F5F3FE4F3983ED4F317
:10423000869577956795B795F7959F5FC9F7880F2E
:10424000911D9695879597F90895E1E0660F771F80
:10425000881FBB1F621773078407BA0720F0621B11
:10426000730B840BBA0BEE1F88F7E09508950E943C
:104270003E216894B1110C94991F08950E947E1FED
:1042800088F09F5798F0B92F9927B751B0F0E1F017
:10429000660F771F881F991F1AF0BA95C9F714C0C7
:1042A000B13091F00E94981FB1E008950C94981FCE
:1042B000672F782F8827B85F39F0B93FCCF3869500
:1042C00077956795B395D9F73EF49095809570955D
:1042D00061957F4F8F4F9F4F08950E94BD1E08F438
:1042E0008FEF08950F931F93CF93DF938230910543
:1042F00010F482E090E0E091CC06F091CD0620E051
:1043000030E0A0E0B0E0309719F1408151810281A6
:10431000138148175907C8F08417950769F4109757
:1043200031F012960C93129713961C9327C00093AA
:10433000CC061093CD0622C02115310519F0421785
:10434000530718F49A01BD01EF01DF01F801DBCF3B
:1043500021153105F9F0281B390B2430310580F483
:104360008A819B816115710521F0FB019383828312
:1043700004C09093CD068093CC06FE01329644C0D3
:10438000FE01E20FF31F819391932250310939838B
:1043900028833AC02091CA063091CB06232B41F4E2
:1043A00020910201309103013093CB062093CA067D
:1043B00020910001309101012115310541F42DB703
:1043C0003EB74091040150910501241B350BE0914B
:1043D000CA06F091CB06E217F307A0F42E1B3F0BA1
:1043E0002817390778F0AC014E5F5F4F2417350767
:1043F00048F04E0F5F1F5093CB064093CA0681933F
:10440000919302C0E0E0F0E0CF01DF91CF911F91E6
:104410000F910895CF93DF93009709F481C0FC01B9
:10442000329713821282A091CC06B091CD061097DC
:1044300081F420813181820F931F2091CA0630912F
:10444000CB062817390751F5F093CB06E093CA063F
:1044500067C0ED0120E030E0CE17DF0740F44A816D
:104460005B819E0141155105F1F0EA01F5CFD3833F
:10447000C28340815181840F951FC817D90759F411
:1044800088819981840F951F0296918380838A8108
:104490009B81938382832115310529F4F093CD0606
:1044A000E093CC063DC0E901FB83EA834991599131
:1044B000C40FD51FEC17FD0761F480819181840F33
:1044C000951F0296E90199838883828193819B835A
:1044D0008A83E0E0F0E012968D919C91139700970B
:1044E00019F0FD01DC01F7CF8D919C9111979D0191
:1044F0002E5F3F4F820F931F2091CA063091CB064B
:104500002817390769F4309729F41092CD061092D4
:10451000CC0602C013821282B093CB06A093CA06C7
:10452000DF91CF910895A0E0B0E0E9E9F2E20C94C8
:10453000AE1FEC01009721F4CB010E947221B4C0A0
:10454000FC01E60FF71F9C0122503109E217F30727
:1045500008F4A8C0D9010D911C91119706171707EF
:10456000B0F00530110508F49BC0C8010497861708
:10457000970708F495C002501109061B170B019309
:1045800011936D937C93CF010E940A2289C05B0135
:10459000A01AB10A4C01800E911EA091CC06B091D8
:1045A000CD06612C712CE12CF12C109709F446C03A
:1045B0008D919C911197A815B905B1F56C0142E058
:1045C000C40ED11CCA14DB0478F14C018A189B0874
:1045D000640142E0C40ED11C1296BC90129713964F
:1045E000AC91B5E0CB16D10440F0B282A3839182A6
:1045F0008082D9016D937C9309C00E5F1F4F800F9D
:10460000911FF90191838083EB2DFA2FE114F104BE
:1046100031F0D7011396FC93EE93129741C0F093BB
:10462000CD06E093CC063CC06816790608F43C0140
:104630007D0112960D90BC91A02DB7CF8091CA0636
:104640009091CB0688169906E1F466167706C8F4B1
:104650008091000190910101009741F48DB79EB7C0
:104660004091040150910501841B950BE817F9074F
:10467000C8F4F093CB06E093CA06F9017183608316
:104680000FC0CB010E9472217C01009759F0A80154
:10469000BE010E945E23CE010E940A22C70104C00F
:1046A000CE0102C080E090E0CDB7DEB7EEE00C9422
:1046B000CA1F81E090E0F8940C947723FB01DC01A1
:1046C00002C001900D9241505040D8F70895FB016F
:1046D000DC018D91019080190110D9F3990B089597
:1046E000FB01DC0101900D920020E1F70895F894A0
:0246F000FFCFFA
:1046F2000000CE0620000000803FCDCCCC3D6F12E2
:10470200833A95BFD6337D1D9026B3CE010CCDCC16
:10471200CC3D0AD7233C17B7D13877CC2B329595AD
:10472200E6241FB14F0A000020410000C8420040A9
:104732001C4620BCBE4CCA1B0E5AAEC59D7400015D
:10474200020103010101040101010101010105004E
:10475200000000FB11681192114812C311A111B59A
:1047620011000000004B0E1E0E7B0EF20D160E0203
:104772000EF30D5E00BC00770122225C5C620866CB
:104782000C6E0A720D7409004E614E00652D006EAA
:10479200756C6C00496E66696E6974790048756D56
:1047A2000054656D700054656D706C6F6D62726956
:1047B2007A0054656D70706C616E74610048756D3D
:1047C2006C6F6D6272697A0048756D706C616E749F
:1047D2006100666C6F7431737461746500666C6F2E
:1047E20074327374617465007B226D6F646F223A58
:1047F20066616C73652C2276616C7661223A666121
:104802006C73652C2276616C7668223A74727565D7
:104812007D000D0A0048756D75733A20006573744A
:1048220061646F20666C756A6F3A20006D6F646F09
:104832000076616C76610076616C766800616D620B
:104842006F7320666C6F7461646F7265732066614A
:104852006C736500666C6F7461646F7220312074D2
:1048620072756500666C6F7461646F7220312079B5
:10487200203220747275650063756C6D696E6164B7
:104882006F2070726F6365736F2C2061686F726145
:1048920020766572206375616E646F2062616A6161
:1048A200206E756576616D656E7465006E6F206849
:1048B200617920666C756A6F0061756E2068617936
:1048C20020666C756A6F0053656E736F7220646543
:1048D2002048756D20792054656D70204F4B004E35
:1048E2006F207365207075646F2065737461626CEC
:1048F2006563657220636F6D756E6963616369C319
:10490200B36E20636F6E20656C2073656E736F7279
:104912002064652048756D20792054656D702E00E5
:00000001FF
