:100000000C9472000C949A000C949A000C949A0030
:100010000C949A000C949A000C949A000C949A00F8
:100020000C949A000C949A000C949A000C949A00E8
:100030000C949A000C949A000C949A000C949A00D8
:100040000C9495110C949A000C94850F0C945F0FEE
:100050000C949A000C949A000C949A000C949A00B8
:100060000C94CF030C949A00000000002400270099
:100070002A0000000000250028002B0000000008D6
:10008000000201000003040700000000000000005F
:1000900000000000230026002900040404040404D6
:1000A0000404020202020202030303030303010227
:1000B00004081020408001020408102001020408F6
:1000C0001020005EBCE2613FDD83C29C7E20A3FD68
:1000D0001F41009D23BE46DB65F88C11AF32CA5725
:1000E000E974461A11241FBECFEFD8E0DEBFCDBFA2
:1000F00026E0A6EFB2E001C01D92A639B207E1F7F3
:1001000012E0A0E0B1E0E6E9F0E402C005900D9253
:10011000A63FB107D9F710E0C2E7D0E004C02197AD
:10012000FE010E94291DC137D107C9F70E94431261
:100130000C9449200C94000085ED8093BC008091C4
:10014000BC0084FDFCCF1092A203089540911603D9
:10015000262F30E0240F311D21323105DCF42091AF
:10016000A2032430C9F4FC0180E090E0861758F423
:10017000309116032191DC01AA50BD4FA30FB11D90
:100180002C930196F3CF80911603680F60931603AA
:1001900080E0089581E0089582E00895089508952B
:1001A0000895E0915B0380915A03E81730F4F0E082
:1001B000E45AFC4F808190E008958FEF9FEF0895FF
:1001C00090915B0380915A03981750F4E92FF0E067
:1001D000E45AFC4F208130E09F5F90935B0302C0A4
:1001E0002FEF3FEFC901089580915A0390E02091CD
:1001F0005B03821B91090895CF92DF92EF92FF92E9
:100200000F931F93CF93DF937C01CB018A01209141
:10021000A303222389F0EB016B01C40ED51ECC157C
:10022000DD0569F06991D701ED91FC910190F081B4
:10023000E02DC7010995F3CF642F0E94A600C801E5
:10024000DF91CF911F910F91FF90EF90DF90CF90B2
:100250000895CF93DF931F92CDB7DEB769832091C6
:10026000A3032223D1F02091C503203240F021E0E6
:1002700030E0FC013383228380E090E015C0809160
:10028000A403E82FF0E0EB55FC4F998190838F5F3A
:100290008093A4038093C50305C061E0CE0101965D
:1002A0000E94A60081E090E00F90DF91CF91089529
:1002B000089580E090E00895982F80ED890F8A30AE
:1002C00020F081EA890F8C3110F481E008958FEBE2
:1002D000890F8A31D0F39B32C1F381E09D3221F046
:1002E0009E3219F080E0089508950895FC018285FA
:1002F000811111C0A281B38184819581A817B907AA
:1003000011F4118606C0CD010196938382838C91EE
:10031000818781E08287818508951F93CF93DF9342
:10032000EC01CE010E9476018B302CF489300CF563
:100330008823C1F032C08032E1F08F3219F08D3065
:1003400061F517C01A86CE010E9476018A3219F033
:100350008F32C9F01FC01A8610E0CE010E947601CC
:10036000811103C081E090E01AC08F3221F4112383
:1003700011F01A86D6CF11E08A3209F010E01A8601
:10038000ECCF8A3071F21A86CE010E94760181117B
:10039000F8CFE8CF82E090E002C080E090E0DF910B
:1003A000CF911F910895FC0180819181892B21F4C7
:1003B00060E070E0CB01089568E571E080E090E0D6
:1003C0000895FC0184819581009799F02281338101
:1003D000468157812417350718F015821482089535
:1003E000A9014F5F5F4F53834283FC01E20FF31F6C
:1003F00060830895DF92EF92FF920F931F93CF9344
:10040000DF93CDB7DEB728970FB6F894DEBF0FBEE7
:10041000CDBF8C017B01DC011696ED91FC91179705
:10042000228133818481958193838283FA83E98356
:100430001C821B823E832D83821B930B98878F83A4
:10044000C8010E947601D82EF8011286C8010E94C8
:100450007601D8011A961C92D81649F1811103C071
:1004600081E090E047C08C35E1F4C8010E9476013C
:100470008823B1F3853719F0E5E7F1E006C084E0A1
:1004800090E038C0891729F0329690819111FACF07
:1004900006C08181811103C082E090E02BC0F80189
:1004A0001286682FCE0101960E94E101CFCF60E055
:1004B000CE0101960E94E1018D819E81892B71F010
:1004C0008B819C81E981FA812F813885821B930B76
:1004D00022813381820F931F938382838D819E813A
:1004E000D7018D939C93892B19F483E090E002C08F
:1004F00080E090E028960FB6F894DEBF0FBECDBF27
:10050000DF91CF911F910F91FF90EF90DF900895B1
:10051000CF93DF93DC01EB01EC81FD818A819B812C
:100520000896E817F90718F480E090E021C03897A2
:10053000FD83EC833097C1F31296CD91DC91139734
:10054000209751F0CF018C1B9D0B23E0959587954B
:100550002A95E1F78D8303C01196FC93EE931396D1
:10056000FC93EE9312971582148217821682CF01A4
:10057000DF91CF9108950F931F93CF93DF93EC01F9
:100580008B012097E1F06E817F810115110519F033
:100590006115710521F46017710731F410C0C801AD
:1005A0000E943920892B59F08D81882331F098E001
:1005B0008902C00DD11D1124E4CFC0E0D0E0CE01EE
:1005C000DF91CF911F910F9108950F931F93CF93B8
:1005D000DF93CDB7DEB728970FB6F894DEBF0FBE16
:1005E000CDBF1A8219821C821B821E821D8240E0AE
:1005F00050E06FE771E0CE0101960E94340F0E9437
:10060000CF0D97FD1BC08F8318860D811E810F5F54
:100610001F4FB801CE0101960E940D0F882379F378
:1006200029813A818D819E81BE01695F7F4F820F52
:10063000931F0E9442201E830D83E1CF6AE0CE010A
:1006400001960E94400B40E050E06FE771E0CE0160
:1006500001960E94340F89819A810E94DC1E28969F
:100660000FB6F894DEBF0FBECDBFDF91CF911F91C3
:100670000F910895FC0190810180F281E02DF894A2
:100680008181892B81832281892F80952823228350
:10069000A7E0B0E01197F1F7218182238183A3E2E3
:1006A000B0E01197F1F780817894EFECF0E03197AA
:1006B000F1F7982381E009F480E00895FC0190812E
:1006C0000180F281E02D892F809560FF12C0F8949F
:1006D0002281822382838181892B8183A3E2B0E0FE
:1006E0001197F1F78281982B9283789487ED90E0AF
:1006F00011C0F8942281822382838181892B818396
:10070000AFEFB0E01197F1F78281982B9283789444
:100710008FE090E00197F1F70895DC012C9111969C
:10072000ED91FC911297F8948181922F90958923F5
:10073000818378948DE743E050E0815021F1DA0124
:100740001197F1F730813223C1F3F8948281892324
:1007500082838181822B81837894ABE7B7E0119704
:10076000F1F7F89481819823918383E191E00197D7
:10077000F1F78081282381E009F080E07894E3E6B6
:10078000F6E03197F1F7089508958EBD00000DB49D
:1007900007FEFDCF8EB508958CBD9DBD08951F92B7
:1007A0000F920FB60F9211242F933F934F935F93A5
:1007B0006F937F938F939F93AF93BF93EF93FF9329
:1007C0008091B900887F803609F49CC068F5883232
:1007D00009F45BC090F4803109F454C038F48823E4
:1007E00009F4F6C0883009F44DC0F6C0883109F428
:1007F0004CC0803209F45DC0EFC0803409F468C099
:1008000048F4803309F455C0883309F0E5C080937B
:10081000A003D8C0803509F44FC0883509F45DC005
:10082000883409F0D9C0D6C0883909F4C7C0A8F403
:10083000883709F467C038F4883609F463C0803714
:1008400009F460C0C9C0883809F4B8C0803909F417
:100850005FC0803809F0C0C05BC0803B09F486C02F
:1008600038F4803A09F466C0883A09F47FC0B4C00D
:10087000803C09F4A7C0883C09F4A4C0883B09F473
:100880008AC0AAC080917D0310C090919F0380917F
:100890009E03981770F5E0919F0381E08E0F80937F
:1008A0009F03F0E0E258FC4F80818093BB0085EC11
:1008B00086C08093A0038EC0E0919F0381E08E0FDD
:1008C00080939F038091BB00F0E0E258FC4F80834F
:1008D00090919F0380919E036EC0E0919F0381E001
:1008E0008E0F80939F038091BB00F0E0E258FC4F95
:1008F00080838091A10381116DC081E080937C038E
:1009000084EA61C083E08093A20310923803CFCFC2
:1009100080913803803208F051C0E091380381E0C3
:100920008E0F809338038091BB00F0E0E85EFC4FAF
:100930008083BDCF85EC8093BC001092A203809190
:100940003803803230F4E0913803F0E0E85EFC4F89
:1009500010826091380370E0E0913903F0913A031E
:1009600088E193E009951092380336C084E08093C3
:10097000A2031092170310921603E0913B03F0912B
:100980003C03099580911603811105C081E0809395
:1009900016031092F602E091170381E08E0F809308
:1009A0001703F0E0EA50FD4F80818093BB009091E7
:1009B000170380911603981708F479CF85E8809380
:1009C000BC000AC085EC8093BC001092A20304C056
:1009D0001092A0030E949C00FF91EF91BF91AF91F4
:1009E0009F918F917F916F915F914F913F912F9147
:1009F0000F900FBE0F901F901895FC01908190787A
:100A0000692B60830895EF92FF920F931F93CF930A
:100A1000DF93EC018B017A018C818F7749F460E2DE
:100A2000CE0104960E94FD04198218821B821A824C
:100A30008C8185FF08C0B801888199810E94BB0222
:100A4000009789F403C080E090E00DC0B701CE01AB
:100A50000E948802FC01892BB1F384818F77848303
:100A600017830683CF01DF91CF911F910F91FF90E4
:100A7000EF900895FC01248125FF05C080819181BC
:100A80000E94BB02089580E090E008952F923F926B
:100A90004F925F927F928F929F92AF92BF92CF922E
:100AA000DF92EF92FF920F931F93CF93DF93CDB717
:100AB000DEB7C654D1090FB6F894DEBF0FBECDBF66
:100AC0008C017B010E948D0127969FAF8EAF2797E7
:100AD000CE018B5B9F4F0E94D301672B09F087C02B
:100AE00080FD85C0C8010E9476018B3549F560E420
:100AF000C70104960E94FD04D70111961C921E9214
:100B000013961C921E921297F8018085882359F142
:100B1000C8010E9476018B3509F0CAC1D8011A9626
:100B20001C92C8010E948D019A838983CE0101968F
:100B30000E94D301672B09F0EEC180FDECC15EC0BD
:100B40008B3771F560E2C70104960E94FD04D7015E
:100B500011961C921E9213961C921E921297F801E7
:100B60008085811102C085E054C3C8010E947601CE
:100B70008B3709F09DC1D8011A961C92C8010E94BA
:100B80008D0125969FAF8EAF2597CE018D5B9F4F30
:100B90000E94D301672B09F0A7C180FDA5C199C0B0
:100BA000C8010E947601873209F4A5C1823209F496
:100BB000A2C1C8010E947601C82E9E012F5F3F4F3F
:100BC0005901D12C8C2D0E945C01882309F43FC16E
:100BD000FFE3DF1609F43BC1F8011286D394D50177
:100BE000CD925D01C8010E947601C82EEBCF2696FA
:100BF0008FAD269727969FAD27970CC3C8010E94FB
:100C000076018D35B1F1D8016D917C91C7010E94BB
:100C10008802BC01892B09F451C0F80190859150DC
:100C20009087C8010E9446059A838983D801189647
:100C30008C9118978F5F18968C93CE0101960E9425
:100C4000D301672B09F067C180FD65C1C8010E940F
:100C50008D019A838983CE0101960E94D301672B6F
:100C600009F059C180FD57C1C8010E9476018D3538
:100C700039F5F8011286CCC2C8010E9476018C3287
:100C800009F016C1F8011286C8010E948D0125964F
:100C90009FAF8EAF2597CE018D5B9F4F0E94D301F2
:100CA000672B09F021C180FD1FC1D8016D917C9196
:100CB000C7010E9488026C01892B89F483E0A9C2D4
:100CC000C8010E9476018C3209F0F2C0F801128648
:100CD0009ACFC8010E9476018D3739F7CACFC80173
:100CE0000E947601873211F08232A9F4BE016F5B57
:100CF0007F4FC8010E94FA0125969FAF8EAF2597BE
:100D0000CE018D5B9F4F0E94D301672B09F0ECC091
:100D100080FF5BC0E9C0D8011696ED91FC91179752
:100D2000228133818481958193838283FA83E9834D
:100D30001C821B823E832D83821B930B98878F839B
:100D4000C8010E947601B82E8823E1F18B2D0E9404
:100D50005C01882389F1F80112866B2DCE01019682
:100D60000E94E101C8010E947601B82E0E945C0138
:100D70008111F1CF60E0CE0101960E94E1018D81E9
:100D80009E81892B71F0E981FA818B819C812F8171
:100D90003885821B930B22813381820F931F9383AB
:100DA00082838D819E8123969FAF8EAF2397892B5F
:100DB00031F483E090E0A0CF82E090E09DCF80E02E
:100DC00090E09ACF81E090E097CF23962EAD3FAD93
:100DD0002397F60184818068848337832683C80142
:100DE0000E948D0125969FAF8EAF2597CE018D5B1A
:100DF0009F4F0E94D301672B09F076C080FD74C01D
:100E0000C8010E9476018A3309F052C0D8011A96AF
:100E10001C921A9718968C911897815018968C935B
:100E2000B601C8010E94460525969FAF8EAF259753
:100E3000F80180858F5F8087CE018D5B9F4F0E9478
:100E4000D301672B09F050C080FF34C04DC0E1E0F2
:100E5000F0E0EC0FFD1FED0DF11D1082898184374C
:100E600009F469C0863609F479C08E3609F487C062
:100E70008B3209F48BC08D3209F08BC08A817724C4
:100E800073948E3609F4B4C16E01F2E0CF0ED11C1A
:100E90008E3409F4ADC1982F9F7D993409F43DC17A
:100EA00090ED980F9A3008F47AC08E3209F477C02A
:100EB00082E0AFC1C8010E948D0125969FAF8EAF21
:100EC0002597CE018D5B9F4F0E94D301672B61F464
:100ED00080FD0AC0C8010E9476018D3709F0CCCE92
:100EE000D8011A961C9294C124968FAD249725960A
:100EF0009FAD25978FC1BE016F5B7F4FC8010E94D8
:100F0000FA019A838983CE0101960E94D301672B4F
:100F100011F480FF03C089819A817CC123960EADB4
:100F20001FAD239764E0C70104960E94FD04D7011A
:100F30000D931C936DC165E0C70104960E94FD04EA
:100F400081E090E0A0E0B0E0F70180839183A2838C
:100F5000B38390E0F4E0DF125DC116C065E0C70125
:100F600004960E94FD04D7011D921D921D921C92B1
:100F7000139781E090E0B5E0DB124CC105C081E041
:100F800090E0E4E0DE1246C180E044C18A81712C29
:100F900078CF712C9E012F5F3F4F690179CF812C53
:100FA000912C5401F601819110ED180F1A3028F59B
:100FB0003AE9831639E99306A30639E1B306F8F452
:100FC000AAE0B0E0A50194010E94571C4B015C010E
:100FD000812F90E0A0E0B0E0AC01BD0140955095BC
:100FE00060957095481559056A057B0540F0880E97
:100FF000991EAA1EBB1E6F01D5CF882339F000E0D1
:101000006AE0262E312C412C512C0EC0C7010496CB
:10101000772009F4E3C067E00E94FD04F7018082B5
:101020009182A282B382F4C08114910480E8A80660
:10103000B10450F0C501B401A20191010E94CC1C81
:1010400049015A010F5FF0CFF601D6018D916D0174
:1010500090ED980F9A3010F40F5FF6CF8E3209F5AD
:101060006F01BFEFCB1ADB0AF6012FEFC21AD20ACB
:10107000108110531A30A8F43CEC831693063CE020
:10108000A306B10488F7AAE0B0E0A50194010E948C
:10109000571C4B015C01810E911CA11CB11C01501D
:1010A000E3CF20812F7D802F000F990B253409F08D
:1010B0004AC021812D3219F4329651E006C02B32FC
:1010C00011F0319601C0329650E000E010E06AE085
:1010D000419120ED240F2A3080F5609F9001619F9F
:1010E000300D1124042F440F110B00531109020F6E
:1010F000131F9C01200F311F273231054CF355235C
:1011000061F0772031F0812C912CA12C50E8B52E84
:1011100075C0812C912C540171C0711007C0812CB5
:10112000912C40E8A42E4FE7B42E68C0812C912C5E
:1011300030E8A32EBB24BA9461C0552331F0119539
:101140000195110902C000E010E0080F191FC50148
:10115000B4010E94381B4B015C0110161106D4F437
:10116000D12C00FF10C084E0D89EF0011124E25E73
:10117000FE4F2081318142815381C501B4010E941B
:10118000991B4B015C0115950795D3940115110529
:1011900041F71DC0119501951109D12C01151105BB
:1011A000B1F000FF10C094E0D99EF0011124EA5F75
:1011B000FE4F2081318142815381C501B4010E94DB
:1011C000991B4B015C0115950795D394E7CF7720C8
:1011D000A9F0B7FAB094B7F8B09410C066E00E94D6
:1011E000FD04D7018D929D92AD92BC92139710C0D1
:1011F000812C912C80ECA82E8FE7B82E68E0C701D7
:1012000004960E94FD04F70180829182A282B3823B
:1012100080E090E0CA5BDF4F0FB6F894DEBF0FBEF0
:10122000CDBFDF91CF911F910F91FF90EF90DF9095
:10123000CF90BF90AF909F908F907F905F904F9096
:101240003F902F900895CF93FC0194819F77983021
:1012500028F4953030F49330D8F423C0983059F006
:1012600020C0C1E080819181A281B381892B8A2B2A
:101270008B2BC1F416C0C1E020E030E0A9016081F1
:101280007181828193810E94331B81110BC009C03F
:101290006081718189E692E00E943920C1E0892B4A
:1012A00009F0C0E08C2FCF910895CF92DF92EF929A
:1012B000FF92CF93DF93009769F06A017B01EC0105
:1012C00068E004960E94FD04C882D982EA82FB820B
:1012D00081E001C080E0DF91CF91FF90EF90DF903F
:1012E000CF900895282F3091C503313208F04AC0BD
:1012F0008091A2038111FCCF9091820642E040933D
:10130000A2032093A1032FEF2093A00310929F0329
:1013100030939E03E5EAF3E0AEE7B3E020E0321756
:1013200021F041914D932F5FFACF10927D032091D0
:101330007D03990F922B90937D0390917C039130C4
:1013400061F410927C0390917D039093BB00909187
:10135000BC0093FDF8CF95EC01C095EE9093BC00D6
:101360009091A2039230E1F39091A0039F3F79F016
:101370008091A003803241F08091A003803331F04E
:1013800084E005C081E003C082E001C083E01092E8
:10139000A4031092C5031092A30308953FB7F894D5
:1013A0008091560390915703A0915803B09159032F
:1013B00026B5A89B05C02F3F19F00196A11DB11DB0
:1013C0003FBFBA2FA92F982F8827820F911DA11DEB
:1013D000B11DBC01CD0142E0660F771F881F991F28
:1013E0004A95D1F708958091A2038111FCCF413233
:1013F00008F040E281E08093A2038093A1039FEF75
:101400009093A00310929F03940F90939E03809358
:101410007D0380917D03660F682B60937D0380912F
:101420007C03813061F410927C0380917D03809372
:10143000BB008091BC0083FDF8CF85EC01C085EE38
:101440008093BC008091A2038130E1F380919F03DF
:10145000841710F440919F03EEE7F3E0ACE5B3E0AE
:1014600080E0841721F091919D938F5FFACF1092C5
:101470005B0380935A030895009769F0FC01019083
:101480000020E9F73197AF01481B590BBC0186ECEE
:1014900093E00C94030E80E090E008958F929F9269
:1014A000AF92BF920F931F93CF93DF93CDB7DEB769
:1014B000A1970FB6F894DEBF0FBECDBF19A2423080
:1014C00008F44AE08E010F5D1F4F842E912CA12C51
:1014D000B12CA50194010E94CC1CE62FB901CA01D0
:1014E00001501109EA3014F4E05D01C0E95CD80153
:1014F000EC93232B242B252B61F7C8010E943C0A77
:10150000A1960FB6F894DEBF0FBECDBFDF91CF918D
:101510001F910F91BF90AF909F908F900895CF92A1
:10152000DF92EF92FF92CF93DF936B017C016DE22C
:1015300086EC93E00E94960EEC0166277727CB019C
:101540006C197D098E099F094AE00E944E0A8C0F92
:101550009D1FDF91CF91FF90EF90DF90CF90089586
:10156000CF93DF930E943C0AEC0185EF91E00E944B
:101570003C0A8C0F9D1FDF91CF910895BF92CF92AF
:10158000DF92EF92FF920F931F93CF93DF93EC01C3
:101590006B018D85811105C0CE010E948D038111E3
:1015A00005C01B861D861C8680E060C040E060EFA1
:1015B000CE010E94CF0F01E0E12CB12C11E0CE0151
:1015C0000E943A03F82ECE010E943A0391E0F912EC
:1015D00003C08130B1F434C02E2D30E0F8121BC0AE
:1015E0008B85181738F4FE01E20FF31F83818023E7
:1015F00041F402C0811729F0F12C193058F41C87EE
:1016000009C0FE01EE0DF11D8381802B8383FF2431
:10161000F39409C0B12EFE01E20FF31F9381802FD6
:101620008095892383836F2DCE010E945E031F5F07
:10163000000F11F4E39401E087E08E1508F0BFCFAE
:10164000113408F4AECFBB86B11002C081E08D87A3
:101650008B81882309F4A5CFDE011396F6012B9622
:101660008D918193CA17DB07D9F781E0DF91CF9184
:101670001F910F91FF90EF90DF90CF90BF90089552
:101680000F931F93CF93DF93CDB7DEB72B970FB692
:10169000F894DEBF0FBECDBF8C0180919D04909168
:1016A0009E049093A00480939F048091A304909142
:1016B000A4049093A2048093A10460E089EA94E0DA
:1016C0000E94FD04F8012481358180819181009779
:1016D00011F48FE791E04DE954E05A8349839C83EC
:1016E0008B83820F931F9E838D8358874F838AE05D
:1016F00089871B8665EA74E0CE0101960E94460543
:101700002B960FB6F894DEBF0FBECDBFDF91CF9101
:101710001F910F910895BC01990F880B990B97FDAC
:101720000C948F0A4AE00C944E0ACF93DF93BC01CD
:10173000990F880B990B97FF03C00E948F0A03C073
:101740004AE00E944E0AEC0185EF91E00E943C0ABB
:101750008C0F9D1FDF91CF91089590E0FC01E4581C
:10176000FF4F2491FC01E255FF4F3491FC01E656F6
:10177000FF4FE491EE2309F43CC0222339F12330DA
:1017800091F038F42130A9F0223001F584B58F7D35
:1017900012C0273091F02830A1F02430B9F48091A4
:1017A00080008F7D03C0809180008F7780938000C0
:1017B0000DC084B58F7784BD09C08091B0008F774C
:1017C00003C08091B0008F7D8093B000F0E0EE0FF9
:1017D000FF1FEE58FF4FA591B4919FB7F894611188
:1017E00004C08C913095382302C0EC913E2B3C9381
:1017F0009FBF08950F931F93CF93DF93EC01062FA4
:10180000142F809147068823B9F0813009F06EC00B
:1018100080914A0690914B060E94CC0360E0809133
:1018200049060E94AD0B802F80680E94C503CE013F
:10183000810F911D8C0147C080917B06813009F09A
:1018400055C0909148068093A3039093820610920E
:10185000A4031092C50380917C0690917D06DC0163
:10186000ED91FC910190F081E02D099581E00E94BD
:101870007209412F6091480680917C0690917D0607
:101880000E94F309CE01810F911D8C0180917C068D
:1018900090917D06DC01ED91FC910084F185E02DB5
:1018A0000995892B19F1C017D10701F180917C06A8
:1018B00090917D06DC01ED91FC910284F385E02D91
:1018C00009958993E3CFC017D10729F080E00E94E2
:1018D000C5038993F8CF61E0809149060E94AD0B62
:1018E000DF91CF911F910F910C94C403DF91CF91A1
:1018F0001F910F910895CF93DF931F92CDB7DEB75D
:10190000682F198280914706882349F0813009F0B9
:1019100045C041E0CE0101960E94FA0B3FC0809184
:101920007B068130D9F5909148068093A30390936C
:1019300082061092A4031092C50380917C069091B8
:101940007D06DC01ED91FC910190F081E02D09957F
:1019500081E00E94720941E06091480680917C0616
:1019600090917D060E94F30980917C0690917D06FE
:10197000DC01ED91FC910084F185E02D0995892B26
:1019800069F080917C0690917D06DC01ED91FC91DF
:101990000284F385E02D09958983E6CF89810F9034
:1019A000DF91CF910895CF93DF93D82FC62F8091E9
:1019B00047068823F1F0813009F046C080914A063D
:1019C00090914B060E94CC0360E0809149060E94F2
:1019D000AD0B8D2F8F770E94C5038C2F0E94C503FE
:1019E00061E0809149060E94AD0BDF91CF910C948C
:1019F000C40380917B06813039F59091480680932D
:101A0000A303909382061092A4031092C5038091C1
:101A10007C0690917D06DC01ED91FC910190F081B6
:101A2000E02D6D2F099580917C0690917D06DC015B
:101A3000ED91FC910190F081E02D6C2F099581E0F2
:101A4000DF91CF910C947209DF91CF910895CF93DC
:101A5000C82F843008F0C0E084EF0E947B0C8C7F9C
:101A6000682F6C2B84EFCF910C94D30CCF93DF9322
:101A700090E0FC01E255FF4F2491FC01E656FF4F38
:101A80008491882361F190E0880F991FFC01E85947
:101A9000FF4FC591D491FC01EE58FF4FA591B49131
:101AA000611109C09FB7F8948881209582238883AB
:101AB000EC912E230BC0623061F49FB7F8948881BB
:101AC000322F309583238883EC912E2B2C939FBF4C
:101AD00006C08FB7F894E8812E2B28838FBFDF9143
:101AE000CF9108958E3008F08E5087708064809377
:101AF0007C0080917A00806480937A0080917A00E3
:101B000086FDFCCF809178002091790090E0922BA7
:101B100008958F929F92AF92BF92CF92DF92EF92F1
:101B2000FF926B017C010E94CE094B015C01C11444
:101B3000D104E104F104F1F00E94CE09DC01CB01F3
:101B400088199909AA09BB09883E9340A105B105E6
:101B500070F321E0C21AD108E108F10888EE880E7E
:101B600083E0981EA11CB11CC114D104E104F1044E
:101B700019F7DDCFFF90EF90DF90CF90BF90AF903F
:101B80009F908F9008952FB7F894609152037091B1
:101B9000530380915403909155032FBF08950F93E1
:101BA0001F930E94C30D6093CE037093CF03809365
:101BB000D0039093D10386EC93E00E943C0E97FFF4
:101BC0001FC00E94C30D0091CE031091CF0320913E
:101BD000D0033091D103DC01CB01801B910BA20B10
:101BE000B30B0091CA031091CB032091CC03309129
:101BF000CD0380179107A207B307E8F28FEF9FEF9D
:101C00001F910F910895CF92DF92EF92FF920F9361
:101C10001F93CF93DF936C017A018B01C0E0D0E07A
:101C2000CE15DF0581F0D8016D918D01D601ED91C2
:101C3000FC910190F081E02DC6010995892B11F0EE
:101C40002196EECF7E01C701DF91CF911F910F91B9
:101C5000FF90EF90DF90CF900895FC01538D448D5D
:101C6000252F30E0842F90E0821B930B541710F047
:101C7000CF96089501970895FC01918D828D981754
:101C800061F0828DDF01A80FB11D5D968C91928D60
:101C90009F5F9F73928F90E008958FEF9FEF08955D
:101CA000FC01918D828D981731F0828DE80FF11D26
:101CB000858D90E008958FEF9FEF0895FC01918D41
:101CC000228D892F90E0805C9F4F821B91098F733A
:101CD0009927089586EC93E00E945E0E21E0892BFF
:101CE00009F420E0822F0895FC01848DDF01A80F04
:101CF000B11DA35ABF4F2C91848D90E001968F7334
:101D00009927848FA689B7892C93A089B1898C9152
:101D1000837080648C93938D848D981306C00288A1
:101D2000F389E02D80818F7D80830895EF92FF926B
:101D30000F931F93CF93DF93EC0181E0888F9B8DEE
:101D40008C8D981305C0E889F989808185FD26C0AE
:101D5000F62E0B8D10E00F5F1F4F0F731127E02E33
:101D60008C8DE8120CC00FB607FCFACFE889F98910
:101D7000808185FFF5CFCE010E94740EF1CF8B8D4F
:101D8000FE01E80FF11DE35AFF4FF0829FB7F89470
:101D90000B8FEA89FB89808180620AC09FB7F89423
:101DA000EE89FF896083E889F98980818370806486
:101DB00080839FBF81E090E0DF91CF911F910F91D1
:101DC000FF90EF900895CF93DF93EC01888D8823E7
:101DD000C9F0EA89FB89808185FD05C0A889B98998
:101DE0008C9186FD0FC00FB607FCF5CF808185FF73
:101DF000F2CFA889B9898C9185FFEDCFCE010E94E1
:101E0000740EE7CFDF91CF9108950E946A0E811181
:101E10000C94E50208950E942B200F931F93CF93FB
:101E2000DF93EC0188819981009729F02A813B8119
:101E30002617370788F48B016F5F7F4F0E94651F5D
:101E4000009761F0998388831B830A832C813D81ED
:101E5000232B11F4FC01108281E001C080E0DF91AE
:101E6000CF911F910F910895EF92FF920F931F93BF
:101E7000CF93DF93EC017B018A01BA010E940D0F21
:101E80002881398181110DC02115310519F0C90151
:101E90000E94DC1E198218821D821C821B821A82FB
:101EA00006C01D830C83B701C9010E944220CE01E8
:101EB000DF91CF911F910F91FF90EF9008951F92A6
:101EC0000F920FB60F9211242F933F934F935F936E
:101ED0006F937F938F939F93AF93BF93EF93FF93F2
:101EE00086EC93E00E94740EFF91EF91BF91AF9149
:101EF0009F918F917F916F915F914F913F912F9122
:101F00000F900FBE0F901F9018951F920F920FB653
:101F10000F9211242F938F939F93EF93FF93E09150
:101F2000D603F091D7038081E091DC03F091DD03CB
:101F300082FD12C090818091DF038F5F8F732091AB
:101F4000E003821751F0E091DF03F0E0EA53FC4F29
:101F5000958F8093DF0301C08081FF91EF919F9166
:101F60008F912F910F900FBE0F901F901895DC014D
:101F700080E0615098F02D91982F9227E92FEF7013
:101F8000F0E0EE53FF4F249192959F70E92FF0E01F
:101F9000EE52FF4FE491822F8E27EBCF0895DF9210
:101FA000EF92FF920F931F93CF93DF93EC01D62E06
:101FB000E42E08E010E0FF24F39461E08D2D8F21E2
:101FC00009F460E0CE010E945E03FF0C015011098C
:101FD000A1F7E11010C0F894E981FA81918188811C
:101FE000809589238183E981FA8192818881809516
:101FF000892382837894DF91CF911F910F91FF9075
:10200000EF90DF900895CF92DF92EF92FF92CF93FF
:10201000DF93EC0189859A850E948D0340E06CEC8A
:1020200089859A850E94CF0F488164E489859A85C5
:102030000E94CF0F8C81882309F447C08D818823AB
:10204000D9F08881811118C00E94C30D6B017C01F9
:1020500089859A850E943A038130B9F10E94C30DA7
:10206000DC01CB018C199D09AE09BF098E3E92405F
:10207000A105B10568F329C0EB81E950E33040F4D4
:10208000F0E0EE0FFF1FE559FE4F8081918102C005
:102090008EEE92E06C01E12CF12C8981882321F0F5
:1020A00060E08A810E94AD0BC701B6010E94890DD4
:1020B0008981882351F061E08A81DF91CF91FF907F
:1020C000EF90DF90CF900C94AD0BDF91CF91FF900C
:1020D000EF90DF90CF900895EF92FF920F931F93B0
:1020E000CF93DF938C017B0140E065E50E94CF0F29
:1020F000E70188E0E80EF11C699140E0C8010E9408
:10210000CF0FCE15DF05C1F7DF91CF911F910F9152
:10211000FF90EF9008954F925F926F927F928F920F
:102120009F92AF92BF92CF92DF92EF92FF920F9366
:102130001F93CF93DF938C017B01EA01FC01818522
:1021400092850E948D03882309F443C0B701F801EA
:10215000818592850E946C1040E06EEBF8018185CC
:1021600092850E94CF0F7E015E01F9E0AF0EB11C97
:102170006E01F8016184728488E0882E912C512CC4
:1021800044244394C3010E943A0381115428440C0F
:10219000F1E08F1A9108B1F7F60151926F01AE1676
:1021A000BF0639F7F801818592850E948D03813041
:1021B00081F4F70181917F01811104C0EA15FB05CB
:1021C000C1F707C068E0CE010E94B70F91E02885F3
:1021D000281390E0892FDF91CF911F910F91FF90ED
:1021E000EF90DF90CF90BF90AF909F908F907F90B7
:1021F0006F905F904F900895EF92FF920F931F930F
:10220000CF93DF93CDB7DEB761970FB6F894DEBFFB
:102210000FBECDBF7C01062FDC011996ED91FC911C
:102220001A97138615861486DF011B9633961E9225
:10223000AE17BF07E1F710E0BE01665F7F4FF70101
:10224000818592850E94BE0A882369F0011308C027
:1022500067E0CE010A960E94B70F9989891741F06D
:102260001F5F011748F760E070E08EEF92EC50C0FE
:10227000AE014F5F5F4FBE01665F7F4FC7010E9497
:102280008B10882309F441C02A8130E0C901982FBE
:102290008827990F990F990F6981F8E06F9FB00116
:1022A00011249C01262B372B8A858031D9F468852F
:1022B0006623C1F070E08F81AB01481B5109CA0150
:1022C0009695982F8827979587950E94B81C6052FD
:1022D0007109207F53E0220F331F5A95E1F7620FF7
:1022E000731F01C0B901613854EE75070CF4BBCF00
:1022F000072E000C880B990B0E943A1B20E030E05F
:1023000040E05CE30E94991B03C060E874EEEBCFF1
:1023100061960FB6F894DEBF0FBECDBFDF91CF91AF
:102320001F910F91FF90EF9008951F920F920FB69B
:102330000F9211242F933F938F939F93AF93BF934B
:102340008091520390915303A0915403B09155038F
:102350003091910623E0230F2D3720F40196A11D23
:10236000B11D05C026E8230F0296A11DB11D2093C3
:1023700091068093520390935303A0935403B09318
:1023800055038091560390915703A0915803B09143
:1023900059030196A11DB11D8093560390935703D5
:1023A000A0935803B0935903BF91AF919F918F9120
:1023B0003F912F910F900FBE0F901F901895CF92C5
:1023C000DF92EF92FF920F931F93E82FF92F05C032
:1023D000015011092109310961F190819623941767
:1023E000B9F305C0015011092109310911F190819A
:1023F00096239413F7CFC12CD12CE12CF12C0AC0D9
:102400008FEFC81AD80AE80AF80A0C151D052E0520
:102410003F0579F080818623841791F36C2D7D2D03
:102420008E2D9F2D1F910F91FF90EF90DF90CF90F9
:10243000089560E070E080E090E01F910F91FF90C0
:10244000EF90DF90CF900895FC010D9691838083EB
:1024500093838283009721F09F012B523F4F02C04C
:1024600020E030E035832483892B21F0CF018B528B
:102470009F4F02C080E090E09783868360E0CF01A9
:102480000C960C94FD04CF93DF93CDB7DEB76D9718
:102490000FB6F894DEBF0FBECDBF789484B58260CE
:1024A00084BD84B5816084BD85B5826085BD85B5F8
:1024B000816085BD80916E00816080936E00109276
:1024C00081008091810082608093810080918100F1
:1024D0008160809381008091800081608093800082
:1024E0008091B10084608093B1008091B0008160E0
:1024F0008093B00080917A00846080937A0080910C
:102500007A00826080937A0080917A008160809363
:102510007A0080917A00806880937A001092C100DE
:10252000E091D603F091D70382E08083E091D2035B
:10253000F091D3031082E091D403F091D5038FEC96
:1025400080831092DE03E091DA03F091DB0386E0F2
:102550008083E091D803F091D903808180618083EA
:10256000E091D803F091D903808188608083E09165
:10257000D803F091D903808180688083E091D803EB
:10258000F091D90380818F7D808310925B0310923C
:102590005A031092A4031092C5031092A20381E083
:1025A0008093A10310927C0361E082E10E94AD0B55
:1025B00061E083E10E94AD0B8091B9008E7F809332
:1025C000B9008091B9008D7F8093B90088E4809331
:1025D000B80085E48093BC008EEC90E090933C03BF
:1025E00080933B038FEC90E090933A038093390300
:1025F000E0918F04F0919004138615861486DF0114
:102600001B9633961E92EA17FB07E1F710928D0492
:1026100010928E0411E0BE01665F7F4F80918F049F
:10262000909190040E94BE0A8823F1F067E0CE01E9
:102630000A960E94B70F99898913EDCF80918D0476
:102640008F5F80938D048A85883209F438C230F414
:10265000803109F434C28232F1F631C28B3309F48D
:102660002EC28234C1F62BC261E085E00E94360D95
:1026700061E088E00E94360D61E086E00E94360D40
:1026800061E087E00E94360D61E084E00E94360D33
:1026900060E083E00E94360D60E082E00E94360D2B
:1026A00060E08AE00E94360D61E08BE00E94360D0A
:1026B00060E08CE00E94360D60E08BE00E94AD0B84
:1026C00083E694E090937D0680937C0681E080937E
:1026D0007B061092470662E070E080E090E00E9486
:1026E000890D80914706813009F03DC01FB7F894ED
:1026F00080913D03811127C0E4EAF0E08491E8EB8A
:10270000F0E09491E82FF0E0EE0FFF1FE859FF4F43
:10271000A591B491EC91E92321F461E08AE00E9453
:10272000AD0B61E08AE00E94360D8CB580618CBDF6
:102730008CB580648CBD61E08DE00E94360D61E057
:102740008BE00E94360D80913D038F5F80933D03A7
:102750001FBF61E0809149060E94360D61E08091C3
:1027600049060E94AD0B80ED0E947B0C883519F064
:10277000803609F004C289E80E947B0C182F88E893
:102780000E947B0C212F30E0322F2227280F311D91
:1027900030935706209356068BE80E947B0C182F27
:1027A0008AE80E947B0C212F30E0322F2227280F4D
:1027B000311D30935906209358068DE80E947B0CFA
:1027C000182F8CE80E947B0C212F30E0322F22271B
:1027D000280F311D30935B0620935A068FE80E9424
:1027E0007B0C182F8EE80E947B0C212F30E0322FBB
:1027F0002227280F311D30935D0620935C0681E966
:102800000E947B0C182F80E90E947B0C212F30E066
:10281000322F2227280F311D30935F0620935E064A
:1028200083E90E947B0C182F82E90E947B0C212FE8
:1028300030E0322F2227280F311D3093610620937C
:10284000600685E90E947B0C182F84E90E947B0CAE
:10285000212F30E0322F2227280F311D30936306BD
:102860002093620687E90E947B0C182F86E90E945C
:102870007B0C212F30E0322F2227280F311D30937F
:1028800065062093640689E90E947B0C182F88E96D
:102890000E947B0C212F30E0322F2227280F311D80
:1028A00030936706209366068BE90E947B0C182FF5
:1028B0008AE90E947B0C212F30E0322F2227280F3B
:1028C000311D30936906209368068DE90E947B0CC8
:1028D000182F8CE90E947B0C212F30E0322F222709
:1028E000280F311D30936B0620936A068FE90E94F2
:1028F0007B0C182F8EE90E947B0C212F30E0322FA9
:102900002227280F311D30936D0620936C0681EA33
:102910000E947B0C80936E0682EE0E947B0C182F27
:1029200081EE0E947B0C212F30E0322F2227280FCE
:10293000311D3093700620936F0683EE0E947B0C4E
:102940008093710684EE0E947B0C182F85EE0E9406
:102950007B0C8F7090E020E1129F800D911D11245F
:10296000909373068093720686EE0E947B0C182F5C
:1029700085EE0E947B0C82958F7090E0E0E11E9FB7
:10298000800D911D1124909375068093740687EE37
:102990000E947B0C8093760610914D06183008F04B
:1029A00010E085EF0E947B0CF0E21F9F9001112444
:1029B0008F71682F622B85EF0E94D30C10914E0609
:1029C000183008F010E085EF0E947B0C94E0199F0E
:1029D00090011124837E682F622B85EF0E94D30C17
:1029E000E0915006E13128F4F0E0EA5CFE4F1081FE
:1029F00001C011E084EF0E947B0C082F80E00E9450
:102A0000270D84EF0E947B0CE4E01E9F90011124AF
:102A1000837E682F622B84EF0E94D30C802F8370FB
:102A20000E94270DE0915106E13128F4F0E0EA5CC4
:102A3000FE4F108101C011E084EF0E947B0C082F33
:102A400080E00E94270D82EF0E947B0C887F682F18
:102A5000612B82EF0E94D30C802F83700E94270D80
:102A6000E0914F06E13128F4F0E0EA5CFE4F10817E
:102A700001C011E084EF0E947B0C082F80E00E94CF
:102A8000270D84EF0E947B0CF0E21F9F9001112420
:102A90008F71682F622B84EF0E94D30C802F83707C
:102AA0000E94270D83E00E94270D80ED0E947B0C81
:102AB000883509F461C0803609F061C05DC080913D
:102AC0008E048F5F80938E0480918604811126C0CE
:102AD00080918F04909190040E948D03BE01665FE7
:102AE0007F4F80918F04909190040E946C1040E081
:102AF00064EB80918F04909190040E94CF0F80919D
:102B00008F04909190040E943A03082F80918F04C3
:102B1000909190040E948D03002359F18A858031A1
:102B2000F9F0AE014F5F5F4FBE01665F7F4F86E8F1
:102B300094E00E948B10882379F08D818F3351F0BF
:102B400020F48F3149F489E00CC08F3539F08F378C
:102B500039F002C08AE005C080E003C08BE001C00C
:102B60008CE090918904981708F055CD80938904E2
:102B700052CD10938604D2CF8DE992E002C085EB4E
:102B800092E00E94B00A22242394312C0E94C30DAB
:102B900020915003309151037B01E21AF30A61E066
:102BA0008BE00E94AD0B83E290E00197F1F760E0CB
:102BB0008BE00E94AD0BEAEBF0E06491E6EAF0E016
:102BC0008491E82FF0E0EE0FFF1FE057FF4F859153
:102BD000949100E412E42FE030E0462F0E94DF11D0
:102BE000611571058105910549F0DC01CB01019664
:102BF000A11DB11DBC01CD019F7003C060E070E05C
:102C0000CB012BE330E040E050E00E94EE1C30931B
:102C1000480320934703F0EDEF16F7E0FF060CF4AE
:102C200036C342E06DEFCE0101960E94FA0B409050
:102C30007706509078066090790670907A062CE2BC
:102C4000521A21E0620A7108C980DA80DC24CD249E
:102C5000DC24E12CF12C4EE0CC0CDD1CEE1CFF1C26
:102C60004A95D1F78091720690917306092E000C57
:102C7000AA0BBB0B54E1880F991FAA1FBB1F5A95C3
:102C8000D1F7C81AD90AEA0AFB0AA0917406B091D2
:102C90007506A30192010E940D1DC61AD70AE80A03
:102CA000F90A80E4D80EE11CF11C6FE0F594E7947A
:102CB000D794C7946A95D1F7A0917106B0E00E94AD
:102CC000571C4B015C017BE0B594A79497948794C3
:102CD0007A95D1F790E8990EA11CB11CA0917606C7
:102CE0000A2E000CBB0B0E940D1DEAE095958795FE
:102CF00077956795EA95D1F7A50194010E94A81CE4
:102D0000DC01CB01FAE0B595A79597958795FA95E3
:102D1000D1F79C01AD01405E5F4FA0916F06B0916D
:102D200070060E940D1DDC01CB01905EAF4FBF4FBE
:102D3000BC01CD01AEE09595879577956795AA95ED
:102D4000D1F7A70196010E94A81C6B017C01BFE08E
:102D50009595879577956795BA95D1F79B01AC01C5
:102D60000E94A81C9B01AC0117E05595479537952B
:102D700027951A95D1F7A0916E06B0E00E94571CD6
:102D8000DC01CB0104E0B595A795979587950A9549
:102D9000D1F726013701481A590A6A0A7B0A77FED9
:102DA00003C0412C512C320143E06AEFCE01019661
:102DB0000E94FA0B2981822F90E0A0E0B0E0AC01E4
:102DC000BD013CE0440F551F661F771F3A95D1F7B0
:102DD0008A8190E0A0E0B0E0E4E0880F991FAA1F8C
:102DE000BB1FEA95D1F7482B592B6A2B7B2B8B8184
:102DF00082958F70482B8091560690915706A0E0DF
:102E0000B0E06A017B01F4E0F594E794D794C794AD
:102E1000FA95D1F7C81AD90AEA0AFB0A13E07595A0
:102E20006795579547951A95D1F7880F991FAA1F4F
:102E3000BB1F9A01AB01281B390B4A0B5B0BA091FE
:102E40005806B09159060E940D1D4B015C018BE0A4
:102E5000B594A794979487948A95D1F7A701960182
:102E6000C701B6010E94A81C9B01AC019CE05595CE
:102E70004795379527959A95D1F7A0915A06B09125
:102E80005B060E940D1DDC01CB012EE0B595A795D8
:102E9000979587952A95D1F7A5019401280F391F99
:102EA0004A1F5B1F2093770630937806409379067C
:102EB00050937A06A5E0B0E00E94571CDC01CB01DC
:102EC00080589F4FAF4FBF4F692F7A2F8B2F992775
:102ED00087FD9A950E943A1B20E030E048EC52E4CE
:102EE0000E949C1D20915206309153064091540639
:102EF000509155060E94301D6A8F7B8F8C8F9D8F5D
:102F000086E894E00E9403108FE694E00E9403108C
:102F10008EE00E94720DBC01990F880B990B0E94E4
:102F20003A1B20E030E048EC52EC0E94991B20E074
:102F300030EC4FE754E40E949C1D20E030E048EC68
:102F400052E40E94301D4B015C0160934203709378
:102F5000430380934403909345038FE00E94720DD6
:102F6000BC01990F880B990B0E943A1B20E030E0BE
:102F700048EC52EC0E94991B20E030EC4FE754E4FF
:102F80000E949C1D20E030E048EC52E40E94301D7D
:102F90006B017C0160933E0370933F038093400379
:102FA0009093410360E086E894E00E94FC106A8BF5
:102FB0007B8B8C8B9D8B61E08FE694E00E94FC10F4
:102FC0006E8B7F8B888F998F42E755E060E871E0C8
:102FD0008AE795E00E9403058C01D301C201E1E07C
:102FE0004E1651046104E9E17E0624F080E090E091
:102FF000A0E0B9E1BC01CD012CE0959587957795CE
:1030000067952A95D1F70E943A1B20E030E040E80E
:103010005AE30E94991B20E030E048EC52E40E9401
:10302000991B0E940E1E072E000C880B990B0E9404
:103030003A1B20E030E048EC52E40E949C1DAB01BA
:10304000BC01C8010E94550942E755E064E871E0FF
:103050008AE795E00E9403054A8D5B8D6C8D7D8D1E
:103060000E94550942E755E069E871E08AE795E07A
:103070000E9403058C0120E030E048EC52E46A89AC
:103080007B898C899D890E94991B0E940E1E072EA8
:10309000000C880B990B0E943A1B20E030E048ECB2
:1030A00052E40E949C1DAB01BC01C8010E9455095D
:1030B00042E755E065E971E08AE795E00E94030583
:1030C0008C0120E030E048EC52E46E897F89888DE5
:1030D000998D0E94991B0E940E1E072E000C880BD2
:1030E000990B0E943A1B20E030E048EC52E40E9429
:1030F0009C1DAB01BC01C8010E94550942E755E087
:1031000060EA71E08AE795E00E9403058C0120E007
:1031100030E048EC52E4C501B4010E94991B0E94C2
:103120000E1E072E000C880B990B0E943A1B20E004
:1031300030E048EC52E40E949C1DAB01BC01C80188
:103140000E94550942E755E06BEA71E08AE795E095
:103150000E9403058C0120E030E048EC52E4C701F6
:10316000B6010E94991B0E940E1E072E000C880BB0
:10317000990B0E943A1B20E030E048EC52E40E9498
:103180009C1DAB01BC01C8010E94550942E755E0F6
:1031900065EB71E08AE795E00E9403058C010097DA
:1031A00049F065E004960E94FD04F8011082118246
:1031B0001282138242E755E060EC71E08AE795E005
:1031C0000E9403058C01009749F065E004960E9477
:1031D000FD04F80110821182128213821A82198270
:1031E0001C821B821E821D8249E250E06BEC71E062
:1031F000CE0101960E94340F6AE0CE0101960E9432
:10320000400B85EF91E00E943C0A80914C03909125
:103210004D030E94950B88EF91E00E943C0A80913B
:10322000460390E00E94950B80E092E00E943C0AE9
:1032300080914703909148030E94950B8CE092E0A7
:103240000E94B00A80914E0390E00E948B0B85E1B2
:1032500092E00E943C0A80914F0390E00E948B0B09
:103260008DE192E00E943C0A8091490390E00E9427
:103270008B0B85EF91E00E943C0A0E94C30D709376
:1032800051036093500389819A810E94DC1E66E29B
:1032900072E085EA94E00E943A05009731F00E94BE
:1032A0002309882311F061E001C060E085E00E94FD
:1032B000AD0B6BE272E085EA94E00E943A0500975C
:1032C00031F00E942309882311F061E001C060E021
:1032D00084E00E94AD0B61E372E085EA94E00E9415
:1032E0003A05009719F00E94230901C080E08093FD
:1032F0004F03882321F091E090934E0302C0109277
:103300004E0390914E0320914903992309F473C011
:1033100040914C0350914D03433051050CF06BC06C
:1033200060914A0370914B03161617060CF463C0A4
:103330002111A9C08091470390914803439794F0CD
:10334000452B81F487E392E00E94B00A61E087E0B8
:103350000E94AD0B87E492E00E94B00A30924D03C8
:1033600020924C03809147039091480306970D9754
:10337000C0F480914C0390914D03019791F460E06B
:1033800087E00E94AD0B61E086E00E94AD0B8EE508
:1033900092E00E94B00A82E090E090934D03809307
:1033A0004C03809147039091480306970CF06BC043
:1033B00080914C0390914D03029709F064C060E046
:1033C00087E00E94AD0B60E086E00E94AD0B61E0FB
:1033D00088E00E94AD0B11E010934603E3E0F0E0BB
:1033E000F0934D03E0934C038EE692E00E94B00A06
:1033F0001093490348C02223B1F120914C0330912E
:103400004D03233031057CF120914703309148036F
:103410002A313105D4F082E892E00E94B00A10927D
:10342000490310924D0310924C0360E088E00E9423
:10343000AD0B1092460380914A0390914B03019685
:1034400090934B0380934A031EC08823E1F061E010
:1034500088E00E94AD0B81E0809346038FE892E004
:103460000E94B00A10C091110EC060E087E00E9477
:10347000AD0B60E086E00E94AD0B60E088E00E944A
:10348000AD0B109246030E94050F80CB1092C9032A
:103490001092C80388EE93E0A0E0B0E08093CA03E6
:1034A0009093CB03A093CC03B093CD032BE431E0F6
:1034B0003093C7032093C60325EC30E03093D30349
:1034C0002093D20324EC30E03093D5032093D4032F
:1034D00020EC30E03093D7032093D60321EC30E08A
:1034E0003093D9032093D80322EC30E03093DB03F0
:1034F0002093DA0326EC30E03093DD032093DC03E5
:103500001092DF031092E0031092E1031092E203A5
:103510001092660410926504809367049093680487
:10352000A0936904B0936A048DE591E090936404DC
:103530008093630482E580934A0681E080934B0682
:1035400080937B0640E856EE65EC77E440937E0678
:1035500050937F0660938006709381061092470611
:1035600097E79093480623E634E030937D06209356
:103570007C069AE09093490693E090934C06109253
:103580004D0610924E0680934F068093500680930E
:103590005106109252061092530610925406109241
:1035A000550682E795E00E9424128DE994E00E947E
:1035B000241260E089E00E94360DE7EBF0E0E49130
:1035C000E0938306E3EAF0E0E491F0E0EE0FFF1F02
:1035D000E057FF4F859194919093850680938406E0
:1035E00010928E061092900610928F06EEE8F6E08A
:1035F00086E896E012928E179F07E1F710929C04DE
:1036000010929B041092870423E836E030939004D4
:1036100020938F0410928D0410928E0410928604D1
:1036200099E09093890481E080938A0480938B04CD
:1036300080938C041092850410928404109270047C
:1036400030937904209378041092760410927704D2
:1036500010926F04909372048093730480937404A7
:103660008093750408950E94751B08F481E0089505
:10367000E89409C097FB3EF490958095709561950C
:103680007F4F8F4F9F4F9923A9F0F92F96E9BB27C2
:103690009395F695879577956795B795F111F8CF3E
:1036A000FAF4BB0F11F460FF1BC06F5F7F4F8F4FA9
:1036B0009F4F16C0882311F096E911C0772321F09F
:1036C0009EE8872F762F05C0662371F096E8862F37
:1036D00070E060E02AF09A95660F771F881FDAF78E
:1036E000880F9695879597F90895990F0008550FBB
:1036F000AA0BE0E8FEEF16161706E807F907C0F078
:1037000012161306E407F50798F0621B730B840B7F
:10371000950B39F40A2661F0232B242B252B21F459
:1037200008950A2609F4A140A6958FEF811D811DF9
:1037300008950E94AC1B0C941D1C0E940F1C38F0B5
:103740000E94161C20F0952311F00C94061C0C947A
:103750000C1C11240C94511C0E942E1C70F3959F7C
:10376000C1F3950F50E0551F629FF001729FBB2778
:10377000F00DB11D639FAA27F00DB11DAA1F649F14
:103780006627B00DA11D661F829F2227B00DA11DC7
:10379000621F739FB00DA11D621F839FA00D611D4D
:1037A000221F749F3327A00D611D231F849F600D6E
:1037B000211D822F762F6A2F11249F5750409AF097
:1037C000F1F088234AF0EE0FFF1FBB1F661F771F23
:1037D000881F91505040A9F79E3F510580F00C94EE
:1037E000061C0C94511C5F3FE4F3983ED4F386957D
:1037F00077956795B795F795E7959F5FC1F7FE2B8E
:10380000880F911D9695879597F9089597F99F6769
:1038100080E870E060E008959FEF80EC0895002458
:103820000A941616170618060906089500240A9425
:1038300012161306140605060895092E0394000CAB
:1038400011F4882352F0BB0F40F4BF2B11F460FF3A
:1038500004C06F5F7F4F8F4F9F4F089557FD905863
:10386000440F551F59F05F3F71F04795880F97FB44
:10387000991F61F09F3F79F08795089512161306FE
:103880001406551FF2CF4695F1DF08C0161617062D
:103890001806991FF1CF8695710561050894089562
:1038A000E894BB2766277727CB0197F908950E94F4
:1038B000991CA59F900DB49F900DA49F800D911D04
:1038C000112408952F923F924F925F926F927F92B0
:1038D0008F929F92AF92BF92CF92DF92EF92FF9220
:1038E0000F931F93CF93DF93CDB7DEB7CA1BDB0BCC
:1038F0000FB6F894DEBF0FBECDBF09942A88398871
:1039000048885F846E847D848C849B84AA84B98477
:10391000C884DF80EE80FD800C811B81AA81B98183
:10392000CE0FD11D0FB6F894DEBF0FBECDBFED0197
:103930000895A29FB001B39FC001A39F700D811D88
:103940001124911DB29F700D811D1124911D0895A8
:10395000DB018F939F930E94571CBF91AF91A29F51
:10396000800D911DA39F900DB29F900D112408957D
:1039700097FB072E16F4009407D077FD09D00E941C
:10398000151D07FC05D03EF4909581959F4F089535
:10399000709561957F4F0895A1E21A2EAA1BBB1B5B
:1039A000FD010DC0AA1FBB1FEE1FFF1FA217B3070B
:1039B000E407F50720F0A21BB30BE40BF50B661F21
:1039C000771F881F991F1A9469F7609570958095E5
:1039D00090959B01AC01BD01CF010895052E97FB89
:1039E0001EF400940E94051D57FD07D00E94CC1CB8
:1039F00007FC03D04EF40C94051D5095409530956E
:103A000021953F4F4F4F5F4F08959095809570954A
:103A100061957F4F8F4F9F4F0895B7FF0C94571CB0
:103A20000E94571C821B930B0895AA1BBB1B51E1DC
:103A300007C0AA1FBB1FA617B70710F0A61BB70B1E
:103A4000881F991F5A95A9F780959095BC01CD01C3
:103A50000895EE0FFF1F0590F491E02D0994505842
:103A6000BB27AA270E94471D0C941D1C0E940F1CF7
:103A700038F00E94161C20F039F49F3F19F426F408
:103A80000C940C1C0EF4E095E7FB0C94061CE92F3B
:103A90000E942E1C58F3BA17620773078407950714
:103AA00020F079F4A6F50C94501C0EF4E0950B2E42
:103AB000BA2FA02D0B01B90190010C01CA01A00180
:103AC0001124FF27591B99F0593F50F4503E68F1DB
:103AD0001A16F040A22F232F342F4427585FF3CF1C
:103AE000469537952795A795F0405395C9F77EF4ED
:103AF0001F16BA0B620B730B840BBAF09150A1F036
:103B0000FF0FBB1F661F771F881FC2F70EC0BA0FBB
:103B1000621F731F841F48F4879577956795B79543
:103B2000F7959E3F08F0B0CF9395880F08F099273E
:103B3000EE0F9795879508950E94B01D0C941D1C5B
:103B40000E94161C58F00E940F1C40F029F45F3FA1
:103B500029F00C94061C51110C94511C0C940C1C53
:103B60000E942E1C68F39923B1F3552391F3951B02
:103B7000550BBB27AA2762177307840738F09F5F8E
:103B80005F4F220F331F441FAA1FA9F335D00E2EFB
:103B90003AF0E0E832D091505040E695001CCAF768
:103BA0002BD0FE2F29D0660F771F881FBB1F26172B
:103BB00037074807AB07B0E809F0BB0B802DBF0102
:103BC000FF2793585F4F3AF09E3F510578F00C94D1
:103BD000061C0C94511C5F3FE4F3983ED4F3869589
:103BE00077956795B795F7959F5FC9F7880F911DF2
:103BF0009695879597F90895E1E0660F771F881FDE
:103C0000BB1F621773078407BA0720F0621B730B90
:103C1000840BBA0BEE1F88F7E09508950E94151EDD
:103C20006894B1110C94511C08950E94361C88F0C0
:103C30009F5798F0B92F9927B751B0F0E1F0660F70
:103C4000771F881F991F1AF0BA95C9F714C0B130B1
:103C500091F00E94501CB1E008950C94501C672F05
:103C6000782F8827B85F39F0B93FCCF386957795E0
:103C70006795B395D9F73EF49095809570956195C9
:103C80007F4F8F4F9F4F08950F931F93CF93DF93D5
:103C90008230910510F482E090E0E0919406F0917A
:103CA000950620E030E0A0E0B0E0309719F14081C7
:103CB00051810281138148175907C8F0841795076D
:103CC00069F4109731F012960C93129713961C9387
:103CD00027C0009394061093950622C02115310544
:103CE00019F04217530718F49A01BD01EF01DF01E3
:103CF000F801DBCF21153105F9F0281B390B2430F1
:103D0000310580F48A819B816115710521F0FB01E9
:103D10009383828304C09093950680939406FE015A
:103D2000329644C0FE01E20FF31F8193919322501B
:103D30003109398328833AC0209192063091930645
:103D4000232B41F42091020130910301309393061B
:103D50002093920620910001309101012115310537
:103D600041F42DB73EB74091040150910501241B49
:103D7000350BE0919206F0919306E217F307A0F459
:103D80002E1B3F0B2817390778F0AC014E5F5F4FB1
:103D90002417350748F04E0F5F1F5093930640934A
:103DA00092068193919302C0E0E0F0E0CF01DF91B1
:103DB000CF911F910F910895CF93DF93009709F44E
:103DC00081C0FC01329713821282A0919406B091B7
:103DD0009506109781F420813181820F931F2091E5
:103DE0009206309193062817390751F5F093930600
:103DF000E093920667C0ED0120E030E0CE17DF07C8
:103E000040F44A815B819E0141155105F1F0EA01C0
:103E1000F5CFD383C28340815181840F951FC8178A
:103E2000D90759F488819981840F951F029691834F
:103E300080838A819B81938382832115310529F4B4
:103E4000F0939506E09394063DC0E901FB83EA8375
:103E500049915991C40FD51FEC17FD0761F480817A
:103E60009181840F951F0296E9019983888382814D
:103E700093819B838A83E0E0F0E012968D919C9180
:103E80001397009719F0FD01DC01F7CF8D919C91FC
:103E900011979D012E5F3F4F820F931F2091920635
:103EA000309193062817390769F4309729F4109256
:103EB00095061092940602C013821282B093930664
:103EC000A0939206DF91CF910895A0E0B0E0EBE6D9
:103ED000FFE10C94661CEC01009721F4CB010E94D9
:103EE000441EB4C0FC01E60FF71F9C0122503109AB
:103EF000E217F30708F4A8C0D9010D911C9111979E
:103F000006171707B0F00530110508F49BC0C8016B
:103F100004978617970708F495C002501109061BED
:103F2000170B019311936D937C93CF010E94DC1EBC
:103F300089C05B01A01AB10A4C01800E911EA091AC
:103F40009406B0919506612C712CE12CF12C109700
:103F500009F446C08D919C911197A815B905B1F54A
:103F60006C0142E0C40ED11CCA14DB0478F14C0190
:103F70008A189B08640142E0C40ED11C1296BC90C2
:103F800012971396AC91B5E0CB16D10440F0B282F3
:103F9000A38391828082D9016D937C9309C00E5FC7
:103FA0001F4F800F911FF90191838083EB2DFA2F12
:103FB000E114F10431F0D7011396FC93EE931297BC
:103FC00041C0F0939506E09394063CC068167906CC
:103FD00008F43C017D0112960D90BC91A02DB7CF45
:103FE000809192069091930688169906E1F46616E0
:103FF0007706C8F48091000190910101009741F487
:104000008DB79EB74091040150910501841B950B1B
:10401000E817F907C8F4F0939306E0939206F901C4
:10402000718360830FC0CB010E94441E7C01009706
:1040300059F0A801BE010E943020CE010E94DC1E72
:10404000C70104C0CE0102C080E090E0CDB7DEB76A
:10405000EEE00C94821C81E090E0F8940C944920EE
:10406000FB01DC0102C001900D9241505040D8F795
:104070000895FB01DC018D91019080190110D9F3A5
:10408000990B0895FB01DC0101900D920020E1F7EE
:064090000895F894FFCF33
:10409600000096062000CDCCCC3D0AD7233C17B7AE
:1040A600D13877CC2B329595E6241FB14F0A000004
:1040B60020410000C84200401C4620BCBE4CCA1B22
:1040C6000E5AAEC59D7400010201030101010401EF
:1040D6000101010101010500000000960E030E2DED
:1040E6000EE30E5E0E3C0E500E000000002901FC91
:1040F600005901D000F400E000D1005E00BC00775A
:104106000122225C5C6208660C6E0A720D7409005C
:1041160048756D0054656D700054656D706C6F6DFB
:104126006272697A0054656D70706C616E746100BC
:1041360048756D6C6F6D6272697A0048756D706C4A
:10414600616E746100666C6F7431737461746500BE
:10415600666C6F74327374617465007B226D6F6474
:104166006F223A66616C73652C2276616C766122E9
:104176003A66616C73652C2276616C7668223A74B5
:104186007275657D000D0A0048756D75733A2000DD
:1041960064697374616E6369613A200020617578A1
:1041A60068323A200020617578683A2000206175EF
:1041B6007868333A20006D6F646F0076616C7661C3
:1041C6000076616C766800617578683320657320C7
:1041D60066616C736F2100616D626F7320666C6F30
:1041E6007461646F7265732066616C736500666CDA
:1041F6006F7461646F722031207472756500666C2D
:104206006F7461646F722031207920322074727568
:1042160065006E6F206861792068756D7573006141
:10422600756E2068617920666C756A6F0053656EDD
:10423600736F722064652048756D20792054656D12
:1042460070204F4B004E6F207365207075646F2091
:1042560065737461626C6563657220636F6D756EFC
:104266006963616369C3B36E20636F6E20656C20FA
:1042760073656E736F722064652048756D207920B2
:0642860054656D702E006E
:00000001FF
