:100000000C9472000C949A000C949A000C949A0030
:100010000C949A000C949A000C949A000C949A00F8
:100020000C949A000C949A000C949A000C949A00E8
:100030000C949A000C949A000C949A000C949A00D8
:100040000C940C180C949A000C942B020C9405023E
:100050000C949A000C949A000C949A000C949A00B8
:100060000C94D0040C949A00005EBCE2613FDD83E6
:10007000C29C7E20A3FD1F41009D23BE46DB65F888
:100080008C11AF32CA57E97400000000230026002B
:10009000290004040404040404040202020202020B
:1000A000030303030303010204081020408001023C
:1000B00004081020010204081020000000002400A1
:1000C00027002A0000000000250028002B00000067
:1000D0000008000201000003040700000000000007
:1000E0000000F02111241FBECFEFD8E0DEBFCDBF4E
:1000F00026E0A4EBB2E001C01D92AD36B207E1F7F5
:1001000012E0A0E0B1E0E4EFFFE402C005900D9240
:10011000A43BB107D9F710E0C2E7D0E004C02197B3
:10012000FE010E94D324C137D107C9F70E949B1852
:100130000C94F8270C940000CF92DF92EF92FF927C
:100140000F931F93CF93DF936C017A018B01C0E073
:10015000D0E0CE15DF0581F0D8016D918D01D6017B
:10016000ED91FC910190F081E02DC6010995892B5C
:1001700011F02196EECF7E01C701DF91CF911F9143
:100180000F91FF90EF90DF90CF900895FC01538D79
:10019000448D252F30E0842F90E0821B930B541761
:1001A00010F0CF96089501970895FC01918D828DEE
:1001B000981761F0828DDF01A80FB11D5D968C91BB
:1001C000928D9F5F9F73928F90E008958FEF9FEFC6
:1001D0000895FC01918D828D981731F0828DE80F82
:1001E000F11D858D90E008958FEF9FEF0895FC013C
:1001F000918D228D892F90E0805C9F4F821B910909
:100200008F739927089588E593E00E94F70021E015
:10021000892B09F420E0822F0895FC01848DDF01F1
:10022000A80FB11DA35ABF4F2C91848D90E0019669
:100230008F739927848FA689B7892C93A089B18958
:100240008C91837080648C93938D848D981306C0F9
:100250000288F389E02D80818F7D80830895EF925D
:10026000FF920F931F93CF93DF93EC0181E0888F70
:100270009B8D8C8D981305C0E889F989808185FD57
:1002800026C0F62E0B8D10E00F5F1F4F0F73112746
:10029000E02E8C8DE8120CC00FB607FCFACFE8896F
:1002A000F989808185FFF5CFCE010E940D01F1CF44
:1002B0008B8DFE01E80FF11DE35AFF4FF0829FB7CF
:1002C000F8940B8FEA89FB89808180620AC09FB70E
:1002D000F894EE89FF896083E889F98980818370C9
:1002E000806480839FBF81E090E0DF91CF911F9178
:1002F0000F91FF90EF900895CF93DF93EC01888DDD
:100300008823C9F0EA89FB89808185FD05C0A88919
:10031000B9898C9186FD0FC00FB607FCF5CF80819F
:1003200085FFF2CFA889B9898C9185FFEDCFCE01E9
:100330000E940D01E7CFDF91CF9108950E94030144
:1003400081110C949A0A089585ED8093BC008091E8
:10035000BC0084FDFCCF10925703089508950895C2
:100360000895E091100380910F03E81730F4F0E056
:10037000EF5EFC4F808190E008958FEF9FEF08952E
:100380009091100380910F03981750F4E92FF0E03B
:10039000EF5EFC4F208130E09F5F9093100302C01E
:1003A0002FEF3FEFC901089580910F0390E0209156
:1003B0001003821B910908950E94DA270F931F935F
:1003C000CF93DF93EC0188819981009729F02A81EE
:1003D0003B812617370788F48B016F5F7F4F0E94A0
:1003E0001427009761F0998388831B830A832C81EB
:1003F0003D81232B11F4FC01108281E001C080E0DB
:10040000DF91CF911F910F9108951F920F920FB618
:100410000F9211242F933F934F935F936F937F938A
:100420008F939F93AF93BF93EF93FF9388E593E0F0
:100430000E940D01FF91EF91BF91AF919F918F911C
:100440007F916F915F914F913F912F910F900FBED0
:100450000F901F9018951F920F920FB60F921124B4
:100460002F938F939F93EF93FF93E0916803F09105
:1004700069038081E0916E03F0916F0382FD12C0E9
:100480009081809171038F5F8F7320917203821727
:1004900051F0E0917103F0E0E85AFC4F958F8093A2
:1004A000710301C08081FF91EF919F918F912F91F6
:1004B0000F900FBE0F901F901895DC0180E06150E7
:1004C00098F02D91982F9227E92FEF70F0E0E859DE
:1004D000FF4F249192959F70E92FF0E0E858FF4F6D
:1004E000E491822F8E27EBCF0895FC01908101804B
:1004F000F281E02DF8948181892B81832281892FDB
:10050000809528232283A7E0B0E01197F1F721819D
:1005100082238183A3E2B0E01197F1F78081789480
:10052000EFECF0E03197F1F7982381E009F480E0F7
:100530000895FC0190810180F281E02D892F809542
:1005400060FF12C0F8942281822382838181892BEB
:100550008183A3E2B0E01197F1F78281982B928317
:10056000789487ED90E011C0F894228182238283F1
:100570008181892B8183AFEFB0E01197F1F7828100
:10058000982B928378948FE090E00197F1F708958B
:10059000DF92EF92FF920F931F93CF93DF93EC01C3
:1005A000D62EE42E08E010E0FF24F39461E08D2DB8
:1005B0008F2109F460E0CE010E949902FF0C0150E6
:1005C0001109A1F7E11010C0F894E981FA81918135
:1005D0008881809589238183E981FA81928188814C
:1005E0008095892382837894DF91CF911F910F9119
:1005F000FF90EF90DF900895EF92FF920F931F937B
:10060000CF93DF938C017B0140E065E50E94C80237
:10061000E70188E0E80EF11C699140E0C8010E9402
:10062000C802CE15DF05C1F7DF91CF911F910F9161
:10063000FF90EF900895DC012C911196ED91FC91C3
:100640001297F8948181922F9095892381837894D1
:100650008DE743E050E0815021F1DA011197F1F785
:1006600030813223C1F3F89482818923828381818E
:10067000822B81837894ABE7B7E01197F1F7F89478
:1006800081819823918383E191E00197F1F7808143
:10069000282381E009F080E07894E3E6F6E03197E2
:1006A000F1F70895CF92DF92EF92FF92CF93DF930D
:1006B000EC0189859A850E941B0340E06CEC8985DA
:1006C0009A850E94C802488164E489859A850E94BF
:1006D000C8028C81882309F447C08D818823D9F012
:1006E0008881811118C00E9400186B017C018985E6
:1006F0009A850E9475028130B9F10E940018DC01D0
:10070000CB018C199D09AE09BF098E3E9240A1050F
:10071000B10568F329C0EB81E950E33040F4F0E023
:10072000EE0FFF1FE95EFE4F8081918102C08EEEC9
:1007300092E06C01E12CF12C8981882321F060E0AA
:100740008A810E94D514C701B6010E94C61789810B
:10075000882351F061E08A81DF91CF91FF90EF9083
:10076000DF90CF900C94D514DF91CF91FF90EF9054
:10077000DF90CF9008954F925F926F927F928F9209
:100780009F92AF92BF92CF92DF92EF92FF920F9320
:100790001F93CF93DF938C017B01EA01FC018185DC
:1007A00092850E941B03882309F443C0B701F80116
:1007B000818592850E94FC0240E06EEBF801818504
:1007C00092850E94C8027E015E01F9E0AF0EB11C65
:1007D0006E01F8016184728488E0882E912C512C7E
:1007E00044244394C3010E94750281115428440C8F
:1007F000F1E08F1A9108B1F7F60151926F01AE1630
:10080000BF0639F7F801818592850E941B0381306C
:1008100081F4F70181917F01811104C0EA15FB0584
:10082000C1F707C068E0CE010E945D0291E0288513
:10083000281390E0892FDF91CF911F910F91FF90A6
:10084000EF90DF90CF90BF90AF909F908F907F9070
:100850006F905F904F900895EF92FF920F931F93C8
:10086000CF93DF93CDB7DEB761970FB6F894DEBFB5
:100870000FBECDBF7C01062FDC011996ED91FC91D6
:100880001A97138615861486DF011B9633961E92DF
:10089000AE17BF07E1F710E0BE01665F7F4FF701BB
:1008A000818592850E94EC0C882369F0011308C0B1
:1008B00067E0CE010A960E945D029989891741F08E
:1008C0001F5F011748F760E070E08EEF92EC50C0B8
:1008D000AE014F5F5F4FBE01665F7F4FC7010E9451
:1008E000BB03882309F441C02A8130E0C901982F55
:1008F0008827990F990F990F6981F8E06F9FB001D0
:1009000011249C01262B372B8A858031D9F46885E8
:100910006623C1F070E08F81AB01481B5109CA0109
:100920009695982F8827979587950E946224605204
:100930007109207F53E0220F331F5A95E1F7620FB0
:10094000731F01C0B901613854EE75070CF4BBCFB9
:10095000072E000C880B990B0E94E42220E030E067
:1009600040E05CE30E94432303C060E874EEEBCFF9
:1009700061960FB6F894DEBF0FBECDBFDF91CF9169
:100980001F910F91FF90EF90089508958EBD000084
:100990000DB407FEFDCF8EB508958CBD9DBD0895A5
:1009A0001F920F920FB60F9211242F933F934F93E4
:1009B0005F936F937F938F939F93AF93BF93EF93C7
:1009C000FF938091B900887F803609F49CC068F558
:1009D000883209F45BC090F4803109F454C038F4D3
:1009E000882309F4F6C0883009F44DC0F6C0883178
:1009F00009F44CC0803209F45DC0EFC0803409F4C2
:100A000068C048F4803309F455C0883309F0E5C064
:100A100080935503D8C0803509F44FC0883509F458
:100A20005DC0883409F0D9C0D6C0883909F4C7C080
:100A3000A8F4883709F467C038F4883609F463C02D
:100A4000803709F460C0C9C0883809F4B8C080395B
:100A500009F45FC0803809F0C0C05BC0803B09F476
:100A600086C038F4803A09F466C0883A09F47FC039
:100A7000B4C0803C09F4A7C0883C09F4A4C0883BFA
:100A800009F48AC0AAC08091520310C09091540307
:100A900080915303981770F5E091540381E08E0F15
:100AA00080935403F0E0EF5CFC4F80818093BB00A7
:100AB00085EC86C0809355038EC0E091540381E09D
:100AC0008E0F809354038091BB00F0E0EF5CFC4FED
:100AD000808390915403809153036EC0E09154033E
:100AE00081E08E0F809354038091BB00F0E0EF5CB7
:100AF000FC4F80838091560381116DC081E080930B
:100B0000510384EA61C083E08093570310920A0383
:100B1000CFCF80910A03803208F051C0E0910A03E0
:100B200081E08E0F80930A038091BB00F0E0E651D4
:100B3000FD4F8083BDCF85EC8093BC00109257039E
:100B400080910A03803230F4E0910A03F0E0E6512C
:100B5000FD4F108260910A0370E0E091C602F091AF
:100B6000C7028AEE92E0099510920A0336C084E02B
:100B7000809357031092E9021092E802E091C402B8
:100B8000F091C50209958091E802811105C081E0CC
:100B90008093E8021092C802E091E90281E08E0F92
:100BA0008093E902F0E0E853FD4F80818093BB0021
:100BB0009091E9028091E802981708F479CF85E8CE
:100BC0008093BC000AC085EC8093BC001092570350
:100BD00004C0109255030E94A401FF91EF91BF91B0
:100BE000AF919F918F917F916F915F914F913F91C5
:100BF0002F910F900FBE0F901F9018954091E80213
:100C0000262F30E0240F311D21323105DCF42091F4
:100C100057032430C9F4FC0180E090E0861758F4B3
:100C20003091E8022191DC01A853BD4FA30FB11D03
:100C30002C930196F3CF8091E802680F6093E8024D
:100C400080E0089581E0089582E00895FC018081AC
:100C50009181892B21F460E070E0CB01089562EA74
:100C60007EE080E090E00895CF93009769F1FC0169
:100C700084818F77883028F4853030F48330D8F43D
:100C800023C0883059F020C0C1E080819181A281C9
:100C9000B381892B8A2B8B2BC1F416C0C1E020E0D5
:100CA00030E0A90160817181828193810E94DD22FF
:100CB00081110BC009C06081718187E892E00E94B8
:100CC000E827C1E0892B09F0C0E08C2FCF9108956F
:100CD000962F882311F061E001C060E0892F0C9409
:100CE000D514FC0184819581009799F0228133818C
:100CF000468157812417350718F01582148208950C
:100D0000A9014F5F5F4F53834283FC01E20FF31F42
:100D100060830895CF93DF93DC01EB01EC81FD81CB
:100D20008A819B810896E817F90718F480E090E023
:100D300021C03897FD83EC833097C1F31296CD9193
:100D4000DC911397209751F0CF018C1B9D0B23E072
:100D5000959587952A95E1F78D8303C01196FC93AD
:100D6000EE931396FC93EE931297158214821782DA
:100D70001682CF01DF91CF9108952F923F924F922B
:100D80005F927F928F929F92AF92BF92CF92DF92AB
:100D9000EF92FF920F931F93CF93DF93CDB7DEB700
:100DA000C654D1090FB6F894DEBF0FBECDBF8C017B
:100DB0007B010E94361427969FAF8EAF2797CE01F6
:100DC0008B5B9F4F0E942606672B09F087C080FD32
:100DD00085C0C8010E9491138B3549F560E4C701B5
:100DE00004960E945E10D70111961C921E921396D3
:100DF0001C921E921297F8018085882359F1C80130
:100E00000E9491138B3509F0CAC1D8011A961C9221
:100E1000C8010E9436149A838983CE0101960E94EC
:100E20002606672B09F0EEC180FDECC15EC08B3752
:100E300071F560E2C70104960E945E10D701119619
:100E40001C921E9213961C921E921297F801808596
:100E5000811102C085E054C3C8010E9491138B37F1
:100E600009F09DC1D8011A961C92C8010E9436143F
:100E700025969FAF8EAF2597CE018D5B9F4F0E9429
:100E80002606672B09F0A7C180FDA5C199C0C8013E
:100E90000E949113873209F4A5C1823209F4A2C1DC
:100EA000C8010E949113C82E9E012F5F3F4F590128
:100EB000D12C8C2D0E944013882309F43FC1FFE3FD
:100EC000DF1609F43BC1F8011286D394D501CD9207
:100ED0005D01C8010E949113C82EEBCF26968FADFD
:100EE000269727969FAD27970CC3C8010E949113A0
:100EF0008D35B1F1D8016D917C91C7010E948A06B0
:100F0000BC01892B09F451C0F8019085915090875C
:100F1000C8010E94BD069A838983D80118968C91D6
:100F200018978F5F18968C93CE0101960E94260623
:100F3000672B09F067C180FD65C1C8010E943614A6
:100F40009A838983CE0101960E942606672B09F0B9
:100F500059C180FD57C1C8010E9491138D3539F5E3
:100F6000F8011286CCC2C8010E9491138C3209F09C
:100F700016C1F8011286C8010E94361425969FAF4B
:100F80008EAF2597CE018D5B9F4F0E942606672B63
:100F900009F021C180FD1FC1D8016D917C91C7016D
:100FA0000E948A066C01892B89F483E0A9C2C801DA
:100FB0000E9491138C3209F0F2C0F80112869ACF88
:100FC000C8010E9491138D3739F7CACFC8010E941A
:100FD0009113873211F08232A9F4BE016F5B7F4F0B
:100FE000C8010E94A81325969FAF8EAF2597CE010A
:100FF0008D5B9F4F0E942606672B09F0ECC080FF97
:101000005BC0E9C0D8011696ED91FC91179722813B
:1010100033818481958193838283FA83E9831C825F
:101020001B823E832D83821B930B98878F83C8017D
:101030000E949113B82E8823E1F18B2D0E9440135A
:10104000882389F1F80112866B2DCE0101960E944A
:101050007106C8010E949113B82E0E94401381119D
:10106000F1CF60E0CE0101960E9471068D819E81D4
:10107000892B71F0E981FA818B819C812F813885E0
:10108000821B930B22813381820F931F9383828370
:101090008D819E8123969FAF8EAF2397892B31F44C
:1010A00083E090E0A0CF82E090E09DCF80E090E0F0
:1010B0009ACF81E090E097CF23962EAD3FAD239756
:1010C000F60184818068848337832683C8010E9467
:1010D000361425969FAF8EAF2597CE018D5B9F4F1F
:1010E0000E942606672B09F076C080FD74C0C801F7
:1010F0000E9491138A3309F052C0D8011A961C92AB
:101100001A9718968C911897815018968C93B6015F
:10111000C8010E94BD0625969FAF8EAF2597F801A6
:1011200080858F5F8087CE018D5B9F4F0E94260652
:10113000672B09F050C080FF34C04DC0E1E0F0E003
:10114000EC0FFD1FED0DF11D10828981843709F42C
:1011500069C0863609F479C08E3609F487C08B32AF
:1011600009F48BC08D3209F08BC08A817724739487
:101170008E3609F4B4C16E01F2E0CF0ED11C8E346C
:1011800009F4ADC1982F9F7D993409F43DC190EDCC
:10119000980F9A3008F47AC08E3209F477C082E052
:1011A000AFC1C8010E94361425969FAF8EAF259718
:1011B000CE018D5B9F4F0E942606672B61F480FD58
:1011C0000AC0C8010E9491138D3709F0CCCED80116
:1011D0001A961C9294C124968FAD249725969FADA4
:1011E00025978FC1BE016F5B7F4FC8010E94A81376
:1011F0009A838983CE0101960E942606672B11F4FB
:1012000080FF03C089819A817CC123960EAD1FADFA
:10121000239764E0C70104960E945E10D7010D93E6
:101220001C936DC165E0C70104960E945E1081E0C9
:1012300090E0A0E0B0E0F70180839183A283B383C4
:1012400090E0F4E0DF125DC116C065E0C7010496CE
:101250000E945E10D7011D921D921D921C92139741
:1012600081E090E0B5E0DB124CC105C081E090E088
:10127000E4E0DE1246C180E044C18A81712C78CF5F
:10128000712C9E012F5F3F4F690179CF812C912CEA
:101290005401F601819110ED180F1A3028F53AE942
:1012A000831639E99306A30639E1B306F8F4AAE0F8
:1012B000B0E0A50194010E9401244B015C01812F43
:1012C00090E0A0E0B0E0AC01BD0140955095609584
:1012D0007095481559056A057B0540F0880E991EE2
:1012E000AA1EBB1E6F01D5CF882339F000E06AE04B
:1012F000262E312C412C512C0EC0C701049677208C
:1013000009F4E3C067E00E945E10F70180829182D9
:10131000A282B382F4C08114910480E8A806B104CB
:1013200050F0C501B401A20191010E947624490147
:101330005A010F5FF0CFF601D6018D916D0190ED4E
:10134000980F9A3010F40F5FF6CF8E3209F56F01C7
:10135000BFEFCB1ADB0AF6012FEFC21AD20A1081B7
:1013600010531A30A8F43CEC831693063CE0A30615
:10137000B10488F7AAE0B0E0A50194010E9401241D
:101380004B015C01810E911CA11CB11C0150E3CFEB
:1013900020812F7D802F000F990B253409F04AC042
:1013A00021812D3219F4329651E006C02B3211F012
:1013B000319601C0329650E000E010E06AE04191C1
:1013C00020ED240F2A3080F5609F9001619F300D41
:1013D0001124042F440F110B00531109020F131F86
:1013E0009C01200F311F273231054CF3552361F04A
:1013F000772031F0812C912CA12C50E8B52E75C0AE
:10140000812C912C540171C0711007C0812C912C3A
:1014100040E8A42E4FE7B42E68C0812C912C30E810
:10142000A32EBB24BA9461C0552331F011950195C8
:10143000110902C000E010E0080F191FC501B40136
:101440000E94E2224B015C0110161106D4F4D12C4B
:1014500000FF10C084E0D89EF0011124EF58FE4F29
:101460002081318142815381C501B4010E9443230F
:101470004B015C0115950795D3940115110541F7B2
:101480001DC0119501951109D12C01151105B1F05F
:1014900000FF10C094E0D99EF0011124E75AFE4FDE
:1014A0002081318142815381C501B4010E944323CF
:1014B0004B015C0115950795D394E7CF7720A9F0F0
:1014C000B7FAB094B7F8B09410C066E00E945E100E
:1014D000D7018D929D92AD92BC92139710C0812C32
:1014E000912C80ECA82E8FE7B82E68E0C7010496F7
:1014F0000E945E10F70180829182A282B38280E016
:1015000090E0CA5BDF4F0FB6F894DEBF0FBECDBFD1
:10151000DF91CF911F910F91FF90EF90DF90CF90CF
:10152000BF90AF909F908F907F905F904F903F9033
:101530002F9008950F931F93CF93DF93CDB7DEB70E
:1015400061970FB6F894DEBF0FBECDBF81E08093E8
:10155000B4021D861C861F861E86198A188A60E0C2
:1015600070E0CE010C960E946E0D0E94940D97FDC6
:101570001BC089831A82088919890F5F1F4FB80120
:10158000CE010C960E94DE01882379F32C853D85DF
:1015900088899989BE016F5F7F4F820F931F0E94D8
:1015A000F127198B088BE1CF80914D0490914E0467
:1015B0009093500480934F0480915304909154046D
:1015C000909352048093510460E089E594E00E9476
:1015D0005E10288939898C859D85009711F48DE9E5
:1015E00092E04DE454E05A8349839C838B83820FBD
:1015F000931F9E838D8358874F838AE089871B863C
:1016000065E574E0CE0101960E94BD0660E070E0E1
:10161000CE010C960E946E0D8C859D850E948B26B6
:1016200061960FB6F894DEBF0FBECDBFDF91CF91AC
:101630001F910F910895CF92DF92EF92FF92CF9377
:10164000DF93009769F06A017B01EC0168E0049682
:101650000E945E10C882D982EA82FB8281E001C0CA
:1016600080E0DF91CF91FF90EF90DF90CF900895D1
:1016700042E050E06CE872E088E593E00C949C0056
:10168000CF93DF93009779F0FC0101900020E9F7F8
:101690003197AF01481B590BBC0188E593E00E94CC
:1016A0009C00EC0102C0C0E0D0E00E94380B8C0F1F
:1016B0009D1FDF91CF910895909157039111FCCF19
:1016C00091E090935703409356032FEF20935503D7
:1016D00010925403260F209353039093520390913A
:1016E0005203880F892B80935203809151038130DC
:1016F00061F410925103809152038093BB0080915A
:10170000BC0083FDF8CF85EC01C085EE8093BC0062
:10171000809157038130E1F380915403861710F4D0
:1017200060915403A1E3B3E0E1E1F3E080E08617C8
:1017300021F09D9191938F5FFACF08950F931F939E
:10174000CF93DF93EC01062F142F8091F7058823A8
:10175000B9F0813009F076C08091FA059091FB05CF
:101760000E94CD0460E08091F9050E94D514802F7D
:1017700080680E94C604CE01810F911D8C014FC06C
:1017800080912B06813009F05DC09091F80580931F
:101790000E0390930D0310920C0310920B03809193
:1017A0002C0690912D06DC01ED91FC910190F081C9
:1017B000E02D099561E080912C0690912D060E9404
:1017C000D10F612F113208F060E241E08091F805FD
:1017D0000E945C0B1092100380930F03CE01810FC7
:1017E000911D8C0180912C0690912D06DC01ED91CC
:1017F000FC910084F185E02D0995892B19F1C01722
:10180000D10701F180912C0690912D06DC01ED911C
:10181000FC910284F385E02D09958993E3CFC017ED
:10182000D10729F080E00E94C6048993F8CF61E0D7
:101830008091F9050E94D514DF91CF911F910F91EE
:101840000C94C504DF91CF911F910F910895CF9310
:10185000DF931F92CDB7DEB7682F19828091F7050D
:10186000882349F0813009F04BC041E0CE01019658
:101870000E949E0B45C080912B06813009F040C02C
:101880009091F80580930E0390930D0310920C0332
:1018900010920B0380912C0690912D06DC01ED91A6
:1018A000FC910190F081E02D099561E080912C067A
:1018B00090912D060E94D10F41E061E08091F805E2
:1018C0000E945C0B1092100380930F0380912C06F2
:1018D00090912D06DC01ED91FC910084F185E02DC5
:1018E0000995892B69F080912C0690912D06DC01D9
:1018F000ED91FC910284F385E02D09958983E6CF73
:1019000089810F90DF91CF910895CF93DF93D82FE6
:10191000C62F8091F7058823F1F0813009F04AC085
:101920008091FA059091FB050E94CD0460E08091C2
:10193000F9050E94D5148D2F8F770E94C6048C2F35
:101940000E94C60461E08091F9050E94D514DF91E0
:10195000CF910C94C50480912B06813059F590915C
:10196000F80580930E0390930D0310920C031092D0
:101970000B0380912C0690912D06DC01ED91FC91DA
:101980000190F081E02D6D2F099580912C069091AA
:101990002D06DC01ED91FC910190F081E02D6C2F82
:1019A000099561E080912C0690912D06DF91CF91F1
:1019B0000C94D10FDF91CF910895CF93C82F84302D
:1019C00008F0C0E084EF0E94270C8C7F682F6C2BFE
:1019D00084EFCF910C94850CBF92CF92DF92EF925F
:1019E000FF920F931F93CF93DF93EC016B018D85D3
:1019F000811105C0CE010E941B03811105C01B8609
:101A00001D861C8680E060C040E060EFCE010E9431
:101A1000C80201E0E12CB12C11E0CE010E94750258
:101A2000F82ECE010E94750291E0F91203C08130B8
:101A3000B1F434C02E2D30E0F8121BC08B8518177E
:101A400038F4FE01E20FF31F8381802341F402C0CA
:101A5000811729F0F12C193058F41C8709C0FE01B8
:101A6000EE0DF11D8381802B8383FF24F39409C045
:101A7000B12EFE01E20FF31F9381802F8095892301
:101A800083836F2DCE010E9499021F5F000F11F416
:101A9000E39401E087E08E1508F0BFCF113408F41D
:101AA000AECFBB86B11002C081E08D878B818823C9
:101AB00009F4A5CFDE011396F6012B968D91819343
:101AC000CA17DB07D9F781E0DF91CF911F910F9102
:101AD000FF90EF90DF90CF90BF9008950F931F93EA
:101AE000CF93DF93EC018B010E94DE0128813981C5
:101AF00081110DC02115310519F0C9010E948B26F5
:101B0000198218821D821C821B821A8207C01D83C3
:101B10000C836DE972E0C9010E94F127CE01DF91CB
:101B2000CF911F910F9108950F931F930E9400185A
:101B300060936003709361038093620390936303E7
:101B400088E593E00E94D50097FF1FC00E9400180F
:101B5000009160031091610320916203309163034F
:101B6000DC01CB01801B910BA20BB30B00915C033A
:101B700010915D0320915E0330915F038017910700
:101B8000A207B307E8F28FEF9FEF1F910F9108951F
:101B9000AF92BF92CF92DF92EF92FF920F931F937B
:101BA000CF93DF93EC0188819981892B31F06EBD51
:101BB0000DB407FEFDCFAEB496C088859985892BFC
:101BC00011F010E801C011E0BB24B394862F8123EB
:101BD00009F0B12C062F2C813D814E815F8160E29E
:101BE00071EA87E090E00E947624F22EA02EE12C8C
:101BF000C22ED12CFF2019F0C6010E94BB178A8586
:101C0000877FB9F58D858F3FB9F0902F912381E0C3
:101C100009F480E0B81681F0EF85F8898F8999235F
:101C200031F09081892B8083BB24B39405C09081CF
:101C3000809589238083B12CE989FA899081898DE7
:101C4000892B8083FF2019F0C6010E94BB178E8567
:101C50008F3F39F0EB89FC899081888D892309F0C9
:101C6000E12AE989FA899081898D80958923808389
:101C70002CC0E989FA899081898D892B8083FF2086
:101C800019F0C6010E94BB178D858F3F69F0EF8563
:101C9000F8898F89902F912319F09081892B03C0A7
:101CA0009081809589238083E989FA899081898D43
:101CB0008095892380838E858F3F39F0EB89FC895D
:101CC0009081888D892309F0E12A8E858F3F09F064
:101CD000AE2C88859985892B21F4110F11118ACF9B
:101CE00002C01695FBCF8A2DDF91CF911F910F91E6
:101CF000FF90EF90DF90CF90BF90AF900895FF924C
:101D00000F931F93CF93DF93EC018A01F22E898109
:101D10009A81DC01ED91FC910280F381E02D09951F
:101D20000817190739F46F2D89819A810E94D10F04
:101D300091E0811190E0892FDF91CF911F910F9158
:101D4000FF900895089580E090E00895CF93DF9389
:101D5000EC0188819981461B570BDC01ED91FC91C8
:101D60000280F381E02D09952A813B81820F931F28
:101D70009B838A83DF91CF910895EF92FF921F9307
:101D8000CF93DF93CDB7DEB766970FB6F894DEBF7B
:101D90000FBECDBF9C01CB01FE0177964E2F1F2FAA
:101DA0005AE0E52EF12CB7010E946224805D8293F7
:101DB000CB010097C1F7512FBF01C9010E94A60EA8
:101DC00066960FB6F894DEBF0FBECDBFDF91CF9100
:101DD0001F91FF90EF900895CF93DF93EC018881DE
:101DE0009981DC01ED91FC910190F081E02D099544
:101DF0002A813B81820F931F9B838A83DF91CF913E
:101E000008958F929F92AF92BF92CF92DF92EF92FE
:101E1000FF920F931F93CF93DF93CDB7DEB76697F3
:101E20000FB6F894DEBF0FBECDBF7C018E01095EF8
:101E30001F4F68018AE0882E912CA12CB12CCB0178
:101E4000BA01A50194010E947624942F852F605D2C
:101E5000F80162938F01A901692F782F411551056F
:101E60006105710561F7A601BF01C7010E94A60EB9
:101E700066960FB6F894DEBF0FBECDBFDF91CF914F
:101E80001F910F91FF90EF90DF90CF90BF90AF9098
:101E90009F908F900895CF92DF92EF92FF920F93D1
:101EA0001F93CF93DF937C01CB018A0120910E0316
:101EB000222389F0EB016B01C40ED51ECC15DD0584
:101EC00069F06991D701ED91FC910190F081E02DCD
:101ED000C7010995F3CF642F0E94FE05C801DF9169
:101EE000CF911F910F91FF90EF90DF90CF900895C9
:101EF000CF93DF931F92CDB7DEB7698320910E0396
:101F00002223D1F020910B03203240F021E030E079
:101F1000FC013383228380E090E015C080910C03A4
:101F2000E82FF0E0E05CF94F998190838F5F809318
:101F30000C0380930B0305C061E0CE0101960E9463
:101F4000FE0581E090E00F90DF91CF9108950F930F
:101F50001F93CF93DF93EC018B012097E1F06E810B
:101F60007F810115110519F06115710521F46017C4
:101F7000710731F410C0C8010E94E827892B59F07D
:101F80008D81882331F098E08902C00DD11D112484
:101F9000E4CFC0E0D0E0CE01DF91CF911F910F914F
:101FA000089530910B03313208F04AC080915703F5
:101FB0008111FCCF90910D0322E020935703609391
:101FC00056032FEF2093550310925403309353037D
:101FD000E0E4F6E0A1E3B3E020E0321721F0419124
:101FE0004D932F5FFACF1092520320915203990F15
:101FF000922B9093520390915103913061F410927F
:102000005103909152039093BB009091BC0093FDBB
:10201000F8CF95EC01C095EE9093BC0090915703DA
:102020009230E1F3909155039F3F79F080915503F1
:10203000803241F080915503803331F084E005C057
:1020400081E003C082E001C083E010920C03109293
:102050000B0310920E0308951092100310920F03B9
:1020600010920C0310920B031092570381E080939F
:1020700056031092510361E082E10E94D51461E0A1
:1020800083E10E94D514E9EBF0E080818E7F8083AC
:1020900080818D7F808388E48093B80085E480937D
:1020A000BC008EEA91E09093C5028093C4028FEA4F
:1020B00091E09093C7028093C6020895FC0190813D
:1020C0009078692B60830895CF93DF93EC0188812A
:1020D0009981FB0101900020E9F73197AF01461B80
:1020E000570BDC01ED91FC910280F381E02D099505
:1020F0002A813B81820F931F9B838A83DF91CF913B
:102100000895FF920F931F93CF93DF93611571058D
:1021100049F469EF71E0DF91CF911F910F91FF902A
:102120000C9464108B01EC0162E2CE010E94EC0E73
:10213000F80161918F01662351F0EFE8F2E0F08041
:10214000FF2099F38181681759F03296F8CF62E247
:10215000CE01DF91CF911F910F91FF900C94EC0E67
:102160006CE5CE010E94EC0E6F2DDFCF2F923F92D7
:102170004F925F926F927F928F929F92AF92BF9297
:10218000CF92DF92EF92FF920F931F93CF93DF9343
:10219000CDB7DEB766970FB6F894DEBF0FBECDBFE2
:1021A0007C018B01DC0114968C918F77853009F4CA
:1021B000D3C068F4813008F4DEC0833008F4ACC0CA
:1021C000F70160817181C8010E94811040C288308E
:1021D00009F190F4863009F4B6C0873009F0CBC01D
:1021E000D701CD90DD90ED90FC906DE2C8010E948A
:1021F000EC0EB701A601ACC0803209F45EC0803499
:1022000009F0B9C06BE5C8010E94EC0ED701ED9052
:10221000FC904EC0F7014080518062807380A30122
:102220009201C301B2010E94DD22882319F06EE9F8
:1022300072E0A3C020E030E0A901C301B2010E9416
:10224000DD2287FF08C06DE2C8010E94EC0E77FA1C
:10225000709477F8709420E030E0A901C301B201D6
:102260000E94DD22882309F48CC0A3019201C301DE
:10227000B2010E94DA24A30192010E94DD228111A1
:1022800080C06BEA72E079C0B801C7010E94B61045
:10229000F7018581882379F0F8E08F02E00CF11CCA
:1022A0001124E114F10439F06CE2C8010E94EC0E33
:1022B000E114F10449F76DE52BC06BE7C8010E94FA
:1022C000EC0ED701ED90FC90E114F10401F1F7015F
:1022D00066817781C8010E9481106AE3C8010E946B
:1022E000EC0EB801C7010E94B610D70115968C916B
:1022F000882369F0B8E08B02E00CF11C1124E11492
:10230000F10429F06CE2C8010E94EC0EDDCF6DE70C
:10231000C8010E94EC0E9BC1DB018D919C91F701DD
:102320004281538160817181DC01ED91FC910280D9
:10233000F381E02D0995F80122813381820F931FEB
:102340009383828384C1F7014081518162817381CB
:10235000C8010E94010F7BC1F70180819181A28198
:10236000B381892B8A2B8B2B19F067E872E005C0AB
:1023700065EA72E002C069EF71E0C8010E94641072
:1023800066C120E836E948E15BE4C301B2010E947E
:10239000EE2587FF29C160E2E62EF12C75E0B72E0D
:1023A000212C312C20E030E0A901C301B2010E94B0
:1023B000EE25181694F52CEA35EC47E257E3C301F5
:1023C000B2010E94DD22181644F19FEFB91629F1DF
:1023D000AB2DB4E0AB0260011124F601EF5BFE4FC0
:1023E000A301920160817181828193810E94EE2517
:1023F00018167CF4F601EF58FE4F2081318142819E
:102400005381C301B2010E9443232B013C012E18CA
:102410003F08F594E794BA94D8CFC301B2010E9463
:10242000BF254B015C016B017C01E6E0EE8B80E493
:1024300092E4AFE0B0E08A8B9B8BAC8BBD8B9E8926
:10244000998BA92FA150AE8BBAE0CB16D104E10431
:10245000F104C8F06A897B898C899D892AE030E083
:1024600040E050E00E9476242A8B3B8B4C8B5D8BA6
:10247000C701B6012AE030E040E050E00E94762437
:1024800069017A01DCCFC501B4010E94E2229B01FF
:10249000AC01C301B2010E94D9246B017C016A899D
:1024A0007B898C899D890E94E2229B01AC01C70136
:1024B000B6010E9443232B013C010E94BF256B0102
:1024C0007C010E94E2229B01AC01C301B2010E9487
:1024D000D9249B01AC010E94DA240E94BF25C60EBC
:1024E000D71EE81EF91E8A899B89AC89BD89C8164A
:1024F000D906EA06FB06E0F09FEF891A990AA90AB5
:10250000B90A2114310489F0AAE08A169104A104C1
:10251000B10458F0BFEF2B1A3B0AC12CD12C760125
:10252000812C912C5401839403C0C12CD12C7601B1
:102530003AE0432E512C612C712CC701B601A30146
:1025400092010E947624672B682B692B41F4E9895C
:102550001E162CF469017A01E150E98BEECFB5012A
:10256000A401C8010E94010FF989FF2329F15F2E00
:102570005E0181E1A80EB11C35015A949FEF5916F6
:1025800079F0C701B6012AE030E040E050E00E9457
:102590007624605DD5016E935D0169017A01EDCF0E
:1025A000B301B9896B1B71098EE2FB018293BF01F4
:1025B000A301C8010E94A60E37FE0AC062EA72E0BB
:1025C000C8010E946410662777276219730908C042
:1025D00021143104E1F165E6C8010E94EC0EB1015D
:1025E000C8010E94BD0E33C089E8A82E81E0B82E34
:1025F00099E5C92E91E0D92E20E2E22EF12C212C72
:10260000312CA3019201D5019E918E917E916E9104
:102610005D010E94DD2218166CF0F60124893589CF
:1026200046895789C301B2010E9443232B013C0113
:102630002E0C3F1CF594E794F4E0CF1AD10881E703
:10264000A81681E0B806E9F6BB24BA94ABCE66962C
:102650000FB6F894DEBF0FBECDBFDF91CF911F91B3
:102660000F91FF90EF90DF90CF90BF90AF909F9031
:102670008F907F906F905F904F903F902F90089534
:10268000982F80ED890F8A3020F081EA890F8C31F4
:1026900010F481E008958FEB890F8A31D0F39B32DB
:1026A000C1F381E09D3221F09E3219F080E008955F
:1026B00008950895EF92FF920F931F93CF93DF93A6
:1026C000EC018B017A018C818F7749F460E2CE01B5
:1026D00004960E945E10198218821B821A828C81D5
:1026E00085FF08C0B801888199810E94A70F0097D3
:1026F00089F403C080E090E00DC0B701CE010E94D4
:102700008A06FC01892BB1F384818F778483178338
:102710000683CF01DF91CF911F910F91FF90EF9032
:102720000895FC018285811111C0A281B381848149
:102730009581A817B90711F4118606C0CD0101963D
:10274000938382838C91818781E08287818508953C
:10275000DF92EF92FF920F931F93CF93DF93CDB74A
:10276000DEB728970FB6F894DEBF0FBECDBF8C0141
:102770007B01DC011696ED91FC9117972281338144
:102780008481958193838283FA83E9831C821B82EF
:102790003E832D83821B930B98878F83C8010E94F1
:1027A0009113D82EF8011286C8010E949113D80106
:1027B0001A961C92D81649F1811103C081E090E06D
:1027C00047C08C35E1F4C8010E9491138823B1F30E
:1027D000853719F0E3E9F2E006C084E090E038C004
:1027E000891729F0329690819111FACF06C0818124
:1027F000811103C082E090E02BC0F8011286682F9F
:10280000CE0101960E947106CFCF60E0CE01019605
:102810000E9471068D819E81892B71F08B819C8134
:10282000E981FA812F813885821B930B22813381C4
:10283000820F931F938382838D819E81D7018D9315
:102840009C93892B19F483E090E002C080E090E033
:1028500028960FB6F894DEBF0FBECDBFDF91CF91A3
:102860001F910F91FF90EF90DF9008951F93CF93EA
:10287000DF93EC01CE010E9491138B302CF4893050
:102880000CF58823C1F032C08032E1F08F3219F0AC
:102890008D3061F517C01A86CE010E9491138A32DD
:1028A00019F08F32C9F01FC01A8610E0CE010E94C5
:1028B0009113811103C081E090E01AC08F3221F49E
:1028C000112311F01A86D6CF11E08A3209F010E0F8
:1028D0001A86ECCF8A3071F21A86CE010E949113CB
:1028E0008111F8CFE8CF82E090E002C080E090E074
:1028F000DF91CF911F910895FC01248125FF05C030
:10290000808191810E94A70F089580E090E0089552
:102910003FB7F8948091650690916606A09167068E
:10292000B091680626B5A89B05C02F3F19F0019607
:10293000A11DB11D3FBFBA2FA92F982F8827820F45
:10294000911DA11DB11DBC01CD0142E0660F771F95
:10295000881F991F4A95D1F70895CF93DF93EC0113
:102960008B8181110CC089819A810E942C1081E099
:102970008B83CE010E94AD14982F882391F088811B
:1029800091E090930E0380930D0310920C0310922C
:102990000B0361E089819A810E94D10F91E081113E
:1029A00090E0892FDF91CF91089590E0FC01E253F0
:1029B000FF4F2491FC01EA55FF4F3491FC01EE5684
:1029C000FF4FE491EE2309F43CC0222339F1233078
:1029D00091F038F42130A9F0223001F584B58F7DD3
:1029E00012C0273091F02830A1F02430B9F4809142
:1029F00080008F7D03C0809180008F77809380005E
:102A00000DC084B58F7784BD09C08091B0008F77E9
:102A100003C08091B0008F7D8093B000F0E0EE0F96
:102A2000FF1FEC53FF4FA591B4919FB7F89461112C
:102A300004C08C913095382302C0EC913E2B3C931E
:102A40009FBF08954F925F926F927F928F929F9255
:102A5000AF92BF92CF92DF92EF92FF920F931F93AC
:102A6000CF93DF9300D0CDB7DEB78C01DC01189691
:102A70004C906C01BBE0CB0ED11CFC018681978190
:102A800089839A83E080F180E114F10409F450C055
:102A9000418550E0D70114968D919C91159784172C
:102AA000950708F4C1C08C9191E090930E03809338
:102AB0000D0310920C0310920B0320E0BE016F5F18
:102AC0007F4FC7010E947F0E882309F4ADC0A42C5C
:102AD000B12CF701848195818A159B0508F4A4C067
:102AE000642D613208F060E241E0D7018C910E94D0
:102AF0005C0B1092100380930F0390E0A816B906A8
:102B000009F092C04601C4018C199D098A159B05E4
:102B100008F06AC0F70181819281DC01ED91FC919E
:102B20000284F385E02D0995F40181934F01EBCFE9
:102B3000E280F380E114F10409F476C02481358148
:102B40002115310511F4806809C02230310511F4D6
:102B50008F7704C02130310511F4806C8983512CAA
:102B6000F8016184712CD7018D919C911197892B6B
:102B700041F01296ED91FC911397808191810E9412
:102B8000CD0460E0F70183850E94D514CE01019643
:102B90004C015C01C501881999098615970510F04B
:102BA000560107C0D5016D915D01C7010E94C80D96
:102BB000F1CFC5018C199D098415950540F46FEF7F
:102BC000C7010E94C80DF50181935F01F2CF61E05A
:102BD000D7011B968C910E94D514F70180819181B9
:102BE000892B11F00E94C504D80118968C91F80128
:102BF000E80FF11D980140E050E0BA01E017F1073D
:102C0000C1F0762F652F542F4427D8011A968C9146
:102C1000811102C0828503C0D9011B968C91482B7B
:102C200031972F5F3F4FEACF3FEF2FEF8FEF9FEFAF
:102C300003C0342F252FCB01632F722F0F900F90DD
:102C4000DF91CF911F910F91FF90EF90DF90CF9088
:102C5000BF90AF909F908F907F906F905F904F90BC
:102C600008952F923F924F925F926F927F928F9230
:102C70009F92AF92BF92CF92DF92EF92FF920F930B
:102C80001F93CF93DF9300D0CDB7DEB78C016A01DD
:102C90007B01DC018D919C910E942215F80120801E
:102CA0003180D10118962C91253008F0FBC041E00D
:102CB00050E04A01028002C0880C991C0A94E2F795
:102CC000B1E08B1A9108092C000CAA08BB083381CB
:102CD00024013501032E04C0440C551C661C771CCE
:102CE0000A94D2F74094509460947094DC01CB0124
:102CF00084219521A621B721C820D920EA20FB20D4
:102D000004C0CC0CDD1CEE1CFF1C3A95D2F7B701B9
:102D1000A601482B592B6A2B7B2BF1014787508B3F
:102D2000618B728BE22EF12CD101AE0DBF1DC10162
:102D3000A215B30589F0F1012285211103C0FC0120
:102D4000438703C01A964C931A97452F562F672F27
:102D5000772701961197ECCF6D01FBE0CF0ED11CC8
:102D600016968C91169717969C91179789839A833C
:102D70000D911C91119701151105B1F11996AC90A7
:102D8000B12C95012E0D3F1DD80114968D919C916B
:102D900015978217930708F485C0F801808191E0A8
:102DA00090930E0380930D0310920C0310920B036B
:102DB000A114B10439F421E0A701B601C8010E94B1
:102DC0007F0E71C081819281DC01ED91FC910280C6
:102DD000F381E02DA501BE016F5F7F4F0995A81615
:102DE000B90609F05FC0E7CFF10102811381011537
:102DF000110509F457C0248135812115310511F4DD
:102E00008F770AC02230310511F4806805C0213067
:102E1000310519F48F7780648983D10119966C90FC
:102E2000712CF80180819181892B39F00280F38126
:102E3000E02D808191810E94CD0460E0D8011B9635
:102E40008C910E94D514FE0131964F015F01C5019E
:102E5000881999098615970510F0560107C0D50104
:102E60006D915D01C8010E94C80DF1CFC5018C199B
:102E70009D098E159F0538F4F50161915F01C80128
:102E80000E94C80DF3CF61E0D8011B968C910E947F
:102E9000D514F80180819181892B11F00E94C5041D
:102EA00081E001C080E00F900F90DF91CF911F91E2
:102EB0000F91FF90EF90DF90CF90BF90AF909F90D9
:102EC0008F907F906F905F904F903F902F900895DC
:102ED000CF93DF9390E0FC01EA55FF4F2491FC0172
:102EE000EE56FF4F8491882361F190E0880F991F7F
:102EF000FC01E654FF4FC591D491FC01EC53FF4F08
:102F0000A591B491611109C09FB7F894888120956B
:102F100082238883EC912E230BC0623061F49FB72B
:102F2000F8948881322F309583238883EC912E2B5F
:102F30002C939FBF06C08FB7F894E8812E2B28836F
:102F40008FBFDF91CF9108958E3008F08E5087703B
:102F5000806480937C0080917A00806480937A0002
:102F600080917A0086FDFCCF8091780020917900D5
:102F700090E0922B08958230910538F0880F991FC8
:102F8000880F991F05970197F1F708958F929F92E7
:102F9000AF92BF92CF92DF92EF92FF926B017C01D2
:102FA0000E9488144B015C01C114D104E104F104B6
:102FB000F1F00E948814DC01CB0188199909AA0953
:102FC000BB09883E9340A105B10570F321E0C21A08
:102FD000D108E108F10888EE880E83E0981EA11C54
:102FE000B11CC114D104E104F10419F7DDCFFF9045
:102FF000EF90DF90CF90BF90AF909F908F9008950B
:103000002FB7F89460916106709162068091630613
:10301000909164062FBF08951F920F920FB60F92E2
:1030200011242F933F938F939F93AF93BF938091DE
:10303000610690916206A0916306B091640630919A
:10304000600623E0230F2D3720F40196A11DB11D4A
:1030500005C026E8230F0296A11DB11D209360062E
:103060008093610690936206A0936306B093640612
:103070008091650690916606A0916706B0916806FA
:103080000196A11DB11D8093650690936606A093DD
:103090006706B0936806BF91AF919F918F913F9162
:1030A0002F910F900FBE0F901F901895CF92DF9227
:1030B000EF92FF920F931F93E82FF92F05C0015055
:1030C00011092109310961F1908196239417B9F30F
:1030D00005C0015011092109310911F19081962390
:1030E0009413F7CFC12CD12CE12CF12C0AC08FEF17
:1030F000C81AD80AE80AF80A0C151D052E053F055E
:1031000079F080818623841791F36C2D7D2D8E2D8F
:103110009F2D1F910F91FF90EF90DF90CF9008951A
:1031200060E070E080E090E01F910F91FF90EF90E1
:10313000DF90CF900895CF93DF93CDB7DEB765973B
:103140000FB6F894DEBF0FBECDBF789484B5826011
:1031500084BD84B5816084BD85B5826085BD85B53B
:10316000816085BD80916E00816080936E001092B9
:103170008100809181008260809381008091810034
:1031800081608093810080918000816080938000C5
:103190008091B10084608093B1008091B000816023
:1031A0008093B00080917A00846080937A0080914F
:1031B0007A00826080937A0080917A0081608093A7
:1031C0007A0080917A00806880937A001092C10022
:1031D000E0916803F091690382E08083E0916403E9
:1031E000F09165031082E0916603F091670380E13E
:1031F000808310927003E0916C03F0916D0386E080
:103200008083E0916A03F0916B0380818061808309
:10321000E0916A03F0916B03808188608083E09184
:103220006A03F0916B03808180688083E0916A0378
:10323000F0916B0380818F7D808389E891E00E940B
:10324000400B85EF93E00E942C10E0912104F09157
:103250002204138615861486DF011B9633961E9270
:10326000AE17BF07E1F710921F041092200411E07F
:10327000BE01665F7F4F80912104909122040E94DD
:10328000EC0C8823F1F067E0CE010A960E945D0203
:1032900099898913EDCF80911F048F5F80931F045C
:1032A0008A85883209F430C230F4803109F42CC2A6
:1032B0008232F1F629C28B3309F426C28234C1F678
:1032C00023C261E084E00E94681761E085E00E940B
:1032D000681761E088E00E94681761E086E00E945C
:1032E000681761E087E00E94681761E08BE00E9448
:1032F000681760E08CE00E94681760E08BE00E9435
:10330000D51484E991E00E94400B85EF93E09093FF
:103310002D0680932C0681E080932B061092F705F2
:1033200062E070E080E090E00E94C6178091F705AF
:10333000813009F03DC01FB7F8948091B50281112A
:1033400027C0ECE9F0E08491E0EBF0E09491E82F05
:10335000F0E0EE0FFF1FE654FF4FA591B491EC9102
:10336000E92321F461E08AE00E94D51461E08AE05B
:103370000E9468178CB580618CBD8CB580648CBD53
:1033800061E08DE00E94681761E08BE00E946817A1
:103390008091B5028F5F8093B5021FBF61E080917D
:1033A000F9050E94681761E08091F9050E94D51423
:1033B00080ED0E94270C883519F0803609F001C293
:1033C00089E80E94270C182F88E80E94270C212FDB
:1033D00030E0322F2227280F311D3093070620932B
:1033E00006068BE80E94270C182F8AE80E94270CFB
:1033F000212F30E0322F2227280F311D309309066C
:10340000209308068DE80E94270C182F8CE80E9454
:10341000270C212F30E0322F2227280F311D309327
:103420000B0620930A068FE80E94270C182F8EE8BF
:103430000E94270C212F30E0322F2227280F311D28
:1034400030930D0620930C0681E90E94270C182F5B
:1034500080E90E94270C212F30E0322F2227280FED
:10346000311D30930F0620930E0683E90E94270C2E
:10347000182F82E90E94270C212F30E0322F2227BB
:10348000280F311D309311062093100685E90E9404
:10349000270C182F84E90E94270C212F30E0322FAF
:1034A0002227280F311D309313062093120687E937
:1034B0000E94270C182F86E90E94270C212F30E04C
:1034C000322F2227280F311D309315062093140622
:1034D00089E90E94270C182F88E90E94270C212FC8
:1034E00030E0322F2227280F311D3093170620930A
:1034F00016068BE90E94270C182F8AE90E94270CD8
:10350000212F30E0322F2227280F311D309319064A
:10351000209318068DE90E94270C182F8CE90E9431
:10352000270C212F30E0322F2227280F311D309316
:103530001B0620931A068FE90E94270C182F8EE98C
:103540000E94270C212F30E0322F2227280F311D17
:1035500030931D0620931C0681EA0E94270C80935D
:103560001E0682EE0E94270C182F81EE0E94270C67
:10357000212F30E0322F2227280F311D30932006D3
:1035800020931F0683EE0E94270C8093210684EE71
:103590000E94270C182F85EE0E94270C8F7090E058
:1035A00020E1129F800D911D11249093230680939A
:1035B000220686EE0E94270C182F85EE0E94270C0B
:1035C00082958F7090E0E0E11E9F800D911D112487
:1035D000909325068093240687EE0E94270C809303
:1035E00026061091FD05183008F010E085EF0E94C6
:1035F000270CF0E21F9F900111248F71682F622B1E
:1036000085EF0E94850C1091FE05183008F010E03F
:1036100085EF0E94270C94E0199F90011124837E6E
:10362000682F622B85EF0E94850CE0910006E13146
:1036300028F4F0E0EA5FFE4F108101C011E084EF52
:103640000E94270C082F80E00E94DD0C84EF0E946E
:10365000270CE4E01E9F90011124837E682F622BCB
:1036600084EF0E94850C802F83700E94DD0CE09116
:103670000106E13128F4F0E0EA5FFE4F108101C05D
:1036800011E084EF0E94270C082F80E00E94DD0CDF
:1036900082EF0E94270C887F682F612B82EF0E94A7
:1036A000850C802F83700E94DD0CE091FF05E131D5
:1036B00028F4F0E0EA5FFE4F108101C011E084EFD2
:1036C0000E94270C082F80E00E94DD0C84EF0E94EE
:1036D000270CF0E21F9F900111248F71682F622B3D
:1036E00084EF0E94850C802F83700E94DD0C83E0A4
:1036F0000E94DD0C80ED0E94270C883509F444C639
:10370000803609F05EC040C6809120048F5F8093B0
:10371000200480911804811126C080912104909189
:1037200022040E941B03BE01665F7F4F809121042B
:10373000909122040E94FC0240E064EB80912104FD
:10374000909122040E94C802809121049091220449
:103750000E947502082F80912104909122040E94FA
:103760001B03002359F18A858031F9F0AE014F5FC8
:103770005F4FBE01665F7F4F88E194E00E94BB030C
:10378000882379F08D818F3351F020F48F3149F403
:1037900089E00CC08F3539F08F3739F002C08AE0EC
:1037A00005C080E003C08BE001C08CE090911B0459
:1037B000981708F05DCD80931B045ACD1093180420
:1037C000D2CF8DE192E00E94400B86E090E00E9413
:1037D000F3257C0180E1F701808385EF93E09283FC
:1037E0008183138280E290E095838483F0924C047D
:1037F000E0924B0485EF93E00E942C1011E0F7015A
:103800001383C7010E94AD14882309F4C5C583E161
:1038100090E00E94F3257C01A0904B04B0904C04F2
:10382000FC011786108A118A128AB182A082138243
:103830001282118717821682128602E00087909307
:10384000300480932F0483E190E00E94F325FC0173
:103850001786108A118A128AB182A082138212827C
:10386000118781E090E09783868312860087F0932A
:103870003604E093350483E190E00E94F325FC01D7
:103880001786108A118A128AB182A082138212824C
:10389000118782E090E09783868312860087F093F9
:1038A0003804E093370483E190E00E94F3256C0133
:1038B000FC011786108A118A128AB182A0821382B3
:1038C0001282118783E090E09783868312860087B7
:1038D000D0923A04C092390483E190E00E94F3252B
:1038E000FC011786108A118A128AB182A082138283
:1038F0001282118784E090E0978386831286008786
:10390000F0933204E093310483E190E00E94F325C8
:10391000FC011786108A118A128AB182A082138252
:103920001282118785E090E0978386831286008754
:10393000F0933404E093330483E190E00E94F32594
:10394000FC011786108A118A128AB182A082138222
:103950001282118786E090E0978386831286008723
:10396000F0933C04E0933B0484E090E00E94F32554
:103970005C01FC01F182E0821283138290933E0489
:1039800080933D0484E090E00E94F325FC01F182E5
:10399000E082128313839093400480933F0484E079
:1039A00090E00E94F325FC01F182E082028384E032
:1039B000982E9382F0934204E093410484E090E0D7
:1039C0000E94F325FC01F182E082928286E08383EB
:1039D000F0934404E093430484E090E00E94F325D4
:1039E000FC01F182E08202838BE08383F093460442
:1039F000E093450484E090E00E94F325FC01D1822D
:103A0000C08212831382909348048093470484E019
:103A100090E00E94F325FC01D182C08202831383CF
:103A200090934A048093490441E050E060E070E0E4
:103A3000C5010E94311640E050E0BA0180913F0478
:103A4000909140040E94311640E050E0BA0180910C
:103A50004104909142040E94311640E050E0BA01C6
:103A600080914504909146040E94311640E050E058
:103A7000BA0180914304909144040E94311640E0C1
:103A800050E0BA0180914704909148040E94311699
:103A900040E050E0BA0180913D0490913E040E94C4
:103AA000311680EA91E00E94400B40E050E0BA01FC
:103AB00080914504909146040E94311643E050E005
:103AC00060E070E080914304909144040E943116BC
:103AD0001093C0028DEA91E00E94400B22242394AF
:103AE000312C0E9400182091C2023091C302621B47
:103AF000730B603D77400CF402C461E08BE00E94E0
:103B0000D51483E290E00197F1F760E08BE00E942A
:103B1000D514E2EBF0E06491EEE9F0E08491E82F57
:103B2000F0E0EE0FFF1FE857FF4F8591949100E4FE
:103B300012E42FE030E0462F0E94561861157105FF
:103B40008105910549F0DC01CB010196A11DB11D54
:103B5000BC01CD019F7003C060E070E0CB012BE39E
:103B600030E040E050E00E9498243093B702209368
:103B7000B6028091C102882309F4B8C142E06DEF1A
:103B8000CE0101960E949E0B409027065090280679
:103B90006090290670902A06FCE25F1AF1E06F0A35
:103BA0007108C980DA80DC24CD24DC24E12CF12CDE
:103BB000FEE0CC0CDD1CEE1CFF1CFA95D1F78091C9
:103BC000220690912306092E000CAA0BBB0B14E1D0
:103BD000880F991FAA1FBB1F1A95D1F7C81AD90AB7
:103BE000EA0AFB0AA0912406B0912506A3019201DE
:103BF0000E94B724C61AD70AE80AF90A20E4D20EAE
:103C0000E11CF11C0FE0F594E794D794C7940A9552
:103C1000D1F7A0912106B0E0A30192010E940124F6
:103C20004B015C018BE0B594A794979487948A9597
:103C3000D1F780E8980EA11CB11CA09126060A2E8F
:103C4000000CBB0B0E94B7242AE0959587957795C9
:103C500067952A95D1F7A50194010E945224DC01B1
:103C6000CB013AE0B595A795979587953A95D1F709
:103C70009C01AD01405E5F4FA0911F06B0912006F0
:103C80000E94B724DC01CB01905EAF4FBF4FBC0157
:103C9000CD014EE095958795779567954A95D1F733
:103CA000A70196010E9452246B017C015FE095956B
:103CB0008795779567955A95D1F79B01AC010E943E
:103CC00052249B01AC0167E05595479537952795A0
:103CD0006A95D1F7A0911E06B0E00E940124DC0194
:103CE000CB0174E0B595A795979587957A95D1F70F
:103CF000C81AD90AEA0AFB0AF7FE03C0C12CD12C64
:103D0000760143E06AEFCE0101960E949E0B298165
:103D1000822F90E0A0E0B0E0AC01BD01ECE0440FE8
:103D2000551F661F771FEA95D1F78A8190E0A0E0C2
:103D3000B0E0F4E0880F991FAA1FBB1FFA95D1F7D6
:103D4000482B592B6A2B7B2B8B8182958F70482BAC
:103D50008091060690910706A0E0B0E04A015B0161
:103D600014E0B594A794979487941A95D1F7881A7C
:103D7000990AAA0ABB0A03E0759567955795479576
:103D80000A95D1F7880F991FAA1FBB1F9A01AB0193
:103D9000281B390B4A0B5B0BA0910806B091090652
:103DA0000E94B7242B013C013BE075946794579423
:103DB00047943A95D1F7A5019401C501B4010E9439
:103DC00052249B01AC016CE055954795379527959A
:103DD0006A95D1F7A0910A06B0910B060E94B7240C
:103DE000DC01CB017EE0B595A795979587957A95EF
:103DF000D1F7A3019201280F391F4A1F5B1F20939F
:103E00002706309328064093290650932A06A5E0FA
:103E1000B0E00E940124DC01CB0180589F4FAF4FDE
:103E2000BF4F692F7A2F8B2F992787FD9A950E9474
:103E3000E42220E030E048EC52E40E944625209144
:103E400002063091030640910406509105060E9437
:103E5000DA244B015C0142E255E069EB71E08AE251
:103E600095E00E945A138C0191E0C916D104E10437
:103E700099E1F9062CF0C12CD12CE12C39E1F32E7B
:103E8000C701B6012CE095958795779567952A959A
:103E9000D1F70E94E42220E030E040E85AE30E949B
:103EA000432320E030E048EC52E40E9443230E9488
:103EB000B825072E000C880B990B0E94E42220E005
:103EC00030E048EC52E40E944625AB01BC01C80139
:103ED0000E941B0B42E255E06DEB71E08AE295E037
:103EE0000E945A13B501A4010E941B0B8091C002CD
:103EF000882309F4C7C080913104909132040E9454
:103F000022150E94E2226B017C0100914504109170
:103F10004604F801808191810E9422154101F80137
:103F2000028002C0880C991C0A94E2F7F1E08F1A13
:103F30009108092C000CAA08BB08DC01CB01F80190
:103F4000038004C0B695A795979587950A94D2F7F4
:103F500088219921AA21BB21823071F0833039F068
:103F60008130A1F420E030E040E05FE309C020E0D0
:103F700030E040E850E404C020E030E040E051E4AC
:103F8000C701B6010E9443236B017C0100914304E9
:103F900010914404F801808191810E942215410111
:103FA000F801028002C0880C991C0A94E2F7F1E043
:103FB0008F1A9108092C000CAA08BB08DC01CB0160
:103FC000F801038004C0B695A795979587950A9444
:103FD000D2F788219921AA21BB218330F9F048F436
:103FE0008130B9F0823021F520E030E040E85EE336
:103FF00019C0883039F08C30D9F420E030E040E846
:1040000050E410C0A7019601C701B6010E94DA244E
:104010000DC020E030E040E05FE304C020E030E08D
:1040200040E05EE3C701B6010E9443236B017C01BF
:1040300042E255E062EC71E08AE295E00E945A1398
:104040008C012AEF3DEE4BE65DE3C701B6010E940D
:10405000432320E030E048EC52E40E9443230E94D6
:10406000B825072E000C880B990B0E94E42220E053
:1040700030E048EC52E40E944625AB01BC01C80187
:104080000E941B0B88E194E00E94520381E094E0BF
:104090000E9452038EE00E94A417BC01990F880B66
:1040A000990B0E94E42220E030E048EC52EC0E94A0
:1040B000432320E030EC4FE754E40E94462520E003
:1040C00030E048EC52E40E94DA246B017C016093FA
:1040D000BC027093BD028093BE029093BF028FE03A
:1040E0000E94A417BC01990F880B990B0E94E4222F
:1040F00020E030E048EC52EC0E94432320E030EC1A
:104100004FE754E40E94462520E030E048EC52E4BA
:104110000E94DA244B015C016093B8027093B902EB
:104120008093BA029093BB0260E088E194E00E9421
:104130002C042B013C0161E081E094E00E942C04FE
:104140006A8B7B8B8C8B9D8B42E255E066EC71E039
:104150008AE295E00E945A138C0120E030E048EC9E
:1041600052E4C301B2010E9443230E94B825072EE6
:10417000000C880B990B0E94E42220E030E048EC10
:1041800052E40E944625AB01BC01C8010E941B0BF2
:1041900042E255E062ED71E08AE295E00E945A1336
:1041A0008C0120E030E048EC52E46A897B898C89FC
:1041B0009D890E9443230E94B825072E000C880B7E
:1041C000990B0E94E42220E030E048EC52E40E9487
:1041D0004625AB01BC01C8010E941B0B42E255E021
:1041E0006DED71E08AE295E00E945A138C0120E0A7
:1041F00030E048EC52E4C701B6010E9443230E941C
:10420000B825072E000C880B990B0E94E42220E0B1
:1042100030E048EC52E40E944625AB01BC01C801E5
:104220000E941B0B42E255E068EE71E08AE295E0E5
:104230000E945A138C0120E030E048EC52E4C501A2
:10424000B4010E9443230E94B825072E000C880B5E
:10425000990B0E94E42220E030E048EC52E40E94F6
:104260004625AB01BC01C8010E941B0BE090B602C1
:10427000F090B70242E255E062EF71E08AE295E029
:104280000E945A138C010097E1F0049647010F2C0D
:10429000000CAA08BB08F7FC04C066E00E945E1090
:1042A0000BC067E00E945E10B094A094909480943C
:1042B000811C911CA11CB11CF80180829182A282F8
:1042C000B38288E593E09A8389831C821B828AE209
:1042D00095E0009731F0BE016F5F7F4F0E94B610EE
:1042E00006C069EF71E0CE0101960E9464100E9441
:1042F000380B0E9400187093C3026093C202809131
:10430000B4028823F1F16EEF71E085E594E00E943C
:104310007C140E94340664E070E00E94680664E049
:1043200072E085E594E00E947C140E94340665E00A
:1043300070E00E9468066AE072E085E594E00E9401
:104340007C140E94340668E070E00E9468066FE00A
:1043500072E085E594E00E947C140E94340666E0D9
:1043600070E00E94680666E172E085E594E00E94D4
:104370007C140E94340667E070E00E946806109288
:10438000B4020E949E01ADCB8EE592E00E94400BEC
:1043900081E08093C10219CA86E792E00E94400B37
:1043A00099CBFC010D969183808393838283009740
:1043B00021F09F012B523F4F02C020E030E03583B7
:1043C0002483892B21F0CF018B529F4F02C080E0C4
:1043D00090E09783868360E0CF010C960C945E108A
:1043E00010925B0310925A0388EE93E0A0E0B0E0D5
:1043F00080935C0390935D03A0935E03B0935F038F
:1044000021E231E0309359032093580325EC30E04A
:10441000309365032093640324EC30E0309367030A
:104420002093660320EC30E0309369032093680307
:1044300021EC30E030936B0320936A0322EC30E0F0
:1044400030936D0320936C0326EC30E030936F03C0
:1044500020936E03109271031092720310927303F3
:10446000109274031092F8031092F7038093F903EB
:104470009093FA03A093FB03B093FC0383E391E0D2
:104480009093F6038093F50382E58093FA0581E02B
:104490008093FB0580932B0640E856EE65EC77E4AD
:1044A00040932E0650932F0660933006709331068A
:1044B0001092F70597E79093F80525EF33E03093D6
:1044C0002D0620932C069AE09093F90593E09093A3
:1044D000FC051092FD051092FE058093FF05809368
:1044E00000068093010610920206109203061092B5
:1044F00004061092050682E295E00E94D1218DE427
:1045000094E00E94D12160E089E00E946817EFEA00
:10451000F0E0E491E0933206EBE9F0E0E491F0E0C2
:10452000EE0FFF1FE857FF4F85919491909334064B
:104530008093330610923D0610923F0610923E067D
:10454000EDE3F6E085E396E012928E179F07E1F720
:1045500010922E0410922D041092190422E336E0DA
:10456000309322042093210410921F0410922004FF
:104570001092180499E090931B0481E080931C042E
:1045800080931D0480931E04109217041092160449
:104590001092020430930B0420930A041092080432
:1045A000109209041092010490930404809305046E
:1045B000809306048093070408950E941F2308F443
:1045C00081E00895E89409C097FB3EF490958095AA
:1045D000709561957F4F8F4F9F4F9923A9F0F92FC9
:1045E00096E9BB279395F695879577956795B79547
:1045F000F111F8CFFAF4BB0F11F460FF1BC06F5F2D
:104600007F4F8F4F9F4F16C0882311F096E911C03E
:10461000772321F09EE8872F762F05C0662371F05F
:1046200096E8862F70E060E02AF09A95660F771F73
:10463000881FDAF7880F9695879597F90895990F4F
:104640000008550FAA0BE0E8FEEF16161706E8075C
:10465000F907C0F012161306E407F50798F0621B7D
:10466000730B840B950B39F40A2661F0232B242B52
:10467000252B21F408950A2609F4A140A6958FEF71
:10468000811D811D08950E9456230C94C7230E940A
:10469000B92338F00E94C02320F0952311F00C9428
:1046A000B0230C94B62311240C94FB230E94D8232E
:1046B00070F3959FC1F3950F50E0551F629FF00175
:1046C000729FBB27F00DB11D639FAA27F00DB11D8E
:1046D000AA1F649F6627B00DA11D661F829F222717
:1046E000B00DA11D621F739FB00DA11D621F839F9E
:1046F000A00D611D221F749F3327A00D611D231F74
:10470000849F600D211D822F762F6A2F11249F57C1
:1047100050409AF0F1F088234AF0EE0FFF1FBB1FC4
:10472000661F771F881F91505040A9F79E3F510583
:1047300080F00C94B0230C94FB235F3FE4F3983E8D
:10474000D4F3869577956795B795F795E7959F5F2D
:10475000C1F7FE2B880F911D9695879597F90895BF
:1047600097F99F6780E870E060E008959FEF80EC24
:10477000089500240A9416161706180609060895C7
:1047800000240A9412161306140605060895092E2D
:104790000394000C11F4882352F0BB0F40F4BF2B9C
:1047A00011F460FF04C06F5F7F4F8F4F9F4F0895DC
:1047B00057FD9058440F551F59F05F3F71F04795D2
:1047C000880F97FB991F61F09F3F79F087950895B7
:1047D000121613061406551FF2CF4695F1DF08C0D6
:1047E000161617061806991FF1CF869571056105F3
:1047F00008940895E894BB2766277727CB0197F99B
:1048000008950E944324A59F900DB49F900DA49FEE
:10481000800D911D112408952F923F924F925F9227
:104820006F927F928F929F92AF92BF92CF92DF92C0
:10483000EF92FF920F931F93CF93DF93CDB7DEB725
:10484000CA1BDB0B0FB6F894DEBF0FBECDBF0994B9
:104850002A88398848885F846E847D848C849B8410
:10486000AA84B984C884DF80EE80FD800C811B811E
:10487000AA81B981CE0FD11D0FB6F894DEBF0FBE4D
:10488000CDBFED010895A29FB001B39FC001A39FCA
:10489000700D811D1124911DB29F700D811D112479
:1048A000911D0895DB018F939F930E940124BF9176
:1048B000AF91A29F800D911DA39F900DB29F900D6F
:1048C0001124089597FB072E16F4009407D077FD66
:1048D00009D00E94BF2407FC05D03EF49095819535
:1048E0009F4F0895709561957F4F0895A1E21A2E0C
:1048F000AA1BBB1BFD010DC0AA1FBB1FEE1FFF1F84
:10490000A217B307E407F50720F0A21BB30BE40BD3
:10491000F50B661F771F881F991F1A9469F760951A
:104920007095809590959B01AC01BD01CF010895D4
:10493000052E97FB1EF400940E94AF2457FD07D06C
:104940000E94762407FC03D04EF40C94AF245095BB
:104950004095309521953F4F4F4F5F4F089590956B
:104960008095709561957F4F8F4F9F4F0895B7FF4A
:104970000C9401240E940124821B930B0895AA1B0E
:10498000BB1B51E107C0AA1FBB1FA617B70710F03A
:10499000A61BB70B881F991F5A95A9F7809590956C
:1049A000BC01CD010895EE0FFF1F0590F491E02D9D
:1049B00009945058BB27AA270E94F1240C94C723BE
:1049C0000E94B92338F00E94C02320F039F49F3FA1
:1049D00019F426F40C94B6230EF4E095E7FB0C943E
:1049E000B023E92F0E94D82358F3BA176207730740
:1049F0008407950720F079F4A6F50C94FA230EF4B9
:104A0000E0950B2EBA2FA02D0B01B90190010C01DE
:104A1000CA01A0011124FF27591B99F0593F50F4F6
:104A2000503E68F11A16F040A22F232F342F44274E
:104A3000585FF3CF469537952795A795F040539546
:104A4000C9F77EF41F16BA0B620B730B840BBAF016
:104A50009150A1F0FF0FBB1F661F771F881FC2F781
:104A60000EC0BA0F621F731F841F48F48795779595
:104A70006795B795F7959E3F08F0B0CF9395880F4F
:104A800008F09927EE0F9795879508950E945A256B
:104A90000C94C7230E94C02358F00E94B92340F011
:104AA00029F45F3F29F00C94B02351110C94FB239F
:104AB0000C94B6230E94D82368F39923B1F35523AD
:104AC00091F3951B550BBB27AA2762177307840721
:104AD00038F09F5F5F4F220F331F441FAA1FA9F3B7
:104AE00035D00E2E3AF0E0E832D091505040E695A5
:104AF000001CCAF72BD0FE2F29D0660F771F881F06
:104B0000BB1F261737074807AB07B0E809F0BB0BF8
:104B1000802DBF01FF2793585F4F3AF09E3F51050C
:104B200078F00C94B0230C94FB235F3FE4F3983EA1
:104B3000D4F3869577956795B795F7959F5FC9F7F5
:104B4000880F911D9695879597F90895E1E0660F76
:104B5000771F881FBB1F621773078407BA0720F0EF
:104B6000621B730B840BBA0BEE1F88F7E095089558
:104B70000E94BF256894B1110C94FB2308950E94F4
:104B8000E02388F09F5798F0B92F9927B751B0F0DC
:104B9000E1F0660F771F881F991F1AF0BA95C9F7C1
:104BA00014C0B13091F00E94FA23B1E008950C9442
:104BB000FA23672F782F8827B85F39F0B93FCCF3F5
:104BC000869577956795B395D9F73EF4909580953E
:104BD000709561957F4F8F4F9F4F08950E941F23BF
:104BE00008F48FEF08950F931F93CF93DF938230D4
:104BF000910510F482E090E0E0916B06F0916C0674
:104C000020E030E0A0E0B0E0309719F14081518120
:104C10000281138148175907C8F08417950769F472
:104C2000109731F012960C93129713961C9327C08D
:104C300000936B0610936C0622C02115310519F004
:104C40004217530718F49A01BD01EF01DF01F80183
:104C5000DBCF21153105F9F0281B390B2430310544
:104C600080F48A819B816115710521F0FB0193839A
:104C7000828304C090936C0680936B06FE0132968B
:104C800044C0FE01E20FF31F81939193225031093A
:104C9000398328833AC02091690630916A06232B14
:104CA00041F4209102013091030130936A06209370
:104CB000690620910001309101012115310541F46F
:104CC0002DB73EB74091040150910501241B350BCF
:104CD000E0916906F0916A06E217F307A0F42E1B33
:104CE0003F0B2817390778F0AC014E5F5F4F241750
:104CF000350748F04E0F5F1F50936A0640936906D0
:104D00008193919302C0E0E0F0E0CF01DF91CF9179
:104D10001F910F910895CF93DF93009709F481C0FD
:104D2000FC01329713821282A0916B06B0916C063F
:104D3000109781F420813181820F931F20916906A1
:104D400030916A062817390751F5F0936A06E09307
:104D5000690667C0ED0120E030E0CE17DF0740F4C0
:104D60004A815B819E0141155105F1F0EA01F5CFC1
:104D7000D383C28340815181840F951FC817D907FF
:104D800059F488819981840F951F029691838083BD
:104D90008A819B81938382832115310529F4F093C5
:104DA0006C06E0936B063DC0E901FB83EA83499101
:104DB0005991C40FD51FEC17FD0761F480819181D3
:104DC000840F951F0296E9019983888382819381DC
:104DD0009B838A83E0E0F0E012968D919C9113977B
:104DE000009719F0FD01DC01F7CF8D919C9111978F
:104DF0009D012E5F3F4F820F931F209169063091D6
:104E00006A062817390769F4309729F410926C065E
:104E100010926B0602C013821282B0936A06A093AE
:104E20006906DF91CF910895A0E0B0E0EAE1F7E2F2
:104E30000C941024EC01009721F4CB010E94F3257F
:104E4000B4C0FC01E60FF71F9C0122503109E217A4
:104E5000F30708F4A8C0D9010D911C91119706170A
:104E60001707B0F00530110508F49BC0C80104977E
:104E70008617970708F495C002501109061B170BF7
:104E8000019311936D937C93CF010E948B2689C06F
:104E90005B01A01AB10A4C01800E911EA0916B0615
:104EA000B0916C06612C712CE12CF12C109709F457
:104EB00046C08D919C911197A815B905B1F56C016B
:104EC00042E0C40ED11CCA14DB0478F14C018A18EC
:104ED0009B08640142E0C40ED11C1296BC9012974C
:104EE0001396AC91B5E0CB16D10440F0B282A38307
:104EF00091828082D9016D937C9309C00E5F1F4F10
:104F0000800F911FF90191838083EB2DFA2FE1141B
:104F1000F10431F0D7011396FC93EE93129741C040
:104F2000F0936C06E0936B063CC06816790608F4B3
:104F30003C017D0112960D90BC91A02DB7CF8091C0
:104F4000690690916A0688169906E1F46616770656
:104F5000C8F48091000190910101009741F48DB750
:104F60009EB74091040150910501841B950BE817F1
:104F7000F907C8F4F0936A06E0936906F9017183B2
:104F800060830FC0CB010E94F3257C01009759F08C
:104F9000A801BE010E94DF27CE010E948B26C70117
:104FA00004C0CE0102C080E090E0CDB7DEB7EEE0F5
:104FB0000C942C2481E090E0F8940C94F827FB01E9
:104FC000DC0102C001900D9241505040D8F7089585
:104FD000FB01DC018D91019080190110D9F3990B2F
:104FE0000895FB01DC0101900D920020E1F7089586
:044FF000F894FFCF63
:104FF40000006D062000000102010301010104010B
:10500400010101010101055E00BC007701000000FF
:10501400002F019C00C6007C01F700D500E90000C8
:10502400000000780F4B0FA30EB001D401C001B1F2
:10503400010000803FCDCCCC3D6F12833A95BFD6A2
:10504400337D1D9026B3CE010CCDCCCC3D0AD723A5
:105054003C17B7D13877CC2B329595E6241FB14F46
:105064000A000020410000C84200401C4620BCBE8B
:105074004CCA1B0E5AAEC59D74486F6C61206D7589
:105084006E646F00486F6C61206D756E646F3200E2
:1050940053656E736F7220666F756E6400486F6C33
:1050A40061206D756E646F330048756D0054656DD5
:1050B40070004C75780054656D706C6F6D62726928
:1050C4007A0054656D70706C616E74610048756D22
:1050D4006C6F6D6272697A0048756D706C616E7484
:1050E4006100556C74726173006E756C6C0076614E
:1050F4006C616C0076616C61700076616C6800763E
:10510400616C7668610076616C766868004E6F2029
:105114007365207075646F2065737461626C656378
:10512400657220636F6D756E6963616369C3B36E85
:1051340020636F6E20656C2073656E736F722064DC
:10514400652048756D20792054656D702E00536577
:105154006E736F722064652048756D2079205465E4
:105164006D70204F4B0053656E736F72206E6F74B9
:1051740020666F756E640074727565000D0A0022F6
:10518400225C5C6208660C6E0A720D7409004E6142
:105194004E00652D0066616C736500496E66696E2C
:0451A40069747900B1
:00000001FF
