:100000000C9472000C949A000C949A000C949A0030
:100010000C949A000C949A000C949A000C949A00F8
:100020000C949A000C949A000C949A000C949A00E8
:100030000C949A000C949A000C949A000C949A00D8
:100040000C947D140C949A000C9449120C94231275
:100050000C949A000C949A000C949A000C949A00B8
:100060000C9424080C949A0000000000240027003F
:100070002A0000000000250028002B0000000008D6
:10008000000201000003040700000000000000005F
:1000900000000000230026002900040404040404D6
:1000A0000404020202020202030303030303010227
:1000B00004081020408001020408102001020408F6
:1000C0001020005EBCE2613FDD83C29C7E20A3FD68
:1000D0001F41009D23BE46DB65F88C11AF32CA5725
:1000E000E9742F1C11241FBECFEFD8E0DEBFCDBFB7
:1000F00026E0A0E7B2E001C01D92A930B207E1F707
:1001000012E0A0E0B1E0E2E7F4E402C005900D9255
:10011000A037B107D9F710E0C2E7D0E004C02197BB
:10012000FE010E94121FC137D107C9F70E942B158B
:100130000C9437220C940000FC0180819181892B62
:1001400021F460E070E0CB0108956AE077E080E0A0
:1001500090E00895CF93DF93DC01EB01EC81FD810A
:100160008A819B810896E817F90718F480E090E0EF
:1001700021C03897FD83EC833097C1F31296CD915F
:10018000DC911397209751F0CF018C1B9D0B23E03E
:10019000959587952A95E1F78D8303C01196FC9379
:1001A000EE931396FC93EE931297158214821782A6
:1001B0001682CF01DF91CF910895EF92FF920F93B6
:1001C0001F93CF93DF93EC018B017A018C818F77A2
:1001D00049F460E2CE0104960E947C0919821882DB
:1001E0001B821A828C8185FF08C0B80188819981A1
:1001F0000E945209009789F403C080E090E00DC08E
:10020000B701CE010E94AA00FC01892BB1F38481C1
:100210008F77848317830683CF01DF91CF911F915E
:100220000F91FF90EF900895FC018285811111C01C
:10023000A281B38184819581A817B90711F4118631
:1002400006C0CD010196938382838C91818781E0E2
:100250008287818508951F93CF93DF93EC01CE01B0
:100260000E9414018B302CF489300CF58823C1F0E6
:1002700032C08032E1F08F3219F08D3061F517C055
:100280001A86CE010E9414018A3219F08F32C9F009
:100290001FC01A8610E0CE010E941401811103C014
:1002A00081E090E01AC08F3221F4112311F01A86F8
:1002B000D6CF11E08A3209F010E01A86ECCF8A30EE
:1002C00071F21A86CE010E9414018111F8CFE8CF95
:1002D00082E090E002C080E090E0DF91CF911F913A
:1002E0000895FC01248125FF05C0808191810E9431
:1002F0005209089580E090E00895CF93009769F146
:10030000FC0184818F77883028F4853030F4833085
:10031000D8F423C0883059F020C0C1E08081918199
:10032000A281B381892B8A2B8B2BC1F416C0C1E02B
:1003300020E030E0A90160817181828193810E9477
:100340001C1D81110BC009C06081718189E891E099
:100350000E942722C1E0892B09F0C0E08C2FCF91A9
:100360000895962F882311F061E001C060E0892F85
:100370000C949C0EFC0184819581009799F0228158
:100380003381468157812417350718F0158214826E
:100390000895A9014F5F5F4F53834283FC01E20F31
:1003A000F31F608308952F923F924F925F927F9246
:1003B0008F929F92AF92BF92CF92DF92EF92FF9275
:1003C0000F931F93CF93DF93CDB7DEB7C654D109F8
:1003D0000FB6F894DEBF0FBECDBF8C017B010E942B
:1003E0002B0127969FAF8EAF2797CE018B5B9F4F38
:1003F0000E949C00672B09F087C080FD85C0C80162
:100400000E9414018B3549F560E4C70104960E94EF
:100410007C09D70111961C921E9213961C921E9273
:100420001297F8018085882359F1C8010E941401B0
:100430008B3509F0CAC1D8011A961C92C8010E94D6
:100440002B019A838983CE0101960E949C00672B21
:1004500009F0EEC180FDECC15EC08B3771F560E242
:10046000C70104960E947C09D70111961C921E9226
:1004700013961C921E921297F8018085811102C07A
:1004800085E054C3C8010E9414018B3709F09DC157
:10049000D8011A961C92C8010E942B0125969FAF85
:1004A0008EAF2597CE018D5B9F4F0E949C00672BDE
:1004B00009F0A7C180FDA5C199C0C8010E9414011F
:1004C000873209F4A5C1823209F4A2C1C8010E9491
:1004D0001401C82E9E012F5F3F4F5901D12C8C2D46
:1004E0000E945E0C882309F43FC1FFE3DF1609F484
:1004F0003BC1F8011286D394D501CD925D01C801AC
:100500000E941401C82EEBCF26968FAD2697279612
:100510009FAD27970CC3C8010E9414018D35B1F11E
:10052000D8016D917C91C7010E94AA00BC01892B62
:1005300009F451C0F801908591509087C8010E943C
:10054000D3019A838983D80118968C9118978F5F6D
:1005500018968C93CE0101960E949C00672B09F09F
:1005600067C180FD65C1C8010E942B019A83898300
:10057000CE0101960E949C00672B09F059C180FDB5
:1005800057C1C8010E9414018D3539F5F801128652
:10059000CCC2C8010E9414018C3209F016C1F801C6
:1005A0001286C8010E942B0125969FAF8EAF25971A
:1005B000CE018D5B9F4F0E949C00672B09F021C1EB
:1005C00080FD1FC1D8016D917C91C7010E94AA00D6
:1005D0006C01892B89F483E0A9C2C8010E9414012F
:1005E0008C3209F0F2C0F80112869ACFC8010E943D
:1005F00014018D3739F7CACFC8010E941401873220
:1006000011F08232A9F4BE016F5B7F4FC8010E94D6
:10061000780C25969FAF8EAF2597CE018D5B9F4FAF
:100620000E949C00672B09F0ECC080FF5BC0E9C012
:10063000D8011696ED91FC91179722813381848120
:10064000958193838283FA83E9831C821B823E8394
:100650002D83821B930B98878F83C8010E941401FE
:10066000B82E8823E1F18B2D0E945E0C882389F13E
:10067000F80112866B2DCE0101960E94BA01C801C5
:100680000E941401B82E0E945E0C8111F1CF60E02F
:10069000CE0101960E94BA018D819E81892B71F055
:1006A000E981FA818B819C812F813885821B930B94
:1006B00022813381820F931F938382838D819E8158
:1006C00023969FAF8EAF2397892B31F483E090E080
:1006D000A0CF82E090E09DCF80E090E09ACF81E0D3
:1006E00090E097CF23962EAD3FAD2397F6018481FE
:1006F0008068848337832683C8010E942B01259656
:100700009FAF8EAF2597CE018D5B9F4F0E949C00BF
:10071000672B09F076C080FD74C0C8010E941401E7
:100720008A3309F052C0D8011A961C921A9718966B
:100730008C911897815018968C93B601C8010E942D
:10074000D30125969FAF8EAF2597F80180858F5FE7
:100750008087CE018D5B9F4F0E949C00672B09F024
:1007600050C080FF34C04DC0E1E0F0E0EC0FFD1F51
:10077000ED0DF11D10828981843709F469C0863638
:1007800009F479C08E3609F487C08B3209F48BC026
:100790008D3209F08BC08A81772473948E3609F4E8
:1007A000B4C16E01F2E0CF0ED11C8E3409F4ADC19C
:1007B000982F9F7D993409F43DC190ED980F9A30A0
:1007C00008F47AC08E3209F477C082E0AFC1C80164
:1007D0000E942B0125969FAF8EAF2597CE018D5B92
:1007E0009F4F0E949C00672B61F480FD0AC0C801E6
:1007F0000E9414018D3709F0CCCED8011A961C92B4
:1008000094C124968FAD249725969FAD25978FC1CF
:10081000BE016F5B7F4FC8010E94780C9A83898369
:10082000CE0101960E949C00672B11F480FF03C04B
:1008300089819A817CC123960EAD1FAD239764E018
:10084000C70104960E947C09D7010D931C936DC1CA
:1008500065E0C70104960E947C0981E090E0A0E079
:10086000B0E0F70180839183A283B38390E0F4E04A
:10087000DF125DC116C065E0C70104960E947C09C5
:10088000D7011D921D921D921C92139781E090E05A
:10089000B5E0DB124CC105C081E090E0E4E0DE127F
:1008A00046C180E044C18A81712C78CF712C9E01B1
:1008B0002F5F3F4F690179CF812C912C5401F601B4
:1008C000819110ED180F1A3028F53AE9831639E9AD
:1008D0009306A30639E1B306F8F4AAE0B0E0A50157
:1008E00094010E94401E4B015C01812F90E0A0E02A
:1008F000B0E0AC01BD0140955095609570954815EC
:1009000059056A057B0540F0880E991EAA1EBB1E7C
:100910006F01D5CF882339F000E06AE0262E312C14
:10092000412C512C0EC0C7010496772009F4E3C076
:1009300067E00E947C09F70180829182A282B382E3
:10094000F4C08114910480E8A806B10450F0C501F8
:10095000B401A20191010E94B51E49015A010F5F25
:10096000F0CFF601D6018D916D0190ED980F9A3080
:1009700010F40F5FF6CF8E3209F56F01BFEFCB1A7F
:10098000DB0AF6012FEFC21AD20A108110531A3077
:10099000A8F43CEC831693063CE0A306B10488F768
:1009A000AAE0B0E0A50194010E94401E4B015C0149
:1009B000810E911CA11CB11C0150E3CF20812F7D21
:1009C000802F000F990B253409F04AC021812D3268
:1009D00019F4329651E006C02B3211F0319601C065
:1009E000329650E000E010E06AE0419120ED240FE3
:1009F0002A3080F5609F9001619F300D1124042FF3
:100A0000440F110B00531109020F131F9C01200FFB
:100A1000311F273231054CF3552361F0772031F037
:100A2000812C912CA12C50E8B52E75C0812C912CD5
:100A3000540171C0711007C0812C912C40E8A42E84
:100A40004FE7B42E68C0812C912C30E8A32EBB2434
:100A5000BA9461C0552331F011950195110902C076
:100A600000E010E0080F191FC501B4010E94211D0C
:100A70004B015C0110161106D4F4D12C00FF10C0FC
:100A800084E0D89EF0011124E95BFE4F2081318182
:100A900042815381C501B4010E94821D4B015C015A
:100AA00015950795D3940115110541F71DC01195B2
:100AB00001951109D12C01151105B1F000FF10C0ED
:100AC00094E0D99EF0011124E15DFE4F2081318137
:100AD00042815381C501B4010E94821D4B015C011A
:100AE00015950795D394E7CF7720A9F0B7FAB0947E
:100AF000B7F8B09410C066E00E947C09D7018D92CF
:100B00009D92AD92BC92139710C0812C912C80ECD9
:100B1000A82E8FE7B82E68E0C70104960E947C09D2
:100B2000F70180829182A282B38280E090E0CA5B6A
:100B3000DF4F0FB6F894DEBF0FBECDBFDF91CF9170
:100B40001F910F91FF90EF90DF90CF90BF90AF90EB
:100B50009F908F907F905F904F903F902F9008953F
:100B60000F931F93CF93DF93CDB7DEB761970FB687
:100B7000F894DEBF0FBECDBF81E0809374021D8666
:100B80001C861F861E86198A188A60E070E0CE01D6
:100B90000C960E94760E0E94BE1097FD1BC08983A2
:100BA0001A82088919890F5F1F4FB801CE010C9670
:100BB0000E94FC11882379F32C853D8588899989C9
:100BC000BE016F5F7F4F820F931F0E943022198BEF
:100BD000088BE1CF8091100490911104909313043D
:100BE0008093120480911604909117049093150439
:100BF0008093140460E08CE194E00E947C092889D1
:100C000039898C859D85009711F485E592E040E156
:100C100054E05A8349839C838B83820F931F9E8366
:100C20008D8358874F838AE089871B8668E174E04B
:100C3000CE0101960E94D30160E070E0CE010C96D7
:100C40000E94760E8C859D850E94CA2061960FB603
:100C5000F894DEBF0FBECDBFDF91CF911F910F91F2
:100C60000895CF92DF92EF92FF92CF93DF93009798
:100C700069F06A017B01EC0168E004960E947C093E
:100C8000C882D982EA82FB8281E001C080E0DF91E4
:100C9000CF91FF90EF90DF90CF90089585ED8093F6
:100CA000BC008091BC0084FDFCCF10921503089518
:100CB0004091A202262F30E0240F311D2132310550
:100CC000DCF4209115032430C9F4FC0180E090E0AD
:100CD000861758F43091A2022191DC01AE57BD4F26
:100CE000A30FB11D2C930196F3CF8091A202680F40
:100CF0006093A20280E0089581E0089582E0089563
:100D0000089508950895E091CE028091CD02E817EC
:100D100030F4F0E0E153FD4F808190E008958FEFD3
:100D20009FEF08959091CE028091CD02981750F4D4
:100D3000E92FF0E0E153FD4F208130E09F5F909379
:100D4000CE0202C02FEF3FEFC90108958091CD027E
:100D500090E02091CE02821B91090895CF92DF92FC
:100D6000EF92FF920F931F93CF93DF937C01CB0100
:100D70008A0120911603222389F0EB016B01C40E36
:100D8000D51ECC15DD0569F06991D701ED91FC9177
:100D90000190F081E02DC7010995F3CF642F0E94E7
:100DA0005806C801DF91CF911F910F91FF90EF90EE
:100DB000DF90CF900895CF93DF931F92CDB7DEB72A
:100DC0006983209116032223D1F020913803203229
:100DD00040F021E030E0FC013383228380E090E0AA
:100DE00015C080911703E82FF0E0E85EFC4F998171
:100DF00090838F5F809317038093380305C061E071
:100E0000CE0101960E94580681E090E00F90DF919C
:100E1000CF910895089580E090E00895CF93DF93F7
:100E2000EC0188819981461B570BDC01ED91FC9107
:100E30000280F381E02D09952A813B81820F931F67
:100E40009B838A83DF91CF910895EF92FF921F9346
:100E5000CF93DF93CDB7DEB766970FB6F894DEBFBA
:100E60000FBECDBF9C01CB01FE0177964E2F1F2FE9
:100E70005AE0E52EF12CB7010E94A11E805D8293FD
:100E8000CB010097C1F7512FBF01C9010E940E0786
:100E900066960FB6F894DEBF0FBECDBFDF91CF913F
:100EA0001F91FF90EF900895CF93DF93EC0188811D
:100EB0009981DC01ED91FC910190F081E02D099583
:100EC0002A813B81820F931F9B838A83DF91CF917D
:100ED00008958F929F92AF92BF92CF92DF92EF923E
:100EE000FF920F931F93CF93DF93CDB7DEB7669733
:100EF0000FB6F894DEBF0FBECDBF7C018E01095E38
:100F00001F4F68018AE0882E912CA12CB12CCB01B7
:100F1000BA01A50194010E94B51E942F852F605D32
:100F2000F80162938F01A901692F782F41155105AE
:100F30006105710561F7A601BF01C7010E940E0797
:100F400066960FB6F894DEBF0FBECDBFDF91CF918E
:100F50001F910F91FF90EF90DF90CF90BF90AF90D7
:100F60009F908F900895FC0190810180F281E02D87
:100F7000892F809560FF12C0F8942281822382839A
:100F80008181892B8183A3E2B0E01197F1F78281FF
:100F9000982B9283789487ED90E011C0F894228189
:100FA000822382838181892B8183AFEFB0E0119707
:100FB000F1F78281982B928378948FE090E00197EB
:100FC000F1F70895DC012C911196ED91FC911297A7
:100FD000F8948181922F90958923818378948DE76D
:100FE00043E050E0815021F1DA011197F1F73081AF
:100FF0003223C1F3F8948281892382838181822BF9
:1010000081837894ABE7B7E01197F1F7F894818189
:101010009823918383E191E00197F1F78081282360
:1010200081E009F080E07894E3E6F6E03197F1F7AB
:10103000089508958EBD00000DB407FEFDCF8EB556
:1010400008958CBD9DBD08951F920F920FB60F920B
:1010500011242F933F934F935F936F937F938F93BD
:101060009F93AF93BF93EF93FF938091B900887FD5
:10107000803609F49CC068F5883209F45BC090F4AE
:10108000803109F454C038F4882309F4F6C088305C
:1010900009F44DC0F6C0883109F44CC0803209F41F
:1010A0005DC0EFC0803409F468C048F4803309F4AF
:1010B00055C0883309F0E5C080931303D8C080354C
:1010C00009F44FC0883509F45DC0883409F0D9C0EF
:1010D000D6C0883909F4C7C0A8F4883709F467C0B6
:1010E00038F4883609F463C0803709F460C0C9C099
:1010F000883809F4B8C0803909F45FC0803809F035
:10110000C0C05BC0803B09F486C038F4803A09F463
:1011100066C0883A09F47FC0B4C0803C09F4A7C017
:10112000883C09F4A4C0883B09F48AC0AAC0809115
:10113000F00210C09091120380911103981770F57E
:10114000E091120381E08E0F80931203F0E0EF50E4
:10115000FD4F80818093BB0085EC86C08093130394
:101160008EC0E091120381E08E0F80931203809174
:10117000BB00F0E0EF50FD4F80839091120380910F
:1011800011036EC0E091120381E08E0F8093120371
:101190008091BB00F0E0EF50FD4F808380911403FD
:1011A00081116DC081E08093EF0284EA61C083E029
:1011B000809315031092C402CFCF8091C402803275
:1011C00008F051C0E091C40281E08E0F8093C40208
:1011D0008091BB00F0E0EC55FD4F8083BDCF85ECE6
:1011E0008093BC00109215038091C402803230F4C9
:1011F000E091C402F0E0EC55FD4F10826091C40212
:1012000070E0E0917002F091710284EA92E0099539
:101210001092C40236C084E0809315031092A3029A
:101220001092A202E0917202F091730209958091EE
:10123000A202811105C081E08093A2021092820275
:10124000E091A30281E08E0F8093A302F0E0EE57BD
:10125000FD4F80818093BB009091A3028091A202F8
:10126000981708F479CF85E88093BC000AC085EC14
:101270008093BC001092150304C0109213030E94C7
:101280004E06FF91EF91BF91AF919F918F917F910A
:101290006F915F914F913F912F910F900FBE0F90E3
:1012A0001F9018950F931F93CF93DF93EC018B0141
:1012B0002097E1F06E817F810115110519F061150C
:1012C000710521F46017710731F410C0C8010E9444
:1012D0002722892B59F08D81882331F098E08902EB
:1012E000C00DD11D1124E4CFC0E0D0E0CE01DF91CC
:1012F000CF911F910F910895FC0190819078692BF7
:1013000060830895CF93DF93EC0188819981FB017D
:1013100001900020E9F73197AF01461B570BDC0124
:10132000ED91FC910280F381E02D09952A813B81AA
:10133000820F931F9B838A83DF91CF910895FF9241
:101340000F931F93CF93DF936115710549F46AECF6
:1013500071E0DF91CF911F910F91FF900C94820962
:101360008B01EC0162E2CE010E945407F801619109
:101370008F01662351F0E7E4F2E0F080FF2099F35B
:101380008181681759F03296F8CF62E2CE01DF9181
:10139000CF911F910F91FF900C9454076CE5CE01F3
:1013A0000E9454076F2DDFCF2F923F924F925F9292
:1013B0006F927F928F929F92AF92BF92CF92DF9265
:1013C000EF92FF920F931F93CF93DF93CDB7DEB7CA
:1013D00066970FB6F894DEBF0FBECDBF7C018B01C0
:1013E000DC0114968C918F77853009F4D3C068F4B2
:1013F000813008F4DEC0833008F4ACC0F7016081AE
:101400007181C8010E949F0940C2883009F190F49F
:10141000863009F4B6C0873009F0CBC0D701CD9033
:10142000DD90ED90FC906DE2C8010E945407B70179
:10143000A601ACC0803209F45EC0803409F0B9C0A6
:101440006BE5C8010E945407D701ED90FC904EC097
:10145000F7014080518062807380A3019201C30133
:10146000B2010E941C1D882319F066E572E0A3C03A
:1014700020E030E0A901C301B2010E941C1D87FFDA
:1014800008C06DE2C8010E94540777FA709477F89B
:10149000709420E030E0A901C301B2010E941C1D3C
:1014A000882309F48CC0A3019201C301B2010E94F8
:1014B000191FA30192010E941C1D811180C063E6C7
:1014C00072E079C0B801C7010E94D409F701858193
:1014D000882379F0F8E08F02E00CF11C1124E1146C
:1014E000F10439F06CE2C8010E945407E114F104E0
:1014F00049F76DE52BC06BE7C8010E945407D7017F
:10150000ED90FC90E114F10401F1F701668177811F
:10151000C8010E949F096AE3C8010E945407B801EC
:10152000C7010E94D409D70115968C91882369F0D0
:10153000B8E08B02E00CF11C1124E114F10429F055
:101540006CE2C8010E945407DDCF6DE7C8010E941C
:1015500054079BC1DB018D919C91F701428153811E
:1015600060817181DC01ED91FC910280F381E02DBD
:101570000995F80122813381820F931F938382831F
:1015800084C1F7014081518162817381C8010E9449
:1015900069077BC1F70180819181A281B381892B89
:1015A0008A2B8B2B19F069E871E005C06DE572E0BC
:1015B00002C06AEC71E0C8010E94820966C120E89D
:1015C00036E948E15BE4C301B2010E942D2087FFA8
:1015D00029C160E2E62EF12C75E0B72E212C312CCA
:1015E00020E030E0A901C301B2010E942D201816AD
:1015F00094F52CEA35EC47E257E3C301B2010E94AF
:101600001C1D181644F19FEFB91629F1AB2DB4E05B
:10161000AB0260011124F601E95EFE4FA3019201C5
:1016200060817181828193810E942D2018167CF443
:10163000F601E95BFE4F2081318142815381C30174
:10164000B2010E94821D2B013C012E183F08F59427
:10165000E794BA94D8CFC301B2010E94FE1F4B0198
:101660005C016B017C01E6E0EE8B80E492E4AFE08C
:10167000B0E08A8B9B8BAC8BBD8B9E89998BA92FFD
:10168000A150AE8BBAE0CB16D104E104F104C8F04E
:101690006A897B898C899D892AE030E040E050E0AE
:1016A0000E94B51E2A8B3B8B4C8B5D8BC701B6010C
:1016B0002AE030E040E050E00E94B51E69017A0166
:1016C000DCCFC501B4010E94211D9B01AC01C30107
:1016D000B2010E94181F6B017C016A897B898C8989
:1016E0009D890E94211D9B01AC01C701B6010E948A
:1016F000821D2B013C010E94FE1F6B017C010E9498
:10170000211D9B01AC01C301B2010E94181F9B0166
:10171000AC010E94191F0E94FE1FC60ED71EE81EB4
:10172000F91E8A899B89AC89BD89C816D906EA0643
:10173000FB06E0F09FEF891A990AA90AB90A211459
:10174000310489F0AAE08A169104A104B10458F08A
:10175000BFEF2B1A3B0AC12CD12C7601812C912C86
:101760005401839403C0C12CD12C76013AE0432E5E
:10177000512C612C712CC701B601A30192010E946A
:10178000B51E672B682B692B41F4E9891E162CF4D2
:1017900069017A01E150E98BEECFB501A401C801DE
:1017A0000E946907F989FF2329F15F2E5E0181E11B
:1017B000A80EB11C35015A949FEF591679F0C70154
:1017C000B6012AE030E040E050E00E94B51E605DC6
:1017D000D5016E935D0169017A01EDCFB301B9893D
:1017E0006B1B71098EE2FB018293BF01A301C8014B
:1017F0000E940E0737FE0AC06AE572E0C8010E9427
:101800008209662777276219730908C021143104F9
:10181000E1F165E6C8010E945407B101C8010E94C8
:10182000250733C08FE5A82E81E0B82E9FE2C92E90
:1018300091E0D92E20E2E22EF12C212C312CA301B3
:101840009201D5019E918E917E916E915D010E94D3
:101850001C1D18166CF0F6012489358946895789B4
:10186000C301B2010E94821D2B013C012E0C3F1CC2
:10187000F594E794F4E0CF1AD10887E4A81681E044
:10188000B806E9F6BB24BA94ABCE66960FB6F894C8
:10189000DEBF0FBECDBFDF91CF911F910F91FF90A3
:1018A000EF90DF90CF90BF90AF909F908F907F9000
:1018B0006F905F904F903F902F900895982F80EDFC
:1018C000890F8A3020F081EA890F8C3110F481E091
:1018D00008958FEB890F8A31D0F39B32C1F381E0F9
:1018E0009D3221F09E3219F080E008950895089508
:1018F000DF92EF92FF920F931F93CF93DF93CDB7B9
:10190000DEB728970FB6F894DEBF0FBECDBF8C01AF
:101910007B01DC011696ED91FC91179722813381B2
:101920008481958193838283FA83E9831C821B825D
:101930003E832D83821B930B98878F83C8010E945F
:101940001401D82EF8011286C8010E941401D80192
:101950001A961C92D81649F1811103C081E090E0DB
:1019600047C08C35E1F4C8010E9414018823B1F30B
:10197000853719F0EBE4F2E006C084E090E038C06F
:10198000891729F0329690819111FACF06C0818192
:10199000811103C082E090E02BC0F8011286682F0D
:1019A000CE0101960E94BA01CFCF60E0CE01019630
:1019B0000E94BA018D819E81892B71F08B819C815F
:1019C000E981FA812F813885821B930B2281338133
:1019D000820F931F938382838D819E81D7018D9384
:1019E0009C93892B19F483E090E002C080E090E0A2
:1019F00028960FB6F894DEBF0FBECDBFDF91CF9112
:101A00001F910F91FF90EF90DF900895282F309154
:101A10003803313208F04AC0809115038111FCCFA0
:101A20009091F50542E040931503209314032FEFA6
:101A3000209313031092120330931103E8E1F3E0B3
:101A4000A1EFB2E020E0321721F041914D932F5FDA
:101A5000FACF1092F0022091F002990F922B9093FE
:101A6000F0029091EF02913061F41092EF029091A8
:101A7000F0029093BB009091BC0093FDF8CF95ECE1
:101A800001C095EE9093BC00909115039230E1F364
:101A9000909113039F3F79F080911303803241F0BE
:101AA00080911303803331F084E005C081E003C0EE
:101AB00082E001C083E01092170310923803109265
:101AC000160308953FB7F8948091C9029091CA0215
:101AD000A091CB02B091CC0226B5A89B05C02F3FA8
:101AE00019F00196A11DB11D3FBFBA2FA92F982F44
:101AF0008827820F911DA11DB11DBC01CD0142E0BF
:101B0000660F771F881F991F4A95D1F70895809116
:101B100015038111FCCF413208F040E281E080934F
:101B20001503809314039FEF9093130310921203F5
:101B3000940F909311038093F0028091F002660F4E
:101B4000682B6093F0028091EF02813061F4109273
:101B5000EF028091F0028093BB008091BC0083FD76
:101B6000F8CF85EC01C085EE8093BC008091150311
:101B70008130E1F380911203841710F44091120335
:101B8000E1EFF2E0AFECB2E080E0841721F0919158
:101B90009D938F5FFACF1092CE028093CD0208956D
:101BA00042E050E06CE672E089E393E00C94F210BE
:101BB000CF93DF93009779F0FC0101900020E9F7C3
:101BC0003197AF01481B590BBC0189E393E00E9498
:101BD000F210EC0102C0C0E0D0E00E94D00D8C0FEA
:101BE0009D1FDF91CF910895BF92CF92DF92EF9228
:101BF000FF920F931F93CF93DF93EC016B018D85C1
:101C0000811105C0CE010E94E207811105C01B862B
:101C10001D861C8680E060C040E060EFCE010E941F
:101C2000931201E0E12CB12C11E0CE010E94E612EA
:101C3000F82ECE010E94E61291E0F91203C0813025
:101C4000B1F434C02E2D30E0F8121BC08B8518176C
:101C500038F4FE01E20FF31F8381802341F402C0B8
:101C6000811729F0F12C193058F41C8709C0FE01A6
:101C7000EE0DF11D8381802B8383FF24F39409C033
:101C8000B12EFE01E20FF31F9381802F80958923EF
:101C900083836F2DCE010E94B3071F5F000F11F4E5
:101CA000E39401E087E08E1508F0BFCF113408F40B
:101CB000AECFBB86B11002C081E08D878B818823B7
:101CC00009F4A5CFDE011396F6012B968D91819331
:101CD000CA17DB07D9F781E0DF91CF911F910F91F0
:101CE000FF90EF90DF90CF90BF9008950F931F93D8
:101CF000CF93DF93EC018B010E94FC112881398185
:101D000081110DC02115310519F0C9010E94CA20A9
:101D1000198218821D821C821B821A8207C01D83B1
:101D20000C8365E572E0C9010E943022CE01DF918B
:101D3000CF911F910F91089590E0FC01E458FF4F5F
:101D40002491FC01E255FF4F3491FC01E656FF4F10
:101D5000E491EE2309F43CC0222339F1233091F0C1
:101D600038F42130A9F0223001F584B58F7D12C0FE
:101D7000273091F02830A1F02430B9F48091800010
:101D80008F7D03C0809180008F77809380000DC08D
:101D900084B58F7784BD09C08091B0008F7703C070
:101DA0008091B0008F7D8093B000F0E0EE0FFF1FB8
:101DB000EE58FF4FA591B4919FB7F894611104C0FC
:101DC0008C913095382302C0EC913E2B3C939FBF01
:101DD00008950F931F93CF93DF93EC01062F142FD9
:101DE0008091BA058823B9F0813009F06EC08091E6
:101DF000BD059091BE050E94210860E08091BC0560
:101E00000E949C0E802F80680E941A08CE01810FCC
:101E1000911D8C0147C08091EE05813009F055C0BD
:101E20009091BB05809316039093F50510921703CC
:101E3000109238038091EF059091F005DC01ED914F
:101E4000FC910190F081E02D099581E00E94060D42
:101E5000412F6091BB058091EF059091F0050E94A4
:101E6000870DCE01810F911D8C018091EF0590911E
:101E7000F005DC01ED91FC910084F185E02D0995E0
:101E8000892B19F1C017D10701F18091EF059091CD
:101E9000F005DC01ED91FC910284F385E02D0995BC
:101EA0008993E3CFC017D10729F080E00E941A0878
:101EB0008993F8CF61E08091BC050E949C0EDF9170
:101EC000CF911F910F910C941908DF91CF911F9121
:101ED0000F910895CF93DF931F92CDB7DEB7682F90
:101EE00019828091BA05882349F0813009F045C0F4
:101EF00041E0CE0101960E94E90E3FC08091EE05BF
:101F00008130D9F59091BB05809316039093F50528
:101F100010921703109238038091EF059091F0050D
:101F2000DC01ED91FC910190F081E02D099581E0BB
:101F30000E94060D41E06091BB058091EF059091F4
:101F4000F0050E94870D8091EF059091F005DC016E
:101F5000ED91FC910084F185E02D0995892B69F0C4
:101F60008091EF059091F005DC01ED91FC910284E8
:101F7000F385E02D09958983E6CF89810F90DF9164
:101F8000CF910895CF93DF93D82FC62F8091BA05B4
:101F90008823F1F0813009F046C08091BD05909111
:101FA000BE050E94210860E08091BC050E949C0E45
:101FB0008D2F8F770E941A088C2F0E941A0861E0DB
:101FC0008091BC050E949C0EDF91CF910C94190862
:101FD0008091EE05813039F59091BB058093160311
:101FE0009093F50510921703109238038091EF0536
:101FF0009091F005DC01ED91FC910190F081E02DD4
:102000006D2F09958091EF059091F005DC01ED9120
:10201000FC910190F081E02D6C2F099581E0DF911A
:10202000CF910C94060DDF91CF910895CF93C82FD7
:10203000843008F0C0E084EF0E946A0F8C7F682F24
:102040006C2B84EFCF910C94C20FCF93DF9390E071
:10205000FC01E255FF4F2491FC01E656FF4F8491AD
:10206000882361F190E0880F991FFC01E859FF4F28
:10207000C591D491FC01EE58FF4FA591B491611127
:1020800009C09FB7F8948881209582238883EC91BA
:102090002E230BC0623061F49FB7F8948881322FF1
:1020A000309583238883EC912E2B2C939FBF06C001
:1020B0008FB7F894E8812E2B28838FBFDF91CF91C3
:1020C00008958E3008F08E508770806480937C0075
:1020D00080917A00806480937A0080917A0086FDF6
:1020E000FCCF809178002091790090E0922B0895A8
:1020F0008F929F92AF92BF92CF92DF92EF92FF9218
:102100006B017C010E94620D4B015C01C114D10482
:10211000E104F104F1F00E94620DDC01CB018819A9
:102120009909AA09BB09883E9340A105B10570F33E
:1021300021E0C21AD108E108F10888EE880E83E098
:10214000981EA11CB11CC114D104E104F10419F7BB
:10215000DDCFFF90EF90DF90CF90BF90AF909F903A
:102160008F9008952FB7F8946091C5027091C602C0
:102170008091C7029091C8022FBF08950F931F93BB
:102180000E94B21060934103709342038093430313
:102190009093440389E393E00E942B1197FF1FC0A3
:1021A0000E94B21000914103109142032091430319
:1021B00030914403DC01CB01801B910BA20BB30BCC
:1021C00000913D0310913E0320913F033091400365
:1021D00080179107A207B307E8F28FEF9FEF1F91D7
:1021E0000F910895CF92DF92EF92FF920F931F937A
:1021F000CF93DF936C017A018B01C0E0D0E0CE1564
:10220000DF0581F0D8016D918D01D601ED91FC9132
:102210000190F081E02DC6010995892B11F02196DE
:10222000EECF7E01C701DF91CF911F910F91FF90FB
:10223000EF90DF90CF900895FC01538D448D252FB2
:1022400030E0842F90E0821B930B541710F0CF9650
:10225000089501970895FC01918D828D981761F082
:10226000828DDF01A80FB11D5D968C91928D9F5FCD
:102270009F73928F90E008958FEF9FEF0895FC0178
:10228000918D828D981731F0828DE80FF11D858D2B
:1022900090E008958FEF9FEF0895FC01918D228DBE
:1022A000892F90E0805C9F4F821B91098F73992743
:1022B000089589E393E00E944D1121E0892B09F4F0
:1022C00020E0822F0895FC01848DDF01A80FB11D4D
:1022D000A35ABF4F2C91848D90E001968F7399275C
:1022E000848FA689B7892C93A089B1898C9183703A
:1022F00080648C93938D848D981306C00288F38933
:10230000E02D80818F7D80830895EF92FF920F935F
:102310001F93CF93DF93EC0181E0888F9B8D8C8D91
:10232000981305C0E889F989808185FD26C0F62EBD
:102330000B8D10E00F5F1F4F0F731127E02E8C8D58
:10234000E8120CC00FB607FCFACFE889F989808142
:1023500085FFF5CFCE010E946311F1CF8B8DFE0179
:10236000E80FF11DE35AFF4FF0829FB7F8940B8FEF
:10237000EA89FB89808180620AC09FB7F894EE8960
:10238000FF896083E889F989808183708064808314
:102390009FBF81E090E0DF91CF911F910F91FF905F
:1023A000EF900895CF93DF93EC01888D8823C9F0D7
:1023B000EA89FB89808185FD05C0A889B9898C914E
:1023C00086FD0FC00FB607FCF5CF808185FFF2CFE9
:1023D000A889B9898C9185FFEDCFCE010E94631148
:1023E000E7CFDF91CF9108950E94591181110C948C
:1023F000B00508950E9419220F931F93CF93DF9386
:10240000EC0188819981009729F02A813B81261768
:10241000370788F48B016F5F7F4F0E94532100972D
:1024200061F0998388831B830A832C813D81232B50
:1024300011F4FC01108281E001C080E0DF91CF91B6
:102440001F910F9108951F920F920FB60F921124B2
:102450002F933F934F935F936F937F938F939F93AC
:10246000AF93BF93EF93FF9389E393E00E946311CF
:10247000FF91EF91BF91AF919F918F917F916F915C
:102480005F914F913F912F910F900FBE0F901F9032
:1024900018951F920F920FB60F9211242F938F93BE
:1024A0009F93EF93FF93E0914903F0914A0380815A
:1024B000E0914F03F091500382FD12C09081809112
:1024C00052038F5F8F7320915303821751F0E09175
:1024D0005203F0E0E75CFC4F958F8093520301C0FC
:1024E0008081FF91EF919F918F912F910F900FBE5F
:1024F0000F901F901895DC0180E0615098F02D91AD
:10250000982F9227E92FEF70F0E0EE53FF4F2491C0
:1025100092959F70E92FF0E0EE52FF4FE491822FE9
:102520008E27EBCF0895DF92EF92FF920F931F93C8
:10253000CF93DF93EC01D62EE42E08E010E0FF24C9
:10254000F39461E08D2D8F2109F460E0CE010E94AB
:10255000B307FF0C01501109A1F7E11010C0F89466
:10256000E981FA8191818881809589238183E9813C
:10257000FA81928188818095892382837894DF9182
:10258000CF911F910F91FF90EF90DF900895EF9200
:10259000FF920F931F93CF93DF938C017B0140E059
:1025A00065E50E949312E70188E0E80EF11C69914D
:1025B00040E0C8010E949312CE15DF05C1F7DF91FC
:1025C000CF911F910F91FF90EF900895FC019081A2
:1025D0000180F281E02DF8948181892B8183228111
:1025E000892F809528232283A7E0B0E01197F1F787
:1025F000218182238183A3E2B0E01197F1F78081EA
:102600007894EFECF0E03197F1F7982381E009F44A
:1026100080E00895CF92DF92EF92FF92CF93DF9305
:10262000EC0189859A850E94E20740E06CEC89857F
:102630009A850E949312488164E489859A850E9454
:1026400093128C81882309F447C08D818823D9F0A7
:102650008881811118C00E94B2106B017C018985AC
:102660009A850E94E6128130B9F10E94B210DC0115
:10267000CB018C199D09AE09BF098E3E9240A10580
:10268000B10568F329C0EB81E950E33040F4F0E094
:10269000EE0FFF1FED57FE4F8081918102C08EEE3D
:1026A00092E06C01E12CF12C8981882321F060E01B
:1026B0008A810E949C0EC701B6010E947810898110
:1026C000882351F061E08A81DF91CF91FF90EF90F4
:1026D000DF90CF900C949C0EDF91CF91FF90EF9004
:1026E000DF90CF9008954F925F926F927F928F927A
:1026F0009F92AF92BF92CF92DF92EF92FF920F9391
:102700001F93CF93DF938C017B01EA01FC0181854C
:1027100092850E94E207882309F443C0B701F801BB
:10272000818592850E94C71240E06EEBF801818599
:1027300092850E9493127E015E01F9E0AF0EB11CFA
:102740006E01F8016184728488E0882E912C512CEE
:1027500044244394C3010E94E61281115428440C7E
:10276000F1E08F1A9108B1F7F60151926F01AE16A0
:10277000BF0639F7F801818592850E94E207813012
:1027800081F4F70181917F01811104C0EA15FB05F5
:10279000C1F707C068E0CE010E947B1291E0288556
:1027A000281390E0892FDF91CF911F910F91FF9017
:1027B000EF90DF90CF90BF90AF909F908F907F90E1
:1027C0006F905F904F900895EF92FF920F931F9339
:1027D000CF93DF93CDB7DEB761970FB6F894DEBF26
:1027E0000FBECDBF7C01062FDC011996ED91FC9147
:1027F0001A97138615861486DF011B9633961E9250
:10280000AE17BF07E1F710E0BE01665F7F4FF7012B
:10281000818592850E94F40D882369F0011308C018
:1028200067E0CE010A960E947B129989891741F0D0
:102830001F5F011748F760E070E08EEF92EC50C028
:10284000AE014F5F5F4FBE01665F7F4FC7010E94C1
:102850007313882309F441C02A8130E0C901982FFD
:102860008827990F990F990F6981F8E06F9FB00140
:1028700011249C01262B372B8A858031D9F4688559
:102880006623C1F070E08F81AB01481B5109CA017A
:102890009695982F8827979587950E94A11E60523C
:1028A0007109207F53E0220F331F5A95E1F7620F21
:1028B000731F01C0B901613854EE75070CF4BBCF2A
:1028C000072E000C880B990B0E94231D20E030E09E
:1028D00040E05CE30E94821D03C060E874EEEBCF31
:1028E00061960FB6F894DEBF0FBECDBFDF91CF91DA
:1028F0001F910F91FF90EF9008951F920F920FB6C6
:102900000F9211242F933F938F939F93AF93BF9375
:102910008091C5029091C602A091C702B091C802F1
:102920003091040623E0230F2D3720F40196A11DDA
:10293000B11D05C026E8230F0296A11DB11D2093ED
:1029400004068093C5029093C602A093C702B09379
:10295000C8028091C9029091CA02A091CB02B091A5
:10296000CC020196A11DB11D8093C9029093CA02A9
:10297000A093CB02B093CC02BF91AF919F918F9166
:102980003F912F910F900FBE0F901F901895CF92EF
:10299000DF92EF92FF920F931F93E82FF92F05C05C
:1029A000015011092109310961F190819623941791
:1029B000B9F305C0015011092109310911F19081C4
:1029C00096239413F7CFC12CD12CE12CF12C0AC003
:1029D0008FEFC81AD80AE80AF80A0C151D052E054B
:1029E0003F0579F080818623841791F36C2D7D2D2E
:1029F0008E2D9F2D1F910F91FF90EF90DF90CF9024
:102A0000089560E070E080E090E01F910F91FF90EA
:102A1000EF90DF90CF900895FC010D969183808315
:102A200093838283009721F09F012B523F4F02C076
:102A300020E030E035832483892B21F0CF018B52B5
:102A40009F4F02C080E090E09783868360E0CF01D3
:102A50000C960C947C09CF93DF93CDB7DEB76D97BE
:102A60000FB6F894DEBF0FBECDBF789484B58260F8
:102A700084BD84B5816084BD85B5826085BD85B522
:102A8000816085BD80916E00816080936E001092A0
:102A9000810080918100826080938100809181001B
:102AA00081608093810080918000816080938000AC
:102AB0008091B10084608093B1008091B00081600A
:102AC0008093B00080917A00846080937A00809136
:102AD0007A00826080937A0080917A00816080938E
:102AE0007A0080917A00806880937A001092C10009
:102AF000E0914903F0914A0382E08083E09145032D
:102B0000F09146031082E0914703F091480380E181
:102B1000808310925103E0914D03F0914E0386E0C3
:102B20008083E0914B03F0914C038081806180832E
:102B3000E0914B03F0914C03808188608083E091A9
:102B40004B03F0914C03808180688083E0914B03BC
:102B5000F0914C0380818F7D80831092CE02109281
:102B6000CD0210921703109238031092150381E0E2
:102B7000809314031092EF0261E082E10E949C0EA8
:102B800061E083E10E949C0E8091B9008E7F80936A
:102B9000B9008091B9008D7F8093B90088E480935B
:102BA000B80085E48093BC0080E896E090937302BF
:102BB0008093720281E896E0909371028093700294
:102BC000E0910204F0910304138615861486DF0158
:102BD0001B9633961E92AE17BF07E1F710920004C2
:102BE0001092010411E0BE01665F7F4F80910204E4
:102BF000909103040E94F40D8823F1F067E0CE0168
:102C00000A960E947B1299898913EDCF8091000466
:102C10008F5F809300048A85883209F42CC230F4D7
:102C2000803109F428C28232F1F625C28B3309F4CF
:102C300022C28234C1F61FC261E084E00E942510E6
:102C400061E085E00E94251061E088E00E94251087
:102C500061E086E00E94251061E087E00E94251077
:102C600061E08BE00E94251060E08CE00E9425105E
:102C700060E08BE00E949C0E86ED93E09093F0055F
:102C80008093EF0581E08093EE051092BA0562E033
:102C900070E080E090E00E9478108091BA05813069
:102CA00009F03DC01FB7F89480917502811127C0CB
:102CB000E4EAF0E08491E8EBF0E09491E82FF0E0B2
:102CC000EE0FFF1FE859FF4FA591B491EC91E92356
:102CD00021F461E08AE00E949C0E61E08AE00E949B
:102CE00025108CB580618CBD8CB580648CBD61E095
:102CF0008DE00E94251061E08BE00E9425108091FC
:102D000075028F5F809375021FBF61E08091BC05E3
:102D10000E94251061E08091BC050E949C0E80ED10
:102D20000E946A0F883519F0803609F004C289E8DC
:102D30000E946A0F182F88E80E946A0F212F30E046
:102D4000322F2227280F311D3093CA052093C90541
:102D50008BE80E946A0F182F8AE80E946A0F212FC1
:102D600030E0322F2227280F311D3093CC052093DD
:102D7000CB058DE80E946A0F182F8CE80E946A0F1D
:102D8000212F30E0322F2227280F311D3093CE051E
:102D90002093CD058FE80E946A0F182F8EE80E94BD
:102DA0006A0F212F30E0322F2227280F311D309358
:102DB000D0052093CF0581E90E946A0F182F80E982
:102DC0000E946A0F212F30E0322F2227280F311D59
:102DD0003093D2052093D10583E90E946A0F182F02
:102DE00082E90E946A0F212F30E0322F2227280F1C
:102DF000311D3093D4052093D30585E90E946A0FD5
:102E0000182F84E90E946A0F212F30E0322F2227E9
:102E1000280F311D3093D6052093D50587E90E94F0
:102E20006A0F182F86E90E946A0F212F30E0322F97
:102E30002227280F311D3093D8052093D70589E923
:102E40000E946A0F182F88E90E946A0F212F30E034
:102E5000322F2227280F311D3093DA052093D90510
:102E60008BE90E946A0F182F8AE90E946A0F212FAE
:102E700030E0322F2227280F311D3093DC052093BC
:102E8000DB058DE90E946A0F182F8CE90E946A0FFA
:102E9000212F30E0322F2227280F311D3093DE05FD
:102EA0002093DD058FE90E946A0F182F8EE90E949A
:102EB0006A0F212F30E0322F2227280F311D309347
:102EC000E0052093DF0581EA0E946A0F8093E10507
:102ED00082EE0E946A0F182F81EE0E946A0F212F46
:102EE00030E0322F2227280F311D3093E305209345
:102EF000E20583EE0E946A0F8093E40584EE0E944F
:102F00006A0F182F85EE0E946A0F8F7090E020E103
:102F1000129F800D911D11249093E6058093E50585
:102F200086EE0E946A0F182F85EE0E946A0F829526
:102F30008F7090E0E0E11E9F800D911D1124909311
:102F4000E8058093E70587EE0E946A0F8093E90504
:102F50001091C005183008F010E085EF0E946A0F4C
:102F6000F0E21F9F900111248F71682F622B85EF73
:102F70000E94C20F1091C105183008F010E085EFD3
:102F80000E946A0F94E0199F90011124837E682F9C
:102F9000622B85EF0E94C20FE091C305E13128F456
:102FA000F0E0EA5FFE4F108101C011E084EF0E9463
:102FB0006A0F082F80E00E94161084EF0E946A0FAB
:102FC000E4E01E9F90011124837E682F622B84EF22
:102FD0000E94C20F802F83700E941610E091C405DA
:102FE000E13128F4F0E0EA5FFE4F108101C011E00A
:102FF00084EF0E946A0F082F80E00E94161082EF73
:103000000E946A0F887F682F612B82EF0E94C20F97
:10301000802F83700E941610E091C205E13128F4E0
:10302000F0E0EA5FFE4F108101C011E084EF0E94E2
:103030006A0F082F80E00E94161084EF0E946A0F2A
:10304000F0E21F9F900111248F71682F622B84EF93
:103050000E94C20F802F83700E94161083E00E948E
:10306000161080ED0E946A0F883509F461C0803621
:1030700009F061C05DC0809101048F5F80930104FD
:103080008091F903811126C080910204909103047C
:103090000E94E207BE01665F7F4F8091020490911B
:1030A00003040E94C71240E064EB809102049091F7
:1030B00003040E94931280910204909103040E94E1
:1030C000E612082F80910204909103040E94E20707
:1030D000002359F18A858031F9F0AE014F5F5F4FCF
:1030E000BE01665F7F4F89EF93E00E9473138823D0
:1030F00079F08D818F3351F020F48F3149F489E0DC
:103100000CC08F3539F08F3739F002C08AE005C026
:1031100080E003C08BE001C08CE09091FC03981725
:1031200008F061CD8093FC035ECD1093F903D2CFFC
:103130008EEE91E002C086E092E00E94D80D99E305
:10314000292E93E0392E0E94B210209180023091F6
:1031500081027B01E21AF30A61E08BE00E949C0E7F
:1031600083E290E00197F1F760E08BE00E949C0E13
:10317000EAEBF0E06491E6EAF0E08491E82FF0E019
:10318000EE0FFF1FE057FF4F8591949100E412E48A
:103190002FE030E0462F0E94C714611571058105AC
:1031A000910549F0DC01CB010196A11DB11DBC01C7
:1031B000CD019F7003C060E070E0CB012BE330E0F5
:1031C00040E050E00E94D71E3093770220937602B1
:1031D000F0EDEF16F7E0FF060CF4FCC242E06DEFF5
:1031E000CE0101960E94E90E4090EA055090EB0551
:1031F0006090EC057090ED052CE2521A21E0620A15
:103200007108C980DA80DC24CD24DC24E12CF12C87
:103210004EE0CC0CDD1CEE1CFF1C4A95D1F78091D2
:10322000E5059091E605092E000CAA0BBB0B54E1B5
:10323000880F991FAA1FBB1F5A95D1F7C81AD90A20
:10324000EA0AFB0AA091E705B091E805A301920103
:103250000E94F61EC61AD70AE80AF90A80E4D80EB8
:10326000E11CF11C6FE0F594E794D794C7946A953C
:10327000D1F7A091E405B0E00E94401E4B015C0133
:103280007BE0B594A794979487947A95D1F790E8CA
:10329000990EA11CB11CA091E9050A2E000CBB0BD4
:1032A0000E94F61EEAE09595879577956795EA95D1
:1032B000D1F7A50194010E94911EDC01CB01FAE037
:1032C000B595A79597958795FA95D1F79C01AD018E
:1032D000405E5F4FA091E205B091E3050E94F61EAB
:1032E000DC01CB01905EAF4FBF4FBC01CD01AEE022
:1032F0009595879577956795AA95D1F7A70196013A
:103300000E94911E6B017C01BFE095958795779592
:103310006795BA95D1F79B01AC010E94911E9B0164
:10332000AC0117E055954795379527951A95D1F734
:10333000A091E105B0E00E94401EDC01CB0104E059
:10334000B595A795979587950A95D1F726013701E9
:10335000481A590A6A0A7B0A77FE03C0412C512C8D
:10336000320143E06AEFCE0101960E94E90E298105
:10337000822F90E0A0E0B0E0AC01BD013CE0440F42
:10338000551F661F771F3A95D1F78A8190E0A0E01C
:10339000B0E0E4E0880F991FAA1FBB1FEA95D1F7A0
:1033A000482B592B6A2B7B2B8B8182958F70482B56
:1033B0008091C9059091CA05A0E0B0E06A017B0147
:1033C000F4E0F594E794D794C794FA95D1F7C81A26
:1033D000D90AEA0AFB0A13E0759567955795479550
:1033E0001A95D1F7880F991FAA1FBB1F9A01AB012D
:1033F000281B390B4A0B5B0BA091CB05B091CC0578
:103400000E94F61E4B015C018BE0B594A794979443
:1034100087948A95D1F7A7019601C701B6010E944A
:10342000911E9B01AC019CE05595479537952795DA
:103430009A95D1F7A091CD05B091CE050E94F61EC8
:10344000DC01CB012EE0B595A795979587952A9538
:10345000D1F7A5019401280F391F4A1F5B1F209344
:10346000EA053093EB054093EC055093ED05A5E09C
:10347000B0E00E94401EDC01CB0180589F4FAF4F4F
:10348000BF4F692F7A2F8B2F992787FD9A950E941E
:10349000231D20E030E048EC52E40E94851F20917B
:1034A000C5053091C6054091C7055091C8050E94D9
:1034B000191F6A8F7B8F8C8F9D8F89EF93E00E94FD
:1034C0000A1382EE93E00E940A138EE00E946110BC
:1034D000BC01990F880B990B0E94231D20E030E05E
:1034E00048EC52EC0E94821D20E030EC4FE754E49F
:1034F0000E94851F20E030E048EC52E40E94191F32
:103500004B015C0160937C0270937D0280937E028C
:1035100090937F028FE00E946110BC01990F880B8D
:10352000990B0E94231D20E030E048EC52EC0E94F1
:10353000821D20E030EC4FE754E40E94851F20E01C
:1035400030E048EC52E40E94191F6B017C0160934B
:1035500078027093790280937A0290937B0260E004
:1035600089EF93E00E94E4136A8B7B8B8C8B9D8B9D
:1035700061E082EE93E00E94E4136E8B7F8B888F74
:10358000998F45EE54E06EE871E08DEE94E00E9474
:10359000DD008C01D301C201E1E04E16510461044B
:1035A000E9E17E0624F080E090E0A0E0B9E1BC0112
:1035B000CD012CE095958795779567952A95D1F75C
:1035C0000E94231D20E030E040E85AE30E94821D63
:1035D00020E030E048EC52E40E94821D0E94F71F78
:1035E000072E000C880B990B0E94231D20E030E071
:1035F00048EC52E40E94851FAB01BC01C8010E9447
:10360000310645EE54E062E971E08DEE94E00E94EF
:10361000DD004A8D5B8D6C8D7D8D0E94310645EEFF
:1036200054E067E971E08DEE94E00E94DD008C01CA
:1036300020E030E048EC52E46A897B898C899D89DE
:103640000E94821D0E94F71F072E000C880B990B09
:103650000E94231D20E030E048EC52E40E94851FC8
:10366000AB01BC01C8010E94310645EE54E063EA9B
:1036700071E08DEE94E00E94DD008C0120E030E0EE
:1036800048EC52E46E897F89888D998D0E94821D55
:103690000E94F71F072E000C880B990B0E94231D18
:1036A00020E030E048EC52E40E94851FAB01BC01F1
:1036B000C8010E94310645EE54E06EEA71E08DEEDD
:1036C00094E00E94DD008C0120E030E048EC52E400
:1036D000C501B4010E94821D0E94F71F072E000C35
:1036E000880B990B0E94231D20E030E048EC52E447
:1036F0000E94851FAB01BC01C8010E94310645EE46
:1037000054E069EB71E08DEE94E00E94DD008C01E5
:1037100020E030E048EC52E4C701B6010E94821D6F
:103720000E94F71F072E000C880B990B0E94231D87
:1037300020E030E048EC52E40E94851FAB01BC0160
:10374000C8010E943106E0907602F090770245EEC3
:1037500054E063EC71E08DEE94E00E94DD008C019A
:103760000097E1F0049647010F2C000CAA08BB0853
:10377000F7FC04C066E00E947C090BC067E00E9471
:103780007C09B094A09490948094811C911CA11CFD
:10379000B11CF80180829182A282B3823A8229828E
:1037A0001C821B828DEE94E0009731F0BE016F5FAA
:1037B0007F4F0E94D40906C06AEC71E0CE010196E9
:1037C0000E9482090E94D00D0E94B2107093810263
:1037D00060938002809174028823F1F16FEC71E0B4
:1037E00088E194E00E9471010E947D0164E070E034
:1037F0000E94B10165ED71E088E194E00E947101E1
:103800000E947D0165E070E00E94B1016BED71E006
:1038100088E194E00E9471010E947D0168E070E0FF
:103820000E94B10160EE71E088E194E00E947101B4
:103830000E947D0166E070E00E94B10167EE71E0D8
:1038400088E194E00E9471010E947D0167E070E0D0
:103850000E94B101109274020E94F41174CC109273
:103860003C0310923B0388EE93E0A0E0B0E080932D
:103870003D0390933E03A0933F03B093400323E6A0
:1038800031E030933A032093390325EC30E0309354
:1038900046032093450324EC30E030934803209303
:1038A000470320EC30E030934A032093490321EC96
:1038B00030E030934C0320934B0322EC30E0309304
:1038C0004E0320934D0326EC30E0309350032093B9
:1038D0004F0310925203109253031092540310920C
:1038E00055031092D9031092D8038093DA03909372
:1038F000DB03A093DC03B093DD0385E791E09093B5
:10390000D7038093D60382E58093BD0581E0809341
:10391000BE058093EE0540E856EE65EC77E44093F3
:10392000F1055093F2056093F3057093F40510923E
:10393000BA0597E79093BB0526ED33E03093F00589
:103940002093EF059AE09093BC0593E09093BF0518
:103950001092C0051092C1058093C2058093C305E3
:103960008093C4051092C5051092C6051092C70534
:103970001092C80585EE94E00E940C1580E194E059
:103980000E940C1560E089E00E942510E7EBF0E052
:10399000E491E093F605E3EAF0E0E491F0E0EE0F65
:1039A000FF1FE057FF4F859194919093F805809306
:1039B000F705109201061092030610920206E1E04C
:1039C000F6E089EF95E012928E179F07E1F71092CB
:1039D0000F0410920E041092FA0326EF35E0309394
:1039E0000304209302041092000410920104109228
:1039F000F90399E09093FC0381E08093FD038093A9
:103A0000FE038093FF031092F8031092F7031092C5
:103A1000E3033093EC032093EB031092E90310923D
:103A2000EA031092E2039093E5038093E603809308
:103A3000E7038093E80308950E945E1D08F481E087
:103A40000895E89409C097FB3EF490958095709591
:103A500061957F4F8F4F9F4F9923A9F0F92F96E9DA
:103A6000BB279395F695879577956795B795F1114F
:103A7000F8CFFAF4BB0F11F460FF1BC06F5F7F4FEC
:103A80008F4F9F4F16C0882311F096E911C07723FE
:103A900021F09EE8872F762F05C0662371F096E807
:103AA000862F70E060E02AF09A95660F771F881FD6
:103AB000DAF7880F9695879597F90895990F00087A
:103AC000550FAA0BE0E8FEEF16161706E807F907F0
:103AD000C0F012161306E407F50798F0621B730B8B
:103AE000840B950B39F40A2661F0232B242B252B0C
:103AF00021F408950A2609F4A140A6958FEF811DAF
:103B0000811D08950E94951D0C94061E0E94F81DAB
:103B100038F00E94FF1D20F0952311F00C94EF1D4A
:103B20000C94F51D11240C943A1E0E94171E70F37C
:103B3000959FC1F3950F50E0551F629FF001729F52
:103B4000BB27F00DB11D639FAA27F00DB11DAA1F61
:103B5000649F6627B00DA11D661F829F2227B00DAE
:103B6000A11D621F739FB00DA11D621F839FA00D39
:103B7000611D221F749F3327A00D611D231F849F89
:103B8000600D211D822F762F6A2F11249F575040E0
:103B90009AF0F1F088234AF0EE0FFF1FBB1F661F5B
:103BA000771F881F91505040A9F79E3F510580F024
:103BB0000C94EF1D0C943A1E5F3FE4F3983ED4F34F
:103BC000869577956795B795F795E7959F5FC1F7C8
:103BD000FE2B880F911D9695879597F9089597F973
:103BE0009F6780E870E060E008959FEF80EC0895A3
:103BF00000240A94161617061806090608950024CC
:103C00000A9412161306140605060895092E039445
:103C1000000C11F4882352F0BB0F40F4BF2B11F4B9
:103C200060FF04C06F5F7F4F8F4F9F4F089557FD18
:103C30009058440F551F59F05F3F71F04795880F1A
:103C400097FB991F61F09F3F79F0879508951216B1
:103C500013061406551FF2CF4695F1DF08C016165D
:103C600017061806991FF1CF86957105610508940E
:103C70000895E894BB2766277727CB0197F9089525
:103C80000E94821EA59F900DB49F900DA49F800D51
:103C9000911D112408952F923F924F925F926F923F
:103CA0007F928F929F92AF92BF92CF92DF92EF92CC
:103CB000FF920F931F93CF93DF93CDB7DEB7CA1B4D
:103CC000DB0B0FB6F894DEBF0FBECDBF09942A8878
:103CD000398848885F846E847D848C849B84AA8420
:103CE000B984C884DF80EE80FD800C811B81AA81AD
:103CF000B981CE0FD11D0FB6F894DEBF0FBECDBF78
:103D0000ED010895A29FB001B39FC001A39F700D64
:103D1000811D1124911DB29F700D811D1124911DD3
:103D20000895DB018F939F930E94401EBF91AF9136
:103D3000A29F800D911DA39F900DB29F900D112405
:103D4000089597FB072E16F4009407D077FD09D04D
:103D50000E94FE1E07FC05D03EF4909581959F4F72
:103D60000895709561957F4F0895A1E21A2EAA1BC0
:103D7000BB1BFD010DC0AA1FBB1FEE1FFF1FA2171B
:103D8000B307E407F50720F0A21BB30BE40BF50B18
:103D9000661F771F881F991F1A9469F760957095A1
:103DA000809590959B01AC01BD01CF010895052E32
:103DB00097FB1EF400940E94EE1E57FD07D00E9450
:103DC000B51E07FC03D04EF40C94EE1E50954095A2
:103DD000309521953F4F4F4F5F4F089590958095B7
:103DE000709561957F4F8F4F9F4F0895B7FF0C944B
:103DF000401E0E94401E821B930B0895AA1BBB1BF2
:103E000051E107C0AA1FBB1FA617B70710F0A61BDA
:103E1000B70B881F991F5A95A9F780959095BC01FB
:103E2000CD010895EE0FFF1F0590F491E02D099448
:103E30005058BB27AA270E94301F0C94061E0E94D0
:103E4000F81D38F00E94FF1D20F039F49F3F19F44F
:103E500026F40C94F51D0EF4E095E7FB0C94EF1D91
:103E6000E92F0E94171E58F3BA17620773078407D9
:103E7000950720F079F4A6F50C94391E0EF4E09520
:103E80000B2EBA2FA02D0B01B90190010C01CA0114
:103E9000A0011124FF27591B99F0593F50F4503EBF
:103EA00068F11A16F040A22F232F342F4427585FB1
:103EB000F3CF469537952795A795F0405395C9F7C9
:103EC0007EF41F16BA0B620B730B840BBAF0915081
:103ED000A1F0FF0FBB1F661F771F881FC2F70EC020
:103EE000BA0F621F731F841F48F4879577956795F3
:103EF000B795F7959E3F08F0B0CF9395880F08F0DF
:103F00009927EE0F9795879508950E94991F0C9415
:103F1000061E0E94FF1D58F00E94F81D40F029F473
:103F20005F3F29F00C94EF1D51110C943A1E0C9434
:103F3000F51D0E94171E68F39923B1F3552391F3E1
:103F4000951B550BBB27AA2762177307840738F008
:103F50009F5F5F4F220F331F441FAA1FA9F335D065
:103F60000E2E3AF0E0E832D091505040E695001C19
:103F7000CAF72BD0FE2F29D0660F771F881FBB1FD3
:103F8000261737074807AB07B0E809F0BB0B802DB1
:103F9000BF01FF2793585F4F3AF09E3F510578F0DD
:103FA0000C94EF1D0C943A1E5F3FE4F3983ED4F35B
:103FB000869577956795B795F7959F5FC9F7880FB1
:103FC000911D9695879597F90895E1E0660F771F03
:103FD000881FBB1F621773078407BA0720F0621B94
:103FE000730B840BBA0BEE1F88F7E09508950E94BF
:103FF000FE1F6894B1110C943A1E08950E941F1E72
:1040000088F09F5798F0B92F9927B751B0F0E1F099
:10401000660F771F881F991F1AF0BA95C9F714C049
:10402000B13091F00E94391EB1E008950C94391E10
:10403000672F782F8827B85F39F0B93FCCF3869582
:1040400077956795B395D9F73EF4909580957095DF
:1040500061957F4F8F4F9F4F08950E945E1D08F41A
:104060008FEF08950F931F93CF93DF9382309105C5
:1040700010F482E090E0E0910706F091080620E05D
:1040800030E0A0E0B0E0309719F140815181028129
:10409000138148175907C8F08417950769F41097DA
:1040A00031F012960C93129713961C9327C000932D
:1040B00007061093080622C02115310519F0421792
:1040C000530718F49A01BD01EF01DF01F801DBCFBE
:1040D00021153105F9F0281B390B2430310580F406
:1040E0008A819B816115710521F0FB019383828395
:1040F00004C09093080680930706FE01329644C0E0
:10410000FE01E20FF31F819391932250310939830D
:1041100028833AC02091050630910606232B41F4EE
:104120002091020130910301309306062093050689
:1041300020910001309101012115310541F42DB785
:104140003EB74091040150910501241B350BE091CD
:104150000506F0910606E217F307A0F42E1B3F0BAD
:104160002817390778F0AC014E5F5F4F24173507E9
:1041700048F04E0F5F1F509306064093050681934B
:10418000919302C0E0E0F0E0CF01DF91CF911F9169
:104190000F910895CF93DF93009709F481C0FC013C
:1041A000329713821282A0910706B09108061097E9
:1041B00081F420813181820F931F20910506309177
:1041C00006062817390751F5F0930606E093050611
:1041D00067C0ED0120E030E0CE17DF0740F44A81F0
:1041E0005B819E0141155105F1F0EA01F5CFD383C2
:1041F000C28340815181840F951FC817D90759F494
:1042000088819981840F951F0296918380838A818A
:104210009B81938382832115310529F4F09308064D
:10422000E09307063DC0E901FB83EA834991599178
:10423000C40FD51FEC17FD0761F480819181840FB5
:10424000951F0296E90199838883828193819B83DC
:104250008A83E0E0F0E012968D919C91139700978D
:1042600019F0FD01DC01F7CF8D919C9111979D0113
:104270002E5F3F4F820F931F209105063091060657
:104280002817390769F4309729F41092080610921C
:10429000070602C013821282B0930606A093050699
:1042A000DF91CF910895A0E0B0E0E9E5F1E20C9450
:1042B0004F1EEC01009721F4CB010E943220B4C0C4
:1042C000FC01E60FF71F9C0122503109E217F307AA
:1042D00008F4A8C0D9010D911C9111970617170772
:1042E000B0F00530110508F49BC0C801049786178B
:1042F000970708F495C002501109061B170B01938C
:1043000011936D937C93CF010E94CA2089C05B01F9
:10431000A01AB10A4C01800E911EA0910706B0911F
:104320000806612C712CE12CF12C109709F446C081
:104330008D919C911197A815B905B1F56C0142E0DA
:10434000C40ED11CCA14DB0478F14C018A189B08F6
:10435000640142E0C40ED11C1296BC9012971396D1
:10436000AC91B5E0CB16D10440F0B282A383918228
:104370008082D9016D937C9309C00E5F1F4F800F1F
:10438000911FF90191838083EB2DFA2FE114F10441
:1043900031F0D7011396FC93EE93129741C0F0933E
:1043A0000806E09307063CC06816790608F43C014D
:1043B0007D0112960D90BC91A02DB7CF809105067E
:1043C0009091060688169906E1F466167706C8F4F9
:1043D0008091000190910101009741F48DB79EB743
:1043E0004091040150910501841B950BE817F907D2
:1043F000C8F4F0930606E0930506F9017183608323
:104400000FC0CB010E9432207C01009759F0A80117
:10441000BE010E941E22CE010E94CA20C70104C014
:10442000CE0102C080E090E0CDB7DEB7EEE00C94A4
:104430006B1E81E090E0F8940C943722FB01DC01C4
:1044400002C001900D9241505040D8F70895FB01F1
:10445000DC018D91019080190110D9F3990B089519
:10446000FB01DC0101900D920020E1F70895F89422
:02447000FFCF7C
:1044720000000906200000010201030101010401FC
:10448200010101010101050000803FCDCCCC3D6F4F
:1044920012833A95BFD6337D1D9026B3CE010CCD43
:1044A200CCCC3D0AD7233C17B7D13877CC2B3295E9
:1044B20095E6241FB14F0A000020410000C84200C7
:1044C200401C4620BCBE4CCA1B0E5AAEC59D740091
:1044D2000000008511F2101C11D2114D112B113F59
:1044E2001100000000DB06AE060B078206A606924C
:1044F2000683065E00BC007701747275650048751C
:104502006D0054656D700054656D706C6F6D6272F4
:10451200697A0054656D70706C616E7461004875E3
:104522006D6C6F6D6272697A0048756D706C616E48
:10453200746100556C74726173006E756C6C0076F8
:10454200616C616C0076616C61700076616C680010
:1045520076616C7668610076616C76686800536596
:104562006E736F722064652048756D2079205465E2
:104572006D70204F4B004E6F207365207075646F15
:104582002065737461626C6563657220636F6D751B
:104592006E6963616369C3B36E20636F6E20656C7D
:1045A2002073656E736F722064652048756D207983
:1045B2002054656D702E0022225C5C6208660C6ECF
:1045C2000A720D7409004E614E00652D0066616C21
:1045D200736500496E66696E697479000D0A0000A0
:00000001FF
